:020000040800F2
:100000002808002089010008FF260008A520000814
:10001000FD260008F5030008452C0008000000003C
:10002000000000000000000000000000032700089E
:100030002F04000800000000012700080527000821
:10004000A3010008A3010008A3010008A301000800
:10005000A3010008A3010008A3010008A3010008F0
:1000600031040008A3010008A3010008F9030008F7
:10007000A3010008A3010008A3010008A3010008D0
:10008000A3010008A3010008A3010008A3010008C0
:10009000A3010008A3010008A30100083704000819
:1000A000A3010008A3010008A3010008A3010008A0
:1000B000A3010008A3010008A3010008A301000890
:1000C000A3010008A3010008A3010008A301000880
:1000D000A3010008392C0008A3010008A3010008AF
:1000E000A3010008A3010008A301000800F002F822
:1000F00000F03AF80AA090E8000C82448344AAF188
:100100000107DA4501D100F02FF8AFF2090EBAE885
:100110000F0013F0010F18BFFB1A43F0010318473B
:100120003853000058530000103A24BF78C878C1F3
:10013000FAD8520724BF30C830C144BF04680C60ED
:10014000704700000023002400250026103A28BF35
:1001500078C1FBD8520728BF30C148BF0B60704739
:100160001FB51FBD10B510BD00F06CF81146FFF7AC
:10017000F7FF03F09FFC00F08AF803B4FFF7F2FFEB
:1001800003BC00F08DF8000009488047094800478B
:10019000FEE7FEE7FEE7FEE7FEE7FEE7FEE7FEE737
:1001A000FEE7FEE704480549054A064B7047000094
:1001B00077270008ED00000828020020280800200A
:1001C00028040020280400204FF0000200B5134648
:1001D00094469646203922BFA0E80C50A0E80C5067
:1001E000B1F12001BFF4F7AF090728BFA0E80C5018
:1001F00048BF0CC05DF804EB890028BF40F8042B11
:1002000008BF704748BF20F8022B11F0804F18BF7D
:1002100000F8012B704770477047704710B500F029
:1002200009F8006810BD10B5044600F003F804603A
:1002300010BD000000487047C8010020004870470A
:10024000C80100207546FFF7F9FFAE460500694674
:10025000534620F00700854618B020B5FFF7A2FFEF
:10026000BDE820404FF000064FF000074FF00008B7
:100270004FF0000B21F00701AC46ACE8C009ACE838
:10028000C009ACE8C009ACE8C0098D46704710B59C
:100290000446AFF300802046BDE81040FFF76DBF75
:1002A00001491820ABBEFEE726000200704700009F
:1002B00070B5044600688168C943C90717D18168D1
:1002C00021F00101816000F06FFD05460AE000BFEA
:1002D00000F06AFD401B022804D920688068C043F2
:1002E000C00706D020688068C043C007F0D0002057
:1002F00070BDA06A40F01000A062E06A40F001000A
:10030000E062012070BD10B50146406A826A12F0B9
:10031000500F05D0006A026BBDE810400846104738
:10032000816A41F40071816201688968C1F34241C8
:1003300007290CD1017B51B9816A21F48071816256
:10034000816AC90403D4816A41F00101816200F02D
:10035000F5F810BD10B5406A816A41F04001816234
:10036000C16A41F00401C16200F0EAF810BD10B5A5
:10037000406A00F0E4F810BDF8B500260446009687
:1003800000688168C943C9072DD0816841F0010127
:100390008160164816490068B0FBF1F000E0401E8D
:1003A00000900028FBD100F0FFFC054616E000BFDE
:1003B00000F0FAFC401B022810D920688068C04376
:1003C000C0070BD0A06A40F01000A062E06A40F0C5
:1003D0000100E06284F824600120F8BD2068806894
:1003E000C043C007E4D10020F8BD00003400002065
:1003F00040420F00FEE70000014800F099BA0000FB
:100400008401002030B590F840500124AC40C56B09
:100410006C60046863604368102B036803D09960C4
:100420000068C26030BD9A600068C16030BD70472E
:10043000042000F0B7BB802000F0B4BB72B6FEE72A
:10044000F8B50024009490F824202546012A12D003
:10045000012280F824204A681F23072A0DD206684B
:10046000776B521E02EB820293409F430B689340CE
:100470001F43776319E00220F8BD06680D2A0AD2EF
:10048000376BD21F02EB820293409F430B6893406D
:100490001F43376309E0F76A0D3A02EB820293408B
:1004A0009F430B6893401F43F7620A68072306685F
:1004B0000A2A0AD3F7680A3A02EB420293409F43A2
:1004C0008B6893401F43F76008E0376902EB4202F4
:1004D00093409F438B6893401F4337610A68102AFB
:1004E00001D0112A20D1124B02689A4217D1936889
:1004F0001B0219D4936843F4000393600968102920
:1005000012D10C490C4A0968B1FBF2F101EB8101EF
:10051000490000E0491E00910029FBD104E0816AF6
:1005200041F020018162012480F824502046F8BD6A
:10053000002401403400002040420F007047704703
:10054000704700002DE9F0414FF0000704003D46E0
:100550007ED0A06A002628B9E66284F8246020468E
:1005600000F07EF82046FFF7A3FEA16AC90600D47A
:1005700020B1A06A40F01000A06269E0A16A21F4F5
:10058000885141F00201A1626268E169237B0A435C
:1005900047EA43010A43A1684FF48077B94209D082
:1005A000012907D05FF0000194F814C0BCF1010FDD
:1005B00002D00AE03946F7E7F3B1A36A43F020031B
:1005C000A362E36A43F00103E3622368D3F804C043
:1005D0002CF4694C4CEA010CC3F804C021688B6808
:1005E000DFF870C003EA0C0313438B60A168B942C3
:1005F0000BD0012909D00CE0DFF85CC0A3690CEB3B
:1006000043330B4343F40061DFE7218A0D05A5F571
:1006100080152168CB6A23F470032B43CB622168D9
:1006200089680E4B1940914208D1E662A16A21F017
:10063000020141F00101A162BDE8F081A06A20F051
:10064000020040F01000A062E06A40F00100E062A9
:100650000120F1E7FDF7E1FF00E0FFFFFE0E1FFFC5
:1006600070B586B000250646009501950295039564
:1006700000681A4988422ED11949886940F40070EF
:100680008861886900F400700490886940F0040073
:1006900088618869694600F0040004901F2000907A
:1006A000032001900F4800F089FA104C0E48C4E96D
:1006B00000058020C4E90250400020618000606194
:1006C0002020C4E90605204600F0DCF908B1FFF758
:1006D000B5FE3462666206B070BD000000240140C1
:1006E0000010024000080140080002408401002080
:1006F0002DE9F047894604463B4900683B4F0E1DF3
:100700009046884201D0B84207D1306810F4702F6B
:1007100003D001252846BDE8F08794F8240001287D
:100720000CD0012084F824002046FFF725FE0500A8
:100730004FF0000004D084F82400EBE70220EAE741
:10074000A16A40F60162914341F48071A16221687F
:10075000B94218D1326812F4702F14D0A16A41F452
:100760008011A1623168490505D5A16A21F40051C3
:1007700041F48051A162A16AC9040AD5E16A21F05D
:100780000601E16206E0A26A22F48012A2624968D0
:10079000E9E7E06284F82400216A15488862216A4A
:1007A0001448C862216A1448086321686FF0020087
:1007B00008602068816841F4807181602168434647
:1007C0004A464C31206A00F08BF920688168C1F3F9
:1007D00042410729816803D041F48011816099E783
:1007E00041F4A001FAE70000002401400028014084
:1007F000070300086F0300085503000810B50446FE
:1008000090F82400012807D0012084F82400204615
:10081000FFF74EFD10B113E0022010BD21688A6879
:1008200022F480728A60216A91F82120022A07D17D
:10083000084600F00EF8A16A30B141F04001A16213
:10084000002184F8241010BD21F4885141F00101E9
:10085000F5E710B590F821100022022905D00421F7
:10086000816380F82020012010BD01680B6823F00F
:100870000E030B6001680B6823F001030B6090F816
:100880004030C46B012101FA03F3636080F821104A
:1008900080F82020104610BD10B590F821100024DB
:1008A000022903D00421816301243DE001680A6824
:1008B00022F00E020A6001680A6822F001020A6052
:1008C0001A4A0168914201D1012121E0174A1432EC
:1008D000914201D110211BE0144A2832914201D1EA
:1008E000891515E0114A3C32914201D189140FE07B
:1008F0000E4A5032914202D14FF4803108E00B4A47
:100900006432914202D14FF4801101E04FF08071C6
:10091000064A083A5160012180F82110002180F830
:100920002010416B01B18847204610BD08000240ED
:100930002DE9F05FC16B0C6801680B68D0F840C00E
:10094000042202FA0CF2494DDFF824A1494E4A4F25
:10095000DFF828B1DFF828E122422CD05A072AD547
:100960000A68920603D40A6822F004020A60016849
:10097000A94201D1042219E0514501D1402215E0DC
:10098000B14202D14FF4806210E0B94202D14FF47B
:1009900080420BE0594502D14FF4802206E07145B8
:1009A00002D14FF4800201E04FF080622F490839F4
:1009B0004A60C16A3BE04FF0020808FA0CF818EAF6
:1009C000040F4FF000094FF0010235D05FEA837841
:1009D00032D50B689B0605D40B6823F00A030B6025
:1009E00080F821200168A94201D1022219E0514575
:1009F00001D1202215E0B14202D14FF4007210E083
:100A0000B94202D14FF400520BE0594502D14FF4E4
:100A1000003206E0714502D14FF4001201E04FF0C0
:100A20000072124908394A6080F82090816A0029D2
:100A30001AD0BDE8F05F0847082505FA0CF52542F5
:100A400012D01B0710D50B6823F00E030B6090F833
:100A50004010C36B02FA01F15960826380F82120D3
:100A600080F82090016BE2E7BDE8F09F08000240AB
:100A70001C00024030000240440002405800024086
:100A80006C00024030B528B308C813491422194439
:100A9000B1FBF2F18900C163104981630221417702
:100AA0001A6843F6F0718A43D0E900142143D0E973
:100AB00002452C432143046921434469214384694D
:100AC00021431143196000214163012242770177DC
:100AD000084630BD012030BDF8FFFDBF00000240D8
:100AE00070B5044690F82000002501280CD00120A4
:100AF00084F8200094F821600020012E06D084F8AC
:100B000020000225284670BD022070BD022684F810
:100B10002160A0632068066826F001060660204672
:100B2000FFF770FCE06A00282068016802D041F0FD
:100B30000E0106E021F0040101602068016841F027
:100B40000A0101602068016841F001010160D9E7F4
:100B500070B5044600F028F90546601C02D0044830
:100B60000078044400F020F9401BA042FAD370BD85
:100B700028000020094904280ED0802809D10A79CC
:100B800000203AB901220A7105490A6850630968D0
:100B900088637047087170470320FBE7000000205E
:100BA000BC000020044910B50A68024202D0086067
:100BB000FFF7E0FF10BD0000140401402DE9F84FDD
:100BC000DFF8B8910024A9F1040B23460F2709F19F
:100BD000040AABF1040EC9E00125A5402A40AA424F
:100BE0007DD1674ED1F804C0ACEB0608B44532D0D5
:100BF00014DCBCF1030F3AD009DCBCF1000F2AD0A1
:100C0000BCF1010F1CD0BCF1020F31D11DE0BCF1D1
:100C1000110F17D0BCF1120F2AD119E0B8F5881FB7
:100C200019D006DCB8F5803F15D0B8F5801F1FD16C
:100C300011E0B8F5001F0ED0B8F5041F18D10AE076
:100C4000CB6815E0CB681B1D12E0CB6808330FE0C2
:100C5000CB680C330CE08B682BB1012B4FF00803F1
:100C600003D0456104E0042302E0056100E00023B5
:100C7000FF2A01D8064601E000F104064FEA840588
:100C800001D9A5F12005D6F8008007FA05FC28EA6D
:100C90000C0803FA05F548EA0508C6F800804D6817
:100CA000ED0062D5374DAE6946F00106AE61AD6923
:100CB00024F0030605F001050095334D06EB050C05
:100CC000DCF80850A607360F07FA06F825EA0805EB
:100CD000DFF8B880404503D14FF0000817E044E04A
:100CE000DFF8AC80404502D14FF001080FE0DFF89B
:100CF000A480404502D14FF0020808E0DFF8988058
:100D0000404502D14FF0030801E04FF0040808FA13
:100D100006F848EA0508CCF808804D68D9F8006064
:100D2000ED024D4601D5164300E096432E604D6816
:100D3000DAF80060AD02554601D5164300E096434F
:100D40002E604D68DBF80060AD035D4601D51643AB
:100D500000E096432E604D68DEF80060ED037546B6
:100D600001D5164300E096432E60641C0D682A46A8
:100D7000E5407FF431AFBDE8F88F00000804014082
:100D80000000111000100240000001400008014066
:100D9000000C014000100140001401400AB1016143
:100DA00070470904FBE700000148806870470000B5
:100DB0002800002070B5040025D094F83D000025DF
:100DC00020B984F83C50204600F04EF9242084F8E5
:100DD0003D002068016821F0010101602068016880
:100DE00041F4004101602068016821F40041016084
:100DF00000F00EFB4D4A6168914201D84C4900E079
:100E00004C49884201D2012070BD4B492368B0FB98
:100E1000F1F15E6826F03F060E435E606368934220
:100E200006D94FF4967359434FF47A73B1FBF3F13B
:100E30002368491C1E6A26F03F0631431962616827
:100E4000914210D84900401EB0FBF1F2521CC2F38F
:100E50000B02042A01D2042022E0B0FBF1F0401C76
:100E6000C0F30B001CE0A268F2B301EBC10303EB7B
:100E70000116431EB3FBF6F35B1C43F480431B05D2
:100E800049D092B301EBC10202EB0111401EB0FB4D
:100E9000F1F0401CC0F30B0040F4804040F40040EF
:100EA0002168CA694CF6FF739A431043C861D4E9BC
:100EB000071001432068026822F0C002114301605C
:100EC000D4E9030101432068826848F2FF339A4362
:100ED00011438160D4E9050108432168CA6822F002
:100EE000FF021043C86001E00EE016E020680168D0
:100EF00041F0010101602564202084F83D00256354
:100F000084F83E50002070BD01EB4106431EB3FB48
:100F1000F6F35B1CB3E70120C2E701EB4101401E81
:100F2000B0FBF1F0401CC0F30B00B7E7A086010056
:100F300080841E0000093D0040420F002DE9F84F5B
:100F40001F4690468A460446DDF82890FFF72CFF9E
:100F5000054694F83D0020287FD1192301224049FD
:100F60002046009501F030F9002876D194F83C0035
:100F7000012872D0012084F83C0020680168C9076C
:100F800003D1016841F0010101602068016821F48A
:100F900000610160212084F83D00102084F83E00AB
:100FA00000262664C4F824806785608D20852D483E
:100FB000E0622B464A465146204601F08BF890B934
:100FC000206841698069009036E02A4649462046FB
:100FD00001F0A0F950B1206C042804D12068016808
:100FE00041F4007101600120BDE8F88F606A21685A
:100FF00000780861606A401C6062618D491E6185ED
:10100000218D491E89B2218522685369DB435B0724
:101010000BD451B100781061606A401C6062608D31
:10102000401E6085208D401E20852A464946204668
:1010300001F09EF80028CED1208D0028C5D154F8AB
:101040003D0B016841F400710160202004F81E0985
:10105000E67766770020C7E7FFE70220C4E70000D5
:10106000020010000000FFFF10B586B000210091C3
:101070000191029103910068104988421BD1104CE4
:10108000A06940F00800A061A069694600F008006E
:1010900004904FF4406000901220019003200390D0
:1010A0000848FFF78BFDE06940F48000E061E069EB
:1010B00000F48000049006B010BD0000005800400D
:1010C00000100240000C014002488168027811447F
:1010D0008160704728000020074810B5016841F082
:1010E00010010160032000F075F80F2000F006F8F1
:1010F00000F024F8002010BD0020024070B50D4D16
:1011000004464FF47A712878B1FBF0F00A49096877
:10111000B1FBF0F000F052FB48B9102C07D20022CE
:101120002146501E00F036F800206C6070BD012092
:1011300070BD000028000020340000200C4808B5D5
:10114000816941F001018161816901F00101009132
:10115000C16941F08051C161C06900F080500090C8
:101160000448416821F0E06141F00071416008BD30
:101170000010024000000140002809DB00F01F02BF
:10118000012191404009800000F1E020C0F80011E9
:1011900070470000F0B40E4B1B680C46C3F30223EB
:1011A000C3F10705042D00D90425191D072901D213
:1011B000002300E0DB1E012606FA05F1491E21404E
:1011C00099409E40761E16403143F0BC02F0ECBBC5
:1011D0000CED00E0064900F0070208684FF6FF0337
:1011E000184040EA0220034A10430860704700009C
:1011F0000CED00E00000FA052DE9F8430546007803
:10120000354CC00754D0E0690026C00008D4E0691E
:1012100040F08050E061E069012600F080500090CD
:101220002E480168C90512D40168804641F48071D6
:101230000160FFF7B9FD074605E000BFFFF7B4FD09
:10124000C01B642823D8D8F80000C005F6D5206A52
:1012500010F4407021D0A98801F4407181421CD063
:10126000206A1F49012220F440700A6000220A60AF
:101270002062C00711D0FFF797FD074641F288387A
:1012800008E000BFFFF790FDC11B414502D90320D4
:10129000BDE8F883206A8007F4D5206A696820F4E5
:1012A0004070084320621EB1E06920F08050E06188
:1012B0002878800705D56068A96820F44040084375
:1012C00060602878C00605D56068E96820F4800071
:1012D000084360600020DBE700100240007000401F
:1012E000400442422DE9F0470F46050061D0434ECD
:1012F000306800F00700B84209D2306820F00700DB
:1013000038433060306800F00700B84251D1286897
:101310003B4C810712D5400703D5606840F4E0607C
:1013200060602878000703D5606840F46050606012
:101330006068A96820F0F000084360602878C00762
:1013400028D06868012810D02168022810D08907A9
:1013500000292EDA616821F0030101436160FFF783
:1013600023FD804641F288390DE021688903EFE7CB
:101370008901EDE7FFF718FDA0EB0801494502D907
:101380000320BDE8F0876068696800F00C00B0EBEE
:10139000810FEFD1306800F00700B8420BD93068F8
:1013A00020F0070038433060306800F00700B84292
:1013B00001D00120E5E72878400705D56068E96895
:1013C00020F4E060084360602878000706D5606874
:1013D000296920F4605040EAC100606000F038F8EC
:1013E0006168084AC1F30311515CC84006490860AE
:1013F00006480068FFF782FE0020C2E70020024096
:1014000000100240AA530008340000202C000020E5
:101410000448054900684968044AC1F30221515C47
:10142000C84070473400002000100240BA53000842
:101430000448054900684968044AC1F3C221515C67
:10144000C84070473400002000100240BA53000822
:101450000E4A51680E4801F00C03042B11D0082BE2
:101460000FD10C48C1F38343C903C05C0AD551684E
:10147000084AC1F34041921E515C054A5043B0FBFB
:10148000F1F07047044948437047000000100240E3
:1014900000127A009A53000800093D002DE9F84F28
:1014A000040070D02078C04DC00749D06868C0F3F0
:1014B0008100012807D06868C0F38100022809D1A3
:1014C0006868C00306D52868800339D5606800289D
:1014D000E7D035E06068B0F5803F0BD010B1B0F5D3
:1014E000A02F11D0286820F480302860286820F4CC
:1014F000802002E0286840F480302860606890B165
:10150000FFF752FC06460AE0286840F48020286075
:10151000F0E700BFFFF748FC801B642873D82868F9
:101520008003F7D50CE0FFF73FFC064605E000BF5F
:10153000FFF73AFC801B6428F0D828688003F7D4B2
:1015400020789A4E80074FF001094FF0000839D5F6
:10155000686810F00C0F07D06868C0F3810002289B
:1015600009D16868C00306D42868800714D52069AB
:10157000012808D110E02069B0B1C6F80090FFF74B
:1015800013FC074605E00AE1FFF70EFCC01B02282A
:10159000C4D828688007F7D52868616920F0F8006A
:1015A00040EAC10028600DE0C6F80080FFF7FCFBB0
:1015B000074604E0FFF7F8FBC01B022823D8286881
:1015C0008007F7D4207800072CD57948A169D9B1D4
:1015D000C0F80090FFF7E8FB074604E0FFF7E4FBE4
:1015E000C01B02280FD8686A8007F7D571484FF4EE
:1015F000FA510068B0FBF1F0009000BF0098411E66
:101600000091FAD20EE080E0C0F80080FFF7CCFB3A
:10161000074604E0FFF7C8FBC01B022875D8686ABC
:101620008007F7D42078400760D5E8690027C0001C
:1016300008D4E86940F08050E861E869012700F0CB
:10164000805000905C480168C90513D40168834646
:1016500041F480710160FFF7A7FB824606E000BFFE
:10166000FFF7A2FBA0EB0A0064284ED8DBF80000CD
:10167000C005F5D5E06801280AD008B1052813D0C7
:10168000286A20F001002862286A20F0040002E0A5
:10169000286A40F001002862E06841F2883B98B176
:1016A000FFF782FB82460BE0286A40F004002862C4
:1016B000EEE700BFFFF778FBA0EB0A0159455AD8C7
:1016C000286A8007F6D50CE0FFF76EFB824605E03E
:1016D000FFF76AFBA0EB0A0159454CD8286A80073E
:1016E000F6D41FB1E86920F08050E861E06988B362
:1016F0006968C1F38101022944D00228C6F86080DC
:1017000004D0FFF751FB044638E034E0FFF74CFB10
:10171000074604E0FFF748FBC01B02282BD82868C7
:101720008001F7D4206AB0F5803F05D16868A168D0
:1017300020F4003008436860D4E908010843696870
:1017400021F4741108436860C6F86090FFF72CFB21
:10175000044606E025E000BFFFF726FB001B022839
:1017600009D828688001F7D51BE000BFFFF71CFBF4
:10177000001B022802D90320BDE8F88F28688001E9
:10178000F4D40EE00128F7D06868226A00F48031B2
:10179000914204D1616A00F47010884201D00120A6
:1017A000EAE70020E8E700000010024000004242A3
:1017B00080044242340000200070004010B5401EFA
:1017C000B0F1807F01D3012010BD4FF0E0246061B3
:1017D0000F21601702F0E8F80020A06107202061C7
:1017E000002010BD70B590F83C20012A26D00124BD
:1017F00080F83C40022280F83D2003685A689D68CA
:1018000022F070060A6832435A600D4B02689A4211
:1018100008D0B2F1804F05D00A4B9A4202D00A4B51
:101820009A4204D1496825F080031943916080F8F9
:101830003D40002180F83C10084670BD022070BD7C
:10184000002C0140000400400008004010B50400D6
:1018500003D094F83D0010B107E0012010BD002036
:1018600084F83C00204600F01FF8022084F83D0078
:10187000211D206800F080FF012084F8460084F8D4
:101880003E0084F83F0084F8400084F8410084F86A
:10189000420084F8430084F8440084F8450084F84A
:1018A0003D00002010BD000008B50068B0F1804F79
:1018B00008D10548C16941F00101C161C06900F06A
:1018C0000100009008BD00000010024070B5044601
:1018D00090F83C000025012817D0012684F83C60D0
:1018E000022084F83D002068826822F0770222F40A
:1018F0007F4282600868502838D00DDC20284FD005
:1019000005DC90B3102811D14AE0022070BD3028C8
:1019100046D040280AD13BE060282FD070280DD057
:10192000B0F5805F03D0B0F5005F12D0012584F8D8
:101930003D60002084F83C00284670BDCB68D1E9AA
:101940000121206800F05BFF2068816841F0770189
:1019500009E0CB68D1E90121206800F050FF206840
:10196000816841F480418160E1E719E0CA68496813
:10197000206800F0F9FF5021206806E0CA68496835
:10198000206801F002F86021206800F042FFCEE7F5
:10199000CA684968206800F0E7FF40212068F4E742
:1019A000226801461046F0E710B586B0002100918C
:1019B0000191029103910068B0F1804F2BD117483B
:1019C000816941F004018161816901F004010491A0
:1019D000816941F0080181618069022400F00800FA
:1019E00004904FF40040CDE9000469460C4803948C
:1019F000FFF7E4F80820CDE900046946094803949C
:101A0000FFF7DCF80848416821F4407141F0E061DB
:101A100041F48071416006B010BD0000001002402A
:101A200000080140000C01400000014070B5044670
:101A300090F83C0000260D4601280FD0012084F8C4
:101A40003C006AB1042A1DD0082A2FD00C2A3FD0AE
:101A50000126002084F83C00304670BD022070BD95
:101A6000206800F0DFFE2068816941F00801816193
:101A70002068816921F004018161206881692A69F7
:101A8000114311E0206800F0F5FE2068816941F4FF
:101A9000006181612068816921F480618161206831
:101AA00081692A6941EA02218161D2E7206800F058
:101AB0000DFF2068C16941F00801C1612068C1695A
:101AC00021F00401C1612068C1692A69114311E054
:101AD000206800F027FF2068C16941F40061C161FE
:101AE0002068C16921F48061C1612068C1692A69E7
:101AF00041EA0221C161ACE710B5040003D094F8BB
:101B00003D0010B107E0012010BD002084F83C002A
:101B1000204600F01EF8022084F83D00211D2068B8
:101B200000F02AFE012084F8460084F83E0084F884
:101B30003F0084F8400084F8410084F8420084F8B3
:101B4000430084F8440084F8450084F83D000020F8
:101B500010BD704710B50446022249B104290ED0C9
:101B6000082913D094F84100012816D0012010BD97
:101B700094F83E000128F9D184F83E200FE094F853
:101B80003F000128F2D184F83F2008E094F840009B
:101B90000128EBD184F8402001E084F841200122A3
:101BA000206800F01FFE0F492068884203D1426C74
:101BB00042F4004242642068884208D0B0F1804F6D
:101BC00005D00949884202D00849884204D1816879
:101BD00001F00701062903D0016841F0010101600D
:101BE000002010BD002C014000040040000800400F
:101BF00070477047F8B5016804460868CA684B69C1
:101C000010F00F0F4FF0000559D003F0010602F459
:101C10009077374365D0C10705D0D10503D5616CF6
:101C200041F001016164410705D5D90703D0616C1A
:101C300041F002016164810705D5D90703D0616CC9
:101C400041F004016164010707D502F0200131432E
:101C500003D0616C41F008016164616C00293AD0E5
:101C6000800604D5900602D5204600F0CFFE2068FD
:101C70004069616CC0F38010090700D460B320464E
:101C800000F09DFE20684069400621D52068143090
:101C900050E8001F21F0400140E80012002AF5D171
:101CA000E06BA8B16D494163E06BFEF7F5FD0028DC
:101CB00011D0E06B416B01B0BDE8F04008478306EE
:101CC0000FD593060DD52046BDE8F84000F09EBE26
:101CD0002046FFF78EFFF8BD2046FFF78AFF6564B8
:101CE000F8BD266B2023012E7CD1C6067AD5D606F8
:101CF00078D508684868009048694FF002064006A9
:101D000040D5E16B086840680004000CE8D0A28D63
:101D10008242E5D9E085886920282DD020680C30E2
:101D200050E8001F21F4807140E80012002AF5D12C
:101D30002068143050E8001F21F0010140E8001233
:101D4000002AF5D12068143050E8001F21F040012E
:101D500040E80012002AF5D184F84230256320685B
:101D60000C3050E8001F21F0100140E80012002A5A
:101D7000F5D1E06BFEF76DFD6663A08DE18D401A35
:101D800081B22AE0A08DE18D401A81B2E08D002859
:101D9000A6D00029A4D022680C3252E8000F20F40B
:101DA000907042E80007002FF5D12068143050E809
:101DB000002F22F0010240E80027002FF5D184F81F
:101DC0004230256320680C3050E8002F22F01002CA
:101DD00040E80023002BF5D166632046FFF708FF9B
:101DE000F8BDFFE705062BD5150629D594F8410067
:101DF0002128F5D1A068B0F5805F01D12069B0B18C
:101E0000206A411C2162216800784860E08C401EF5
:101E10000004000CE084E3D12068C16821F0800157
:101E2000C1602068C16841F04001C160D8E7206A04
:101E30000088C0F308004860206A801C2062E5E743
:101E40004006CDD55006CBD5CA68204622F04002C8
:101E5000CA6084F8413000F024F9C1E7AF290008D6
:101E600070B5040004D094F84100002510B106E0DC
:101E7000012070BD84F84050204600F023F8242053
:101E800084F841002068C16821F40051C1602046F7
:101E900000F01EFE2068016921F490410161206874
:101EA000416921F02A0141612068C16841F4005173
:101EB000C1606564202084F8410084F842006563B5
:101EC000002070BD30B585B00024009401940294C8
:101ED000039400681B49884232D11B48816941F450
:101EE00080418161816901F480410491816941F0FF
:101EF000080181618069154D00F0080004904020C0
:101F00000090022001900320039069462846FEF7C6
:101F100055FE8020CDE90004694628460294FEF76C
:101F20004DFE0B48416841F0E06141F00401416021
:101F3000002211462520FFF72DF92520FFF71CF977
:101F400005B030BD0038014000100240000C0140D7
:101F50000000014090F84230202B01D00220704751
:101F600021B11AB10023036300F00EBE01207047B7
:101F70002DE9F041012222492248FFF7EBFF2049D9
:101F800020480E3948308F7B002301240225303F42
:101F900001F11C0600F10802152F0DD2DFE807F051
:101FA0000B0E10121416191C1E250C0C0C0C0C0C0C
:101FB0000C27292B2D003471BDE8F0813371FBE72C
:101FC0000D71F9E70B71F7E74B73F5E7017B8C5463
:101FD00007E0017B8D5404E0052100E00621037B2E
:101FE0009954017B491C0173E6E70B74E4E70C7418
:101FF000E2E70D74E0E7032000E004200874DBE76B
:102000000E000020040100202DE9F843044690F85A
:1020100041001F4616460D46202802D00220BDE88A
:10202000F8837DB176B100206064212084F84100FE
:10203000FEF7BAFEA6848046E684A068B0F5805F0D
:1020400002D003E00120EAE7206910B12E46002506
:102050000EE000260CE08021204600F0B0FDA0B983
:10206000AEB116F8010B21684860E08C401EE08498
:10207000E08C43464FF0000200970028EBD14FF070
:102080004001204600F09BFD30B10320C7E735F842
:10209000020BC0F30800E6E7202084F8410000208E
:1020A000BDE77047FEE701684A69D24352050FD485
:1020B0006FF480624A61002140F8301F2022427391
:1020C0008173026942F004020261017301207047CA
:1020D00000207047F8B50446C06A1E460D461746F4
:1020E000082807D0012805D010F5803F02D0206BCA
:1020F000122804D12068016841F480710160134600
:1021000000224FF001112046009600F05DF840B12A
:1021100020680068C00502D54FF4007020640320D9
:10212000F8BD2069B0F5804F0ED00620216800EA86
:10213000D51040F0F000086133463A460B4920467E
:1021400000F08AF878B902E005F0FE0000E0E8B29D
:1021500021680861054933463A46891F204600F048
:102160007BF80028DCD00120F8BD00000800010049
:1021700070B516460D4604461EE02046FFF793FF55
:1021800008B1012070BD681C16D0FEF70DFE801B43
:10219000A84200D885B920684069C04340070BD5E4
:1021A000002044F8300F20216173A073216941F0B1
:1021B000200121612073E4E720684069C0434007A3
:1021C000DBD4002070BD00002DE9F047984617468B
:1021D0000D460446C1F30746DDF820902AE000BF13
:1021E000B8F1FF3F26D0FEF7DFFDA0EB0901414526
:1021F00002D8B8F1000F1DD12068012E16D08069D9
:1022000025EA00000004000C12D00020B84211D1D1
:10221000002044F8300F20216173A073216941F040
:102220002001216120730120BDE8F0874069E7E7C4
:102230000120EBE72068012E0AD0806925EA000022
:102240000004000C06D00020B842C9D00020EBE703
:102250004069F3E70120F7E72DE9F0479846164675
:102260000D4604464FF000094FF0200AC1F307471E
:1022700023E020684069C043400515D42068016808
:1022800041F40071016021686FF480604861C4F816
:10229000309084F83DA084F83E90216C41F0040118
:1022A000216484F83C9021E0701C06D0FEF77CFD90
:1022B000A0EB0800B04203D816B1012F1FD021E0D7
:1022C0002068012F15D0806925EA00000004000C69
:1022D00018D000BF44F8309F84F80DA084F80E9009
:1022E000216941F02001216184F80C900120BDE8B2
:1022F000F087406925EA00000004000CEAD120685C
:10230000406901E02068806925EA00000004000CB3
:10231000AFD1ECE770B516460D4604461EE02046E8
:10232000FFF7C1FE08B1012070BD681C16D0FEF792
:102330003BFD801BA84200D885B920684069C04396
:1023400000060BD5002044F8300F20216173A073E4
:10235000216941F0200121612073E4E72068406990
:10236000C0430006DBD4002070BD10B5012000F092
:102370003FF8BDE810400A20FEF7EABB10B501287F
:102380000BD04031C8B240F0800000BF00F030F800
:10239000BDE810400A20FEF7DBBB8031C8B2F5E78C
:1023A00010B5332000F024F8322000F021F832205C
:1023B000FEF7CEFB282000F01BF83220FEF7C8FB0A
:1023C000062000F015F83220FEF7C2FB0C2000F0CA
:1023D0000FF83220FEF7BCFB022000F009F8322093
:1023E000FEF7B6FBBDE81040802000F001B8000009
:1023F0001CB500F0F00141F00C028DF8042041F012
:10240000080100018DF8051040F00C018DF8061050
:1024100040F008008DF8070064200090042301AA12
:102420004E210248FEF78AFD1CBD00006800002016
:102430001CB500F0F00141F00D028DF8042041F0D0
:10244000090100018DF8051040F00D018DF806100E
:1024500040F009008DF8070064200090042301AAD1
:102460004E210348FEF76AFD0A20FEF771FB1CBDF2
:102470006800002010B5044602E0641CFFF7D8FF96
:1024800020780028F9D110BD70B514460D460646D7
:10249000FFF76BFF29463046FFF770FF02E0641C30
:1024A000FFF7C6FF20780028F9D170BDFEB50024E3
:1024B00025480094019423490294016089158160A4
:1024C000012505730475052606614FF460214460FB
:1024D000C161FEF737F808B172B6FEE70720009435
:1024E000CDE9015069461848FDF7AAFF08B172B658
:1024F000FEE70224CDE9005469461348FDF7A0FF2A
:1025000008B172B6FEE70094032469460E480194B0
:10251000FDF796FF08B172B6FEE700940424694601
:1025200009480194FDF78CFF08B172B6FEE7CDE9CA
:10253000004669460448FDF783FF002801D072B6C3
:10254000FEE7FEBD00240140380000202DE9F043E5
:1025500085B000253B48009501950295039581695A
:1025600041F004018161816901F0040104918169F4
:1025700041F0080181618069DFF8CC9000F008002B
:102580000490002243F230014846FEF707FCDFF8D2
:10259000BC804FF4E056002231464046FEF7FEFB79
:1025A0006020CDE900050224694602944046FEF70A
:1025B00005FB274F8020CDE900076946029440467D
:1025C000FEF7FCFA4CF20330CDE9000569460294AF
:1025D0004846FEF7F3FA0420CDE900076946029465
:1025E0004846FEF7EBFA01254FF44050CDE90005CF
:1025F000CDE9025469464846FEF7E0FA0096CDE977
:102600000154694640460394FEF7D8FA3020009002
:10261000CDE90154694648460394FEF7CFFA0022FB
:1026200011460820FEF7B6FD0820FEF7A5FD0022A2
:1026300011461720FEF7AEFD1720FEF79DFD05B0F1
:10264000BDE8F08300100240000C0140000801408A
:102650000000111010B58EB000240794089409945E
:102660000A940B941C2168460C94FDF7ADFD22489A
:102670004FF0804101604521C0E9011442F20F7121
:10268000C0E903148461FFF7E1F808B172B6FEE710
:102690004FF48050079007A91748FFF717F908B1C2
:1026A00072B6FEE71448FFF727FA08B172B6FEE7E4
:1026B0000B940BA910480C94FFF794F808B172B66C
:1026C000FEE76020CDE900040294002269460A4832
:1026D0000494FFF7ABF908B172B6FEE7042269462D
:1026E0000548FFF7A3F908B172B6FEE70248FFF705
:1026F0005BF90EB010BD0000BC000020FEE7FEE755
:1027000070477047FEF7E0BC30B593B028216846AB
:10271000FDF75AFD14210AA8FDF756FD00250224F5
:1027200001200F9504900094102005901295C0038D
:10273000CDE908501195109507946846FEF7AEFE56
:1027400008B172B6FEE70AA90F2081E831000D95A5
:1027500000210AA80E95FEF7C5FD08B172B6FEE786
:102760000FA811950F94FEF747FD002801D072B60F
:10277000FEE713B030BD7047F0B50268164B174C3A
:10278000174D4FF08047984205D0B84203D0A04281
:1027900001D0A84203D122F070064A683243984221
:1027A00005D0B84203D0A04201D0A84203D122F400
:1027B0004074CA6822434C6922F0800222430260BE
:1027C0008A68C2620A688262984201D1096901631B
:1027D00001214161F0BD0000002C014000040040D7
:1027E0000008004010B501F01F030121046A994060
:1027F0008C430462016A9A401143016210BD10B516
:10280000846842EA032224F47F440A43224382601C
:1028100010BD826822F070020A4342F00701816015
:102820007047000030B5036A026A22F001020262BA
:102830004268846924F073050C682C4323F0020578
:102840008B682B430A4DA8420BD123F00805CB68B7
:1028500022F440722B434D6923F0040315438A6927
:102860002A434260846149684163036230BD0000CD
:10287000002C014030B5026A036A23F010030362A2
:10288000436884690D6824F4E64444EA05248D68AD
:1028900022F0200242EA05120B4DA8420ED1CD686B
:1028A00022F0800242EA05124D6923F4406343EAB4
:1028B00085038D6922F0400243EA85034360846109
:1028C00049688163026230BD002C014030B5036A63
:1028D000026A22F4807202624268C46923F40073BF
:1028E00024F073050C682C438D6843EA05230C4DD6
:1028F000A8420ED1CD6823F4006343EA05234D6955
:1029000022F4405242EA05128D6923F4806342EAC0
:1029100005124260C4614968C163036230BD0000B2
:10292000002C014030B5046A026A22F4805202622F
:102930004268C3690D6823F4E64343EA05238D68C2
:1029400024F4005444EA0534064DA84204D14D69EC
:1029500022F4804242EA85124260C3614968016400
:10296000046230BD002C014010B5036A046A24F0F3
:1029700001040462846924F0F00444EA021423F0A0
:102980000A020A438461026210BD10B5036A046A38
:1029900024F010040462846923F0A00324F470443A
:1029A00044EA023243EA01118261016210BD10B5AE
:1029B000406A0021C185C184FFF71BF910BD016881
:1029C0000C3151E8002F22F4907241E80023002BD3
:1029D000F5D10168143151E8002F22F0010241E8DD
:1029E0000023002BF5D1016B012909D101680C31BD
:1029F00051E8002F22F0100241E80023002BF5D10E
:102A0000202180F8421000210163704708B590F83A
:102A10004210222901D0022008BD82684FF4805361
:102A20009A4201D1016921B1816A9A421BD04AB10F
:102A30000AE00268816A5268C2F308020A80816A69
:102A4000891C08E0026972B10268526802F07F02D4
:102A50000A70816A491C8162C18D491E0904090CF2
:102A6000C18503D01BE002685268F1E70168CA68BB
:102A700022F02002CA600168CA6822F48072CA602B
:102A800001684A6922F001024A61202180F842105F
:102A900000214163026B012A03D0FFF769FA00208D
:102AA00008BD016301680C3151E8002F22F01002CB
:102AB00041E80023002BF5D101680A68D20602D54F
:102AC0000A6849680091818DFFF792F8E7E70000F6
:102AD00070B5044600680169E26821F44051114371
:102AE00001612169A0680843616908432168CA68D7
:102AF00041F20C639A430243CA6020684169A269AB
:102B000021F44071114341611E492068884202D17D
:102B1000FEF78EFC01E0FEF77BFC00EBC00101EB51
:102B20000012606864218000B2FBF0F3B3FBF1F3A4
:102B30006FF018067343B2FBF0F5B2FBF0F605EB4D
:102B40008305322303EB0515B5FBF1F5B6FBF1F672
:102B500005F0F00505EB0615B2FBF0F6B2FBF0F060
:102B6000B0FBF1F06FF01802504306EB800003EB6E
:102B70000010B0FBF1F0216800F00F0028448860DD
:102B800070BD00000038014081628285C28500214D
:102B90004164222180F84210016921B10168CA68AC
:102BA00042F48072CA6001684A6942F001024A61D7
:102BB0000068C16841F02001C160002070472DE924
:102BC000F041984617460E460446069D27E0681CCD
:102BD00025D02DB1FEF7E8F8A0EB0800A8421ED9D9
:102BE00020680C3050E8001F21F4D07140E800123A
:102BF000002AF5D12068143050E8001F21F00101AF
:102C000040E80012002AF5D1202084F8410084F821
:102C10004200002084F840000320BDE8F0812068D5
:102C2000006836EA000004D00020B842CFD000206F
:102C3000F3E70120F9E700000148FEF7DBBF0000E1
:102C400004010020FEE7000030B50023074C09E036
:102C5000D55C05F00305CD54D55CC5F38005C5549E
:102C60005B1CDBB2257B9D42F2D830BD4C010020BD
:102C700003480068400401D50020704701207047D8
:102C8000080C0140F0B53548344FB0F800E01E3074
:102C90000446B0F800C06288A088E18824897E8854
:102CA000BB88FD883F8928302831283228340CF130
:102CB000280CE64507D9964205D9834203D98D42AF
:102CC00001D9A7420FD8E64505D9964203D98342D8
:102CD00001D98D4207D8A74207D9964205D9834228
:102CE00003D98D4201D90920F0BD964205D983420E
:102CF00003D98D4201D90020F0BDE64505D99642A1
:102D000003D9834201D90220F0BD834205D98D4207
:102D100003D9A74201D90620F0BD964203D98342C8
:102D200001D90120F0BDE64503D9964201D903201F
:102D3000F0BD834203D98D4201D90520F0BD8D42FB
:102D400003D9A74201D90720F0BDE64501D90420E7
:102D5000F0BDA742FCD90820F0BD00005A010020B8
:102D60002DE9F043174E002106F11402DFF85890C8
:102D7000084606F10A07A2F11E044FF0010C00BF3D
:102D800036F8103037F810505B1B0F2B0BDC32F885
:102D9000103034F81050A3EB0508B8F10A0F02DC2C
:102DA000EB1A0A2B02DD491CC9B201E009F800C088
:102DB000401CC0B20528E3D311B10120BDE8F08367
:102DC0000020FBE764010020210000200348006888
:102DD000000401D50020704701207047080C014015
:102DE0000849087B18B101280BD100F077B90648D3
:102DF000027A02F003030371C2F380020270012021
:102E000008737047000000204C01002030B51849BD
:102E10000868184B8207184842F20F7407D50068FB
:102E2000C00401D500F09CF91868446310E0026802
:102E3000920605D500680005F6D500F071F9F3E7B4
:102E4000096840F6AE02CD070A49096803D04A6313
:102E50001868846330BD0068400603D54C63186869
:102E6000826330BD002048631968886330BD00006C
:102E7000080C0140BC000020080801400848016817
:102E80000168006807480068C00701D000F0CEBCA8
:102E900005480021026851630068816300F0FEBBB1
:102EA00008080140080C0140BC00002070B5224C0D
:102EB000224A0126237842F20F71E3B1104602251F
:102EC0000068012B2DD0022B14D14163106881635F
:102ED000C820FDF73DFE194904F11C00903100782F
:102EE0000979884203D1A079022822D0A671002056
:102EF0006072207070BD124D286840F480502860C8
:102F0000FFF7B6FE0128F5D11068416310688163B0
:102F1000C820FDF71DFE286820F480502860267028
:102F200070BD416310688163C820FDF711FE2570F4
:102F300070BD2572DBE7000000000020BC0000200F
:102F40000C0C01402DE9F041044601EB4100069FC5
:102F5000A3EB830108444FF08045A2EB8206022FC9
:102F600021D0401E40B201F03CFE0022A8462B4674
:102F700000F0E4FE0746641E04EB4400400000EB52
:102F800046000D46001F40B201F02BFE00224346D2
:102F900000F0D4FE3A462B4601F0E2FB01F0F4FDCE
:102FA000C0B2BDE8F081401C40B201F01AFE002220
:102FB000A8462B4600F0C2FE074604EB4400400042
:102FC00000EB46000D46001DDDE700002DE9F0474F
:102FD0004048DFF804910246437892F800800226C8
:102FE000032599F8007099F80440D278002193B134
:102FF000012B21D0CC464FF0010A9CF80CC0022BCB
:1030000029D0032B16D14B4644455CD046D285705F
:1030100080F801A05BE008F10108444501D9817006
:1030200006E0974202D28570457001E046708670D6
:1030300080F80080BDE8F087641C444501D28170AF
:1030400006E0974202D28670457001E046708570B6
:10305000A8F10108ECE74B46444519D003D286702D
:1030600080F801A018E059734FF001060BE000BF93
:1030700003EB060898F80480444502D189F80DA0B6
:1030800004E0761CF6B2B445F2D819B1974201D9E2
:10309000817001E085704170521C19E0597301255F
:1030A0000BE000BF03EB050898F80480444502D10B
:1030B00089F80DA004E06D1CEDB2AC45F2D821B149
:1030C0007F1C974201D2817001E086704170521ED0
:1030D000C270AFE71C0000204C01002010B50F4C5F
:1030E000607A68B101280FD104F11C00807860B1CA
:1030F00002280ED0032807D1BDE8104000F0F4BB31
:10310000FFF764FF0120607210BDBDE81040FFF7BB
:10311000CDBEBDE8104000F027BB0000000000203D
:103120000D48016821F480610160016821F40061AB
:103130000160016841F48051016008490A6822F089
:1031400010020A600A6842F020020A60016841F435
:1031500080610160704700000C0801400C0C0140C8
:103160000D48016821F480610160016841F400614B
:103170000160016821F48051016008490A6842F049
:1031800010020A600A6822F020020A60016841F415
:1031900080610160704700000C0801400C0C014088
:1031A0002DE9F0413B4C00250126E079A0B1022732
:1031B000012831D0022860D003280BD1FDF7F4FD9F
:1031C000A169401A40F2DC51884203D9FFF7CDF8DB
:1031D000E571A771BDE8F0812F4801684D63006873
:1031E00085632EA204210120FFF74EF90021022061
:1031F000FFF7C4F827481C30C07858B13420E0737A
:1032000024492548642301220F314830FEF7FCFE93
:10321000E671DFE73320F2E7617B1F48903000F171
:10322000080671B10546017B407B8142D2D9805DA1
:10323000012816D0022816D005281AD0062815D144
:1032400019E029464173144905469C31304600F087
:10325000C5F811483246291D9030FFF7F5FCE7719B
:10326000B8E711A000E012A0FFF704F9287B68730B
:10327000B0E711A0F8E712A0F6E713A200210120A1
:10328000FFF702F9FDF790FDA0610320E07166737E
:10329000A0E7000000000020BC0000205049434B84
:1032A000494E4721000000002D525331000000001C
:1032B0002D525332000000002D5253330000000005
:1032C0002D5253340000000046494E4953482052C5
:1032D0004543454956494E47000000002DE9F0415D
:1032E000344C00250126A07A98B1012841D002284B
:1032F00045D003280BD1FDF757FDA169401A40F2D4
:10330000DC51884203D9FFF730F8A5722572BDE879
:10331000F081294908684563086885632548352296
:103320001C30362390F801C0C17837253827007843
:10333000BCF1020F02D0012901D112E089B10128AC
:1033400015D0E7731B491C48642301220F31483014
:10335000FEF75AFE19A202210120FFF795F8A67286
:10336000D5E7012801D0E373ECE7E273EAE7E57300
:10337000E8E7607B0028CAD10220A072C7E713A249
:1033800002210120FFF780F8FDF70EFDA0616673B2
:10339000094D9035287B401EC1B205F10800297304
:1033A000064600F03FF83246291D2846FFF74CFC40
:1033B0000320E2E700000020BC00002050555454D8
:1033C000494E4720444F574E00000000444F4E45A1
:1033D0002050555420444F574E00000070B5002433
:1033E0001CE0661CF2B215E0055D835C9D420FD1C6
:1033F000134604E0C5186D78C5545B1CDBB20D782C
:103400006D1E9D42F6DC0B785B1E521E0B70D2B215
:10341000521CD2B20B789342E6D8F4B20A78A24298
:10342000DFD870BD002204E083185B788354521CFF
:10343000D2B28A42F8D370472DE9F047394D0020C7
:10344000374E02464FF6FF7105F10A04335C1BB993
:1034500025F8102024F81010401CC0B20528F5D320
:10346000FDF7A2FC2E4F213FB861DFF8B89041F282
:103470008838A9F10A0930E02A4905220A39A1F55C
:103480009170FDF735F90120FDF762FB2648FDF745
:10349000B5F9FDF789FCB969401AB0F57A7F1CD9F6
:1034A0000020315CA9B939F8101034F810208B1ABB
:1034B0000A2B0EDA35F81030A3EB010CBCF10A0F21
:1034C00007DA994201D925F81010914201D224F867
:1034D0001010401CC0B20528E3D3FDF765FCB969A4
:1034E000411A4145C8D30F4A0020642112F1140249
:1034F00035F8103003EBC306C6EB831334F81060C5
:10350000C6EB061606EB46063344B3FBF1F322F88E
:103510001030401CC0B20528EAD3BDE8F087000097
:103520002100002064010020380000202DE9F84F20
:10353000394D002003212A7A384C05F11C08052A50
:1035400010D2DFE802F0034E52566400207B40B1F7
:103550004FF001094FF0440A012833D9FF27002614
:1035600015E02972BDE8F88F98F801100091A119B3
:10357000A25D0B7998F8001098F80300FFF7E2FCC1
:10358000E870B84201D266730746761CF6B2207B1B
:10359000B042E9D8214A617B0832207A8B5C2372E1
:1035A0008854211D1D48FFF74FFB1B491B4885F818
:1035B0000FA0642301220F314838FEF725FD85F85E
:1035C0000890CFE785F8089085F80FA001B0124960
:1035D000BDE8F04F1148642301220F314838FEF74F
:1035E00013BDBDE8F84FFFF779BDBDE8F84FFFF711
:1035F00075BE98F801300422032B03D198F803100C
:10360000012902D022722A72ACE72072FBE72073F4
:1036100028722873A971A5E7000000204C01002042
:103620002DE9F0411B4C1C490226E37A01250A686A
:1036300042F20F70052B0BD2DFE803F0030C1018D9
:103640001D00506309688863C820FDF781FAE572A0
:10365000BDE8F08100F030F8E672F9E750630968E0
:103660008863C820FDF774FA032002E000F024F814
:103670000420E072ECE7506309688863C820FDF716
:1036800067FA04481C300021C57001704670A571AE
:10369000DEE7000000000020BC00002005490448CF
:1036A0000B68428A5A630968808A88637047000001
:1036B00000000020BC00002070B5284942F20F70C5
:1036C0000A6850630968886340F22620FDF740FAD3
:1036D000234C206820F480602060206820F4006083
:1036E0002060206840F480502060206840F48060B2
:1036F00020604FF4FA70FDF72BFAFDF755FB194DDA
:10370000A8614FF44876154905229E31A1F59170C4
:10371000FCF7EEFF0120FDF71BFA10488438FDF797
:103720006DF8FFF7AFFA6874401F032805D3FDF763
:103730003BFBA969401AB042E5D3206820F48060C1
:103740002060206840F400602060206820F48050F1
:103750002060206840F48060206070BDBC000020C4
:103760000C0801400000002070B52D4C2D4A0126A8
:10377000637842F20F71E3B1104602250068012B15
:103780002DD0022B33D0032B28D1416310688163E5
:10379000C820FDF7DDF9234904F11C0090310278BF
:1037A0000B799A422FD14278022A24D0032A2ED0B4
:1037B00029E01D4D286840F400502860FFF706FB03
:1037C000012801D11068416310688163C820FDF7AA
:1037D000BFF9286820F400502860667070BD41630E
:1037E00010688163C820FDF7B3F9657070BDFFF7FD
:1037F00063FF032009E0C0780978884203D1A079EB
:1038000002280AD0A67100206072607070BDC27874
:103810000878401C8242F2D0F5E72572F3E70000F9
:1038200000000020BC0000200C0C01402DE9F041FC
:10383000294942F20F700A6850630968886340F2B0
:103840002620FDF785F9254E306820F48060306031
:10385000234C206820F010002060206840F02000F9
:103860002060306840F4806030604FF4FA70FDF7FB
:103870006FF9FDF799FA1B4DA8614FF44877164987
:1038800005229E31A1F59170FCF732FF0120FDF772
:103890005FF911488438FCF7B1FFFFF7F3F968745A
:1038A000401E042805D3FDF77FFAA969401AB842E3
:1038B000E5D3306820F480603060206840F010006C
:1038C0002060206820F020002060306840F4806094
:1038D0003060BDE8F0810000BC0000200C08014011
:1038E0000C0C01400000002070B5224C0126A0788D
:1038F00088B1012828D1FFF799FF1F4904F11C0066
:1039000002780B799A4228D143780222022B1CD0EC
:10391000032B26D021E0194D286840F48050286000
:10392000FFF7A6F901280FD1134942F20F70903921
:103930000A68506309688863C820FDF709F9286898
:1039400020F480502860A67070BDC0780978884245
:1039500003D1A07902280AD0A67100206072A0705D
:1039600070BDC3780878401C8342F2D0F5E722721C
:10397000F3E70000000000204C0100200C0C014087
:10398000490050EAC12018BF04204A0D18BF40F07A
:10399000010040F2FF72B2EB515F08BF40F002003D
:1039A000012808BF052070470907090E002804DB1D
:1039B00000F1E02080F80014704700F00F0000F1E3
:1039C000E02080F8141D70472DE9F0414F1E00EBF8
:1039D000C7010446D1E9000115461E4637F006022C
:1039E0000DD02A46334601F04FF97F1E04EBC70382
:1039F000D3E9002300F0B4FE37F00602F1D1022F24
:103A000025D0042F13D0062F18BFBDE8F0812A4619
:103A1000334601F039F9D4E90A2300F0A1FE2A4621
:103A2000334601F031F9D4E9082300F099FE2A4623
:103A3000334601F029F9D4E9062300F091FE2A4625
:103A4000334601F021F9D4E9042300F089FE2A4627
:103A5000334601F019F9D4E9022300F081FE2A4629
:103A6000334601F011F9D4E90023BDE8F04100F03C
:103A700077BE0000002213461046014900F02CBF1B
:103A80000000F03F00F06CBE0022134610461146C5
:103A900000F022BF40F2013200204FF0E04101F07F
:103AA00035BC0000024A0020110701F02FBC0000C5
:103AB00001FDFFFF08B5FDF70FFBFEF725FEFEF742
:103AC00045FD9748416941F001014161406900228B
:103AD00000F00100009011460B20FDF75BFB0B206E
:103AE000FDF74AFBFEF7E2FC8F488E490024016097
:103AF0008E49C0E901144FF48041C0E9034144619B
:103B00008461C4610462FDF755F908B172B6FEE73D
:103B1000FEF7A0FD844886499C3001604FF4E131F6
:103B2000C0E901140C21C460C0E904418461C4618E
:103B3000FEF796F908B172B6FEE7A04620467D4C26
:103B400020716071A071E07120726072A072E072E9
:103B50004FF0010984F80D9004F11C0528712073C1
:103B600020706070A070FFF7FBFA6F48002154309E
:103B7000FDF7F0FF6C4804215430FDF7EBFFFEF732
:103B80000FFC6948012204F10E019C30FEF7E2F9B6
:103B90003020E07364486423012204F10F019C305B
:103BA000FEF732FA28790128FCD13120E07361490F
:103BB0005D48642301220F319C30FEF725FA00BFD7
:103BC000FFF73AFCFFF7CCF80028F9D13220E07378
:103BD00058495548642301220F319C30FEF714FAEE
:103BE000514D42F2B82754352868476328688763E7
:103BF00041F2B35A40F6055B42F20F762079C0B12C
:103C0000012868D0022869D00328F7D1607988B3E9
:103C1000012873D00228F1D1FDF7C6F8A169401A36
:103C2000B0F57A7FEAD200BF84F8058084F804807A
:103C3000E4E73D490522F231A1F59170FCF758FD0A
:103C40000120FCF785FF38483038FCF7D7FDFFF737
:103C500019F80A28D2D2DFE800F005080E12181D64
:103C60002224262B2868466316E0286846632868C5
:103C70008763C3E735E028684663504602E028685A
:103C80004663584629688863B8E72868466340F267
:103C90008260F7E72868476328688663AEE7504686
:103CA00003E0584601E040F2826029684863F3E788
:103CB000A0790428A2D2DFE800F00205080BFFF784
:103CC000AFFC9BE7FFF76CFA98E7FFF72FFC95E74F
:103CD000FFF786F892E7FFF799F88FE7FFF7CEF83E
:103CE0008CE72968C1F834802968C1F83880FDF76D
:103CF0005BF8A06184F8059080E7FFE70E48006854
:103D0000400795D4FDF750F8A169401AB0F5FA7F45
:103D10008AD3FDF749F8A061022060716EE70000C8
:103D2000001002400058004068000020A0860100FA
:103D30000038014000000020080C01402DE9F04D42
:103D40001D460C4698B0174621F0004123F0004371
:103D5000002814BF4FF0010C4FF0000C0CEB440C8A
:103D6000FE4A0CEB02064FEA620C66452BD33E007E
:103D700018BF012606EB45061644F94A964222D39F
:103D8000F84A53EA070C02D0944205D148B918B05A
:103D900000201146BDE8F08D002808BF4FF0000C50
:103DA00001D04FF0010C0CEB440212F5001F0AD8B1
:103DB000002F14BF4FF0010C4FF0000C0CEB45022C
:103DC00012F5001F07D918B03A462B462146BDE828
:103DD000F04DFFF757BE0022DFF88CA3002CB8BFD0
:103DE000534526DADFF884C36345A8BF022220DAF0
:103DF000DFF870C39C451CDCDFF874C30CEB235C5C
:103E0000BCF1140F08DDCCF1340627FA06FC0CFADD
:103E100006F6BE420DD108E05FB9CCF1140623FAD4
:103E200006FC0CFA06F69E4203D10CF00102C2F128
:103E3000020251EA000C19D1002D17DA002C18BF2C
:103E4000022A01D0012A07D00220FCF7ECF918B0B1
:103E5000BDE8F04DFFF70EBE0220FCF7E4F9FFF7D6
:103E600009FE18B081F00041BDE8F08DB7F1000CFB
:103E70006CD1534525D104F1804212F5801201BF67
:103E800000280020B74918B008BFBDE8F08DB5483C
:103E9000884207DC002DA1BF6046294618B0BDE866
:103EA000F08D07E0281E05DA80F0004118B060466A
:103EB000BDE8F08DAF497944D1E9000118B0BDE803
:103EC000F08DDFF8A0C2634525D1002D1FDA19B1AE
:103ED000514512D1D8B909E0002840F0EC82A24A3D
:103EE000214618B062F31E01BDE8F08D0020214686
:103EF00018B060F31E01BDE8F08D08DA18B0234653
:103F0000BDE8F04D02460020614600F0E5BC18B067
:103F10002146BDE8F08D514518DAB5F1804F0DD03E
:103F2000A5F1005CBCF1FF5C10D1B4F1000C0DDB1D
:103F300018B06146BDE8F04D00F0ECBB234618B068
:103F40000246BDE8F04D194600F09EBE060024F082
:103F5000004C3BD1D9B1514533D1002C06DD002DA9
:103F6000A1BF0020514618B0BDE8F08D002C01DD46
:103F7000002D1BDB002C13DA002D11DB012A4FF082
:103F8000000014BF78497C4918B0BDE8F08D022AC2
:103F900018BF002C0AD0012A08D1002C06DA0AE04A
:103FA000002CB8BF002D11DA012A04D0002018B06F
:103FB0000146BDE8F08D18B000204FF00041BDE88B
:103FC000F08DA1F14050B0F17F601AD0012000EBDC
:103FD000E47050EA020421D0624C521E4FF0000BF4
:103FE000104304BF4FF0000B644C654883427CDDF6
:103FF000644A654893421FDD884217DB002D25DBAC
:1040000037E0002C00DA4AB1022A0CBF01204FF041
:10401000FF3018B0BDE8F04D00F0E3BD0120FCF723
:1040200002F918B0BDE8F04DFFF72EBD4D4A8A42A7
:1040300002DC002D0ADC1CE0814202DA002D18DAD5
:1040400004E0484B994220DD002D12DD0220FCF7F0
:10405000EAF8FFF71FFD05460E4600225346584674
:10406000214600F011FE18B066F31E012846BDE897
:10407000F08D0220FCF7D7F8FFF714FD0A46214621
:1040800018B062F31E01BDE8F08D00223046614693
:1040900001F020F880460E466FF0010201F036F97B
:1040A0004FF05532394B00F023FF4246334600F0C3
:1040B000EBFD0022364B00F01BFF824642463346A2
:1040C00004911046194600F0DFFD5246049B00F0B3
:1040D000DBFD8A4600904FF0C0422E4B40463146F1
:1040E00000F0D2FD2C4A2B4B00E027E0CDE9060181
:1040F0005146009800F0C8FD82460191274A284B9E
:104100004046314600F0C0FD5246019B00F0E2FF00
:1041100082460B4602460591DDE9060100F020FBD0
:10412000DDE9062300268846304600F0D3FF5246DC
:10413000059B00F0DDFE024600F07EB90020B1F5DF
:10414000801F07DA35223046614601F0DFF8064667
:104150006FF0340000EB215024E00000FFFF1F004F
:10416000FFFF0F000000F03F0000F07F0000404321
:1041700001FCFFFF961500000000F0FF0000F0BFFB
:104180000000E0410000F043FFFFEF3F5555D53FF1
:104190000000E03F4715F73FFE822B6544DF5DF8E6
:1041A0000BAE543EA0F2FF300190C1F3130040F07B
:1041B0007F6141F040510291FE498842D8BF002002
:1041C00004DDFD498142C8BF012001DD0D9008E0FA
:1041D00000200D900198401C01900298A0F58010DD
:1041E00002900299F54878440B910D9900EBC100BB
:1041F000D0E900230F9330460A920B9900F06AFF32
:10420000CDE90601DDE90A2130460F9B00F0A8FA4E
:1042100002460B460020EA4900F05EFB059102468B
:104220000B460090DDE9060100F02EFD1490E548F4
:104230008A464FF0000878440299006812904FF0C7
:10424000005040EA61010D980F9B01EB804000F5A2
:10425000002109910A9A129800F03CFF32460B9B0C
:1042600000F046FE4246534600F00EFD064602911F
:1042700040465146099B129A00F006FDDDE90623EF
:1042800000F036FE3246029B00F024FF059B009AA8
:1042900000F0FAFC0091149A049053461046194617
:1042A00000F0F2FC06460246C7480B460291062182
:1042B0007844FFF789FBCDE90510029B3246104692
:1042C000194600F0E1FCDDE9053200F0DDFC059166
:1042D0000646534640461946149A00F041FA009BA0
:1042E000049A00F0D1FC3246059B00F039FACDE982
:1042F0000510424653461046194600F0C5FC002200
:10430000B24B02910A9000F02BFADDE9053200F081
:1043100027FA0E464246AD4B404600F0DBFE029BBC
:104320000A9A00F0D7FEDDE9053200F0E1FD4246D1
:1043300002910A9033461046514600F0A5FCCDE9A3
:1043400006015346149A02990A9800F09DFC8A4689
:104350000290334642460099049800F095FC53467B
:10436000029A00F0FDF982460B4602460591DDE90E
:10437000060100F0F5F9DDE906230020884606462F
:1043800000F0A8FE5246059B00F0B2FD824609915E
:104390004FF060428E4B3046414600F075FC049071
:1043A00006918C4A8A4B5046099900F06DFC824672
:1043B0000291894A894B3046414600F065FC5246DD
:1043C000029B00F0CDF9864B7B440D9A03EBC203B0
:1043D000D3E9002300F0C4F90E900791019800F092
:1043E00000FC0591DDE9061382460E9A049800F060
:1043F000B7F97C4A7A440D9B02EBC303D3E900234F
:104400000093029200F0ACF95246059B00F0A8F927
:104410000026884652463046059B00F05BFE009B16
:10442000029A00F057FE069B049A00F053FE079B89
:104430000E9A00F05DFD024600200B4602903846C1
:10444000294600F021FC824601912B463846194648
:10445000029A00F03FFE3246434600F015FC5246F9
:10446000019B00F07DF907468A46324643462946BD
:10447000029800F009FC05460E463A46534600F005
:104480006FF9594A8846914221DBA8EB020353EAAF
:10449000000210D12A46334600F01CFECDE904018B
:1044A000524A534B3846514600F05AF9DDE904238D
:1044B00000F0E8FC21D20220FBF7B5FEFFF7EAFA94
:1044C0000A46214618B062F31E01BDE8F08D494B43
:1044D00028F000429A4210D3474A08EB020353EAFD
:1044E00000027FF4C6AD2A46334600F0F3FD3A469B
:1044F000534600F0C7FC7FF6BCAD0022019228F0C5
:1045000000403E493E4A01EB2051824223DA481CDA
:104510004FF4801121FA00F040443A4AC0F30A51A6
:104520007A44394BA1F2FF31CB4020EA0303C0F3B8
:10453000130040F48010C1F11401C84012680190CA
:10454000B8F1000FBCBF404201902846314600F050
:10455000C1FD05460E462A4633463846514600F010
:10456000FFF84FF000084246284B4046059100F006
:104570008BFBCDE90601264A264B4046059900F003
:1045800083FB009102902A4633464046059900F08D
:10459000A1FD3A46534600F0ABFC1F4A1F4B00F00A
:1045A00073FB009B029A00F0DBF807468846024640
:1045B0000B4635E08E9803007AB60B00DE11000042
:1045C0000000F03F161200004411000000000840F7
:1045D00009C7EE3FFD033ADCF5015B14E02F3EBE58
:1045E0001C100000E00F000000009040FE822B65D0
:1045F0004715973C00CC904000346F3F01FCFFFF13
:104600000000E03F2C0F0000FFFF0F00432EE63FAD
:10461000396CA80C615C20BEEF39FAFE422EE63FF1
:10462000DDE9060100F09CF8DDE9062305460E46AB
:1046300000F050FD3A46434600F05AFC0F462A4629
:10464000334600901046194600F01EFB8246024693
:104650002E4888460B4605217844FFF7B5F95246A7
:10466000434600F011FB2A46334600F041FC8046E9
:104670008A463B4628463146009A00F005FB3B46F9
:10468000009A00F06DF80691009000224FF08043F0
:104690004046514600F01EFD0F460C9042465346E0
:1046A0002846314600F0F0FA3B460C9A00F014F927
:1046B000069B009A00F00EFD2A46334600F00AFDE4
:1046C0000022134B00F014FC054601980E4601EB46
:1046D00000510815002810DC28463146019A00F0E8
:1046E00015FEFFF74DF9042808BFFFF7DBF9284650
:1046F0003146019A00F00AFE05460B4618B02A46DC
:1047000058462146BDE8F04D00F0BEBACC0D000081
:104710000000F03F2DE9F04106460F4600F0F4FBA3
:10472000041E0D4618BF0120284320F00040C0F1B0
:104730007F6000F1E040C00F0ED0301C18BF012098
:10474000384320F00040C0F17F6000F1E040C00F2E
:1047500004BF0120FBF767FD20462946BDE8F08134
:1047600010B591EA030F48BF83F0004300F1BA840B
:10477000841A71EB030C05D2121943EB0C03001BD6
:1047800061EB0C01DFF824E14FEA1154A4EB135C58
:104790001EEA430F18BF9EEA445F73D023EA0E035C
:1047A000DCF1200E21EA045143F4801332D322FAC3
:1047B0000CFE10EB0E0023FA0CFE41EB0E01CCF1C7
:1047C000200E03FA0EFE10EB0E0051F10001B1F5C0
:1047D000801FCCF1200E32D201EB045112FA0EF2FE
:1047E000BDE8104058BF7047401C38BF5FEA420226
:1047F00018BF7047002814BF20F0010041F10001EC
:104800004FEA410313F5001F38BF7047A1F1C041C3
:1048100000F032BB012A43EB0302ACF1200CDCF1C7
:104820001F0E32BF4FF0000E23FA0CF310EB030003
:1048300041EB0451B4EB115FD0D0A1EB045101F571
:10484000801149085FEA300001EB04510ED350F1AA
:10485000000038BF12FA0EFE08D1BDE81040C9E7CB
:10486000401C38BF5FEA4202CAD1C3E7BDE810402E
:104870004FEA410313F5001F38BF7047A1F1C04153
:1048800000F0FABA9EEA445F08D011EA5E0FBDE874
:10489000104004BF01F0004100207047BDE8104007
:1048A00070B500F09BFA00BF64FBBE3E0000E0FF65
:1048B00002494FF0000000F0F7BC00BF0000F87F95
:1048C000491058BFC1F140415B1058BFC3F140438C
:1048D0008B42EFF3008070472DE9C04130B4DFF820
:1048E000A0C23CEA111418BF3CEA131400F0EC809B
:1048F00081EA03051CEA111444EAD57418BF1CEAC6
:10490000131500F0C780A4EB05044FF0004545EAFD
:10491000C12145EAC32341EA505143EA525304F10D
:104920007F74994204F500344FEAC0204FEAC22256
:1049300008BF904200F09C804FEA13650FF24016CA
:10494000765D4FEA134506FB05F7C7F1807706FB56
:1049500007F74FEAD737A7FB03687642C8F58038D8
:10496000A7FB06CE38BFA8F1010807FB08E64FF009
:10497000000EA6FB028CE6FB03CEDCF1000CCEF1B0
:10498000004E38BFAEF1010EA6FB0C584FF00007E9
:104990004FF00005E6FB0E87A1FB08C6A0FB07CE83
:1049A00016EB0E0645F10005E1FB076515F1E04E3B
:1049B0007EBFA4F580345FEA46066D4116F180079C
:1049C00045F100054FEA17274FEA066647EA0567F3
:1049D000A6F1DE46B6F1805F4FEA15251FD93846AD
:1049E00024F0010C05EBC471BCF1FE6F01EB0C115E
:1049F00002D8F0BCBDE8008124425CBF01F5801EF6
:104A00009EEAC47F02D4F0BCBDE80081244238D4C1
:104A1000F0BCA1F1C041BDE8004100F02DBA4FEA61
:104A2000D22242EA43524FEAD323A7FB02864FEA3F
:104A3000D02040EA415007FB03661EEA0E0F4FEA02
:104A4000D12105FB026658BFA6EB0056B6EB005617
:104A50004FEA520E4EEAC37E18EB0E0E56EB530E83
:104A6000BDD518EB02085E417F1C55F10005B6E785
:104A70004FF480154FF000074FF000064FF000088C
:104A8000ADE7F0BC4FF0000001F1C04101F0004182
:104A9000BDE8008111EA0C1F0CEA131500D00CE0F0
:104AA00013EA0C1F00F025804FF00000F0BC81EAF3
:104AB000030101F00041BDE80081F0BCBDE8004108
:104AC00081EA030100F0D8B9F0BCBDE8004170B53F
:104AD00000F084F9097EFC3E00F007B881EA03018A
:104AE0004FF0000001F00041704781EA030100F03F
:104AF000C3B9F0BCBDE800414FF000002149704748
:104B0000FFFDFBF9F7F5F4F2F0EEEDEBE9E8E6E492
:104B1000E3E1E0DEDDDBDAD8D7D5D4D3D1D0CFCD19
:104B2000CCCBCAC8C7C6C5C4C2C1C0BFBEBDBCBB52
:104B3000BAB9B8B7B6B5B4B3B2B1B0AFAEADACAB4D
:104B4000AAA9A8A8A7A6A5A4A3A3A2A1A09F9F9E27
:104B50009D9C9C9B9A9999989797969595949393D9
:104B6000929191908F8F8E8E8D8C8C8B8B8A898970
:104B700088888787868585848483838282818180F3
:104B80000000FF070000F87F4FEA1153A3F5806390
:104B9000D3F11E03A8BFD3F1200C08DB4FF0004275
:104BA00042EAC12252EA505232FA03F070470942F7
:104BB0000BD4102BC4BF0020704703F5787CBCF1E8
:104BC000FF3F05D04FF0FF3070474FF000007047B7
:104BD00070B500F003F900BF4992248000207047AF
:104BE000F0E710F0004248BF4042B0FA80F310FAFC
:104BF00003F10AD0C3F11D0303F580634FEA41506E
:104C000002EB035202EBD12170474FF000007047D6
:104C100051EA030C17D41CF5801F58BFBCF5801F48
:104C200000F10680994218BF704708BF9042704754
:104C300007D711F5801F58BF13F5801F19D499426B
:104C40007047894270471CF5801F08D5BCF5801F4E
:104C5000F7D58B4218BF704708BF824270474FF4A8
:104C6000001C1CEB410F38BF1CEB430F01D28B42E1
:104C7000704770B500F0B2F8922449004FF000512F
:104C80004FF08053FFF71CBEDFF848C170B51CEA37
:104C9000111E1EBF1CEA13159EEA0C0F95EA0C0F9D
:104CA00000F06F8081EA030423EA4C134EEAD47EBD
:104CB00021EA4C1141F4801143F48013AE44A1FB6E
:104CC000024CA0FB0365AEF17F7E361955EB0C0557
:104CD000A1FB034C4CF10003A0FB021C16EB0C06DD
:104CE000654153F10003094218BF46F0010613F471
:104CF000007F0BD14FEA03314FEA0530340341EA1C
:104D0000155140EA16506FF003020AE04FEAC32142
:104D10004FEAC520F40241EA555140EA56506FF07F
:104D2000020202EB2E4201EB025585EACE710AD057
:104D30005FEA440C18BF24F0004450F1000041F138
:104D4000000120EAD47040F2FE7C624500D270BDC2
:104D5000A84214BF4FF080444FF04044002E08BFDB
:104D60000024BEF1806FA8BFA1F1C041BDE8704032
:104D700080F282804FF0000001F1C04101F000415B
:104D800070479EEA0C0F0CEA131518BF95EA0C0F3A
:104D900006D04FF0000081EA030E0EF0004170BD16
:104DA00000F01CF88900013E00F007B800F009B8D7
:104DB0004FEA430C5FEA5C5C08D081EA030100F033
:104DC0005BB84FEA410C5FEA5C5CF6D14FF0000043
:104DD000014970470000FF070000F87F0EF1020E46
:104DE0002EF0030E5EF8046B364205D4012A43EB25
:104DF000030515F5001F12D8012841EB010C1CF525
:104E0000001F0CD80ED14FEAD17C15F5001F0CEB1A
:104E10004C0C0CF1020C08BF4CEBD37C04E04FF0BF
:104E2000080C01E04FEAD37C0CEB4C0526FA05F6A2
:104E300006F00706B6F1040C06D20EEB860CBDE8B0
:104E400070404CF0010C6047DFE80CF0090B0202E7
:104E50004FF000414FF00000A1F5002170BD194650
:104E60001046012851EB010418BFD4F5001484BF8B
:104E7000002001F0004170BD0808A0F500114FEAC4
:104E80003101704753EA010C17D41CF5801F58BF3D
:104E9000BCF5801F00F106808B4218BF704708BF29
:104EA0008242704707D713F5801F58BF11F5801F46
:104EB00019D48B4270479B4270471CF5801F08D560
:104EC000BCF5801FF7D5994218BF704708BF9042C4
:104ED00070474FF4001C1CEB430F38BF1CEB410F15
:104EE00001D2994270470FB40CBC03BCFFF7C1BE9E
:104EF00091EA030F10B581F000413FF539AC83F022
:104F0000004300F0EFB800002DE9F04101F5801CEE
:104F1000BCF5001FC0F2C3804FEA115C21EA0C51BE
:104F20000CF1FD0C41F480115FEA5C0C0CF5C07CC7
:104F300001D3400049413DA4890241EA90518702D2
:104F40008E0E0A0CA45D04FB04F602FB06F6C6F105
:104F50004046A4FB0662F60D46EA422606FB06F42E
:104F6000A4FB01235242C3F1404338BF5B1EA6FBA2
:104F700002420024E6FB0324D20B42EA4446A6FB8D
:104F80000623A1FB02E2A3FB07E4A4184FF00002F2
:104F900052F10002E3FB01426442C2F1404E38BFCD
:104FA000AEF1010EA6FB04234FF00002E6FB0E3229
:104FB000A2FB03464FF00004B61954F10004E2FBD3
:104FC0000264A1FB06E6A4FB07E816EB08064FF017
:104FD000000858F10008E4FB01687642C8F1405827
:104FE00038BFA8F10108A2FB06E4A3FB08E52D19D0
:104FF0004FF0000454F10004E2FB0854A1FB05E665
:10500000A7FB04E818EB06084FF0000656F100066F
:10501000E1FB048618F1200556F10006A809A8F165
:105020001B08B10908F03F08B8F10A0F40EA866092
:105030001CD901EB0C51BDE8F08100BFFCF5EEE896
:10504000E2DDD8D3CFCBC7C3C0BDB9B6B4B1AEAC27
:10505000A9A7A5A3A19F9D9B9A9896959392908F9F
:105060008D8C8B898887868584838281A0FB0068EC
:1050700000FB01F208EB4208B8EB872807D534188B
:1050800058EB0104D5D5401C51F10001D1E7341A89
:1050900078EB0104CDD4401E71F10001C9E75FEA4D
:1050A0004C0C5FEA9C5C0DD105D34FF0000001F081
:1050B0000041BDE8F081BDE8F04170B5FFF78EFE1C
:1050C0006DDBFFBEBDE8F0414FF0000000497047C6
:1050D0000000F87F10B591EA030F48BF83F000434A
:1050E0003FF546AB841A71EB030C07D212198CF012
:1050F000004C43EB0C03001B61EB0C01DFF8A4E157
:105100004FEA1154A4EB135C1EEA430F18BF9EEA4A
:10511000445F00F0B08023EA6E03524221EA04515A
:10512000C3EB6E0338BF5B1EDCF1200E25D322FAE1
:105130000CFE10EB0E0043FA0CFE41EB0E01CCF11D
:10514000200E03FA0EFE10EB0E0051F10001CCF11F
:10515000200E29D412FA0EF201EB0451BDE81040E2
:1051600058BF7047401C1CBFB2F1004F7047002869
:105170000CBF491C20F00100704712EB020E43EBFC
:10518000030218BF4FF0010E4EEA4202ACF1200CB0
:10519000DCF11E0E54D943FA0CFE10EB0E0051F157
:1051A000FF31CCF11E0ED5D50EF1010E12FA0EFE16
:1051B000404141EB010101EB445C5FEA5C5C10D9CA
:1051C00010EBDE7001EB045138BFBEF1004FBDE8BB
:1051D000104018BF704700280CBF491C20F0010088
:1051E000704730D24FEAD42C11F5001124F400643A
:1051F0001BD0B1FA81F20B3AA41AA41ED2F12003FB
:10520000914030FA03F31943904001EBCC71002C2C
:1052100001EB0451BDE81040A8BF704701F1C04147
:105220004FF0000001F000417047B0FA80F310FA2F
:1052300003F100D110BDE41A173C4805C90AE4E7A0
:1052400001EB045110BD491001EB0451BDE81040C1
:105250004FEA300002E04FF0000170474A0008BFFB
:105260000042F8D0B2F5001F28BF704701F000419E
:105270004FF0000070479EEA445F07D011EA5E0FCE
:10528000BDE8104004BF002100207047BDE8104079
:1052900070B5FFF7A3FD00BF40DFF63E83F000418D
:1052A000104670470000E0FF0CF00F03092B08BF09
:1052B000082000F059800A2B0BD0082B18BF70472C
:1052C00008BF1CF0400F0AD04FF000004FF0000163
:1052D00070471CF0400F18BF4FF0004070471CF0A3
:1052E000100F08D020F0704300F07F4242EAD30153
:1052F0004FEA4370704700F0604021F07F4242EA7D
:10530000000201F07F4040EA727070474FF0FF0CDE
:105310004CF4E06C1CEA11531CBF9CEA030C94454E
:10532000C2BFDA4201EB02517047002B0DD0BCF135
:10533000000F0FD0002A01F00041A4BF41F0E0416E
:1053400041F07F614FF00000704701F000414FF0E5
:105350000000704750EA01334FF09B0C18BF4CF02F
:10536000806C7FF4A5AA70471CF4801F11D01CF438
:10537000E02F03D06FEACC31490070474FF0405026
:10538000EFF3008222F0704242EA000282F30088CA
:1053900070474FF000007047010202030405060742
:1053A00008090A0B0C0D0E0F101000000000000081
:1053B00000000102030406070809000000000102C2
:1053C0000304000000000000000000000000F03FA7
:1053D000000000000000F83F000000000000000096
:1053E0000000004003B8E23F0000000000000000A1
:1053F00006D0CF43EBFD4C3E033333333333E33F2F
:10540000FFAB6FDBB66DDB3F4D268F515555D53F5A
:1054100001411DA96074D13F65DBC9934A86CD3F28
:10542000EF4E454A287ECA3F3E5555555555C53F16
:1054300093BDBE166CC166BF2CDE25AF6A56113F08
:10544000F16BD2C541BDBBBED0A4BE726937663E0A
:105450000000000000000000785400080000002058
:105460003800000028010008B0540008380000206F
:10547000F0070000440100080000000000000000E8
:10548000000000000000000000000000000000001C
:10549000000000000000000000000000000000000C
:1054A0000100000010000000000000000024F400D3
:04000005080000ED02
:00000001FF
