:020000040800F2
:100000009008002089010008BF270008212100086E
:10001000BD270008D5030008112D000800000000CE
:10002000000000000000000000000000C3270008DE
:100030000F04000800000000C1270008C5270008C1
:10004000A3010008A3010008A3010008A301000800
:10005000A3010008A3010008A3010008110400087F
:1000600017040008A3010008A3010008D903000831
:10007000A3010008A3010008A3010008A3010008D0
:10008000A3010008A3010008A3010008A3010008C0
:10009000A3010008A3010008A3010008A3010008B0
:1000A000A3010008A3010008A3010008A3010008A0
:1000B000A3010008A3010008A3010008A301000890
:1000C000A3010008A3010008A3010008A301000880
:1000D000A3010008052D0008A3010008A3010008E2
:1000E000A3010008A3010008A301000800F002F822
:1000F00000F03AF80AA090E8000C82448344AAF188
:100100000107DA4501D100F02FF8AFF2090EBAE885
:100110000F0013F0010F18BFFB1A43F0010318473B
:100120005034000070340000103A24BF78C878C101
:10013000FAD8520724BF30C830C144BF04680C60ED
:10014000704700000023002400250026103A28BF35
:1001500078C1FBD8520728BF30C148BF0B60704739
:100160001FB51FBD10B510BD00F05CF81146FFF7BC
:10017000F7FF03F027F900F07AF803B4FFF7F2FF76
:1001800003BC00F07DF8000009488047094800479B
:10019000FEE7FEE7FEE7FEE7FEE7FEE7FEE7FEE737
:1001A000FEE7FEE704480549054A064B7047000094
:1001B00043280008ED00000890020020900800206D
:1001C00090040020900400204FF0000200B5134678
:1001D00094469646203922BFA0E80C50A0E80C5067
:1001E000B1F12001BFF4F7AF090728BFA0E80C5018
:1001F00048BF0CC05DF804EB890028BF40F8042B11
:1002000008BF704748BF20F8022B11F0804F18BF7D
:1002100000F8012B704770477047704700487047DF
:100220002C0200207546FFF7F9FFAE46050069462F
:10023000534620F00700854618B020B5FFF7B2FFFF
:10024000BDE820404FF000064FF000074FF00008D7
:100250004FF0000B21F00701AC46ACE8C009ACE858
:10026000C009ACE8C009ACE8C0098D46704710B5BC
:100270000446AFF300802046BDE81040FFF77DBF85
:1002800001491820ABBEFEE72600020070470000BF
:1002900070B5044600688168C943C90717D18168F1
:1002A00021F00101816000F031FD05460AE000BF48
:1002B00000F02CFD401B022804D920688068C04350
:1002C000C00706D020688068C043C007F0D0002077
:1002D00070BDA06A40F01000A062E06A40F001002A
:1002E000E062012070BD10B50146406A826A12F0DA
:1002F000500F05D0006A026BBDE810400846104759
:10030000816A41F40071816201688968C1F34241E8
:1003100007290CD1017B51B9816A21F48071816276
:10032000816AC90403D4816A41F00101816200F04D
:10033000F5F810BD10B5406A816A41F04001816254
:10034000C16A41F00401C16200F0EAF810BD10B5C5
:10035000406A00F0E4F810BDF8B5002604460096A7
:1003600000688168C943C9072DD0816841F0010147
:100370008160164816490068B0FBF1F000E0401EAD
:1003800000900028FBD100F0C1FC054616E000BF3C
:1003900000F0BCFC401B022810D920688068C043D4
:1003A000C0070BD0A06A40F01000A062E06A40F0E5
:1003B0000100E06284F824600120F8BD20688068B4
:1003C000C043C007E4D10020F8BD00003400002085
:1003D00040420F00FEE70000014800F06FBA000045
:1003E000E801002030B590F840500124AC40C56BC6
:1003F0006C60046863604368102B036803D09960E5
:100400000068C26030BD9A600068C16030BD70474E
:10041000022000F079BB042000F076BB72B6FEE744
:10042000F8B50024009490F824202546012A12D023
:10043000012280F824204A681F23072A0DD206686B
:10044000776B521E02EB820293409F430B689340EE
:100450001F43776319E00220F8BD06680D2A0AD20F
:10046000376BD21F02EB820293409F430B6893408D
:100470001F43376309E0F76A0D3A02EB82029340AB
:100480009F430B6893401F43F7620A68072306687F
:100490000A2A0AD3F7680A3A02EB420293409F43C2
:1004A0008B6893401F43F76008E0376902EB420214
:1004B00093409F438B6893401F4337610A68102A1B
:1004C00001D0112A20D1124B02689A4217D19368A9
:1004D0001B0219D4936843F4000393600968102940
:1004E00012D10C490C4A0968B1FBF2F101EB810110
:1004F000490000E0491E00910029FBD104E0816A17
:1005000041F020018162012480F824502046F8BD8A
:10051000002401403400002040420F007047704723
:10052000704700002DE9F0414FF0000704003D4600
:100530007ED0A06A002628B9E66284F824602046AE
:1005400000F07EF82046FFF7A3FEA16AC90600D49A
:1005500020B1A06A40F01000A06269E0A16A21F415
:10056000885141F00201A1626268E169237B0A437C
:1005700047EA43010A43A1684FF48077B94209D0A2
:10058000012907D05FF0000194F814C0BCF1010FFD
:1005900002D00AE03946F7E7F3B1A36A43F020033B
:1005A000A362E36A43F00103E3622368D3F804C063
:1005B0002CF4694C4CEA010CC3F804C021688B6828
:1005C000DFF870C003EA0C0313438B60A168B942E3
:1005D0000BD0012909D00CE0DFF85CC0A3690CEB5B
:1005E00043330B4343F40061DFE7218A0D05A5F592
:1005F00080152168CB6A23F470032B43CB622168FA
:1006000089680E4B1940914208D1E662A16A21F037
:10061000020141F00101A162BDE8F081A06A20F071
:10062000020040F01000A062E06A40F00100E062C9
:100630000120F1E7FDF7E1FF00E0FFFFFE0E1FFFE5
:1006400070B586B000250646009501950295039584
:1006500000681A4988422ED11949886940F400700F
:100660008861886900F400700490886940F0040093
:1006700088618869694600F0040004901F2000909A
:10068000032001900F4800F04BFA104C0E48C4E9CB
:1006900000058020C4E902504000206180006061B4
:1006A0002020C4E90605204600F0B2F908B1FFF7A2
:1006B000B5FE3462666206B070BD000000240140E1
:1006C000001002400008014008000240E80100203C
:1006D0002DE9F047894604463B4900683B4F0E1D13
:1006E0009046884201D0B84207D1306810F4702F8C
:1006F00003D001252846BDE8F08794F8240001289E
:100700000CD0012084F824002046FFF725FE0500C8
:100710004FF0000004D084F82400EBE70220EAE761
:10072000A16A40F60162914341F48071A16221689F
:10073000B94218D1326812F4702F14D0A16A41F472
:100740008011A1623168490505D5A16A21F40051E3
:1007500041F48051A162A16AC9040AD5E16A21F07D
:100760000601E16206E0A26A22F48012A2624968F0
:10077000E9E7E06284F82400216A15488862216A6A
:100780001448C862216A1448086321686FF00200A7
:1007900008602068816841F4807181602168434667
:1007A0004A464C31206A00F061F920688168C1F343
:1007B00042410729816803D041F48011816099E7A3
:1007C00041F4A001FAE700000024014000280140A4
:1007D000E70200084F0300083503000810B590F841
:1007E00021100022022905D00421816380F82020F5
:1007F000012010BD01680B6823F00E030B60016837
:100800000B6823F001030B6090F84030C46B0121AA
:1008100001FA03F3636080F8211080F8202010466D
:1008200010BD000010B590F821100024022903D05B
:100830000421816301243DE001680A6822F00E0270
:100840000A6001680A6822F001020A601A4A016817
:10085000914201D1012121E0174A1432914201D184
:1008600010211BE0144A2832914201D1891515E06C
:10087000114A3C32914201D189140FE00E4A5032A4
:10088000914202D14FF4803108E00B4A6432914228
:1008900002D14FF4801101E04FF08071064A083A0E
:1008A0005160012180F82110002180F82010416B57
:1008B00001B18847204610BD080002402DE9F05FD5
:1008C000C16B0C6801680B68D0F840C0042202FAC2
:1008D0000CF2494DDFF824A1494E4A4FDFF828B108
:1008E000DFF828E122422CD05A072AD50A6892065E
:1008F00003D40A6822F004020A600168A94201D107
:10090000042219E0514501D1402215E0B14202D143
:100910004FF4806210E0B94202D14FF480420BE004
:10092000594502D14FF4802206E0714502D14FF4BF
:10093000800201E04FF080622F4908394A60C16AA5
:100940003BE04FF0020808FA0CF818EA040F4FF0E9
:1009500000094FF0010235D05FEA837832D50B6889
:100960009B0605D40B6823F00A030B6080F8212056
:100970000168A94201D1022219E0514501D120228A
:1009800015E0B14202D14FF4007210E0B94202D139
:100990004FF400520BE0594502D14FF4003206E00B
:1009A000714502D14FF4001201E04FF0007212497C
:1009B00008394A6080F82090816A00291AD0BDE881
:1009C000F05F0847082505FA0CF5254212D01B07F1
:1009D00010D50B6823F00E030B6090F84010C36B2A
:1009E00002FA01F15960826380F8212080F820909A
:1009F000016BE2E7BDE8F09F080002401C000240E6
:100A00003000024044000240580002406C000240A6
:100A100030B528B308C8134914221944B1FBF2F1C8
:100A20008900C16310498163022141771A6843F646
:100A3000F0718A43D0E900142143D0E902452C43E8
:100A400021430469214344692143846921431143BB
:100A5000196000214163012242770177084630BDC9
:100A6000012030BDF8FFFDBF0000024070B5044614
:100A700090F82000002501280CD0012084F82000E7
:100A800094F821600020012E06D084F82000022571
:100A9000284670BD022070BD022684F82160A06344
:100AA0002068066826F0010606602046FFF79AFCDB
:100AB000E06A00282068016802D041F00E0106E0DB
:100AC00021F0040101602068016841F00A01016021
:100AD0002068016841F001010160D9E7094900225D
:100AE00002284B7A03D0042803D143B100E00BB1B4
:100AF0004A72704701204872CA810A8270470320F7
:100B00004872704700000020044910B50A6802428C
:100B100002D00860FFF7E2FF10BD0000140401409E
:100B20002DE9F84FDFF8B8910024A9F1040B234612
:100B30000F2709F1040AABF1040EC9E00125A54015
:100B40002A40AA427DD1674ED1F804C0ACEB06081A
:100B5000B44532D014DCBCF1030F3AD009DCBCF14F
:100B6000000F2AD0BCF1010F1CD0BCF1020F31D113
:100B70001DE0BCF1110F17D0BCF1120F2AD119E002
:100B8000B8F5881F19D006DCB8F5803F15D0B8F548
:100B9000801F1FD111E0B8F5001F0ED0B8F5041F5B
:100BA00018D10AE0CB6815E0CB681B1D12E0CB68BA
:100BB00008330FE0CB680C330CE08B682BB1012BB2
:100BC0004FF0080303D0456104E0042302E005610F
:100BD00000E00023FF2A01D8064601E000F10406E8
:100BE0004FEA840501D9A5F12005D6F8008007FA5F
:100BF00005FC28EA0C0803FA05F548EA0508C6F8DA
:100C000000804D68ED0062D5374DAE6946F00106B3
:100C1000AE61AD6924F0030605F001050095334D82
:100C200006EB050CDCF80850A607360F07FA06F8A5
:100C300025EA0805DFF8B880404503D14FF00008E9
:100C400017E044E0DFF8AC80404502D14FF00108E6
:100C50000FE0DFF8A480404502D14FF0020808E021
:100C6000DFF89880404502D14FF0030801E04FF0D3
:100C7000040808FA06F848EA0508CCF808804D6828
:100C8000D9F80060ED024D4601D5164300E09643C9
:100C90002E604D68DAF80060AD02554601D5164366
:100CA00000E096432E604D68DBF80060AD035D46C2
:100CB00001D5164300E096432E604D68DEF80060D3
:100CC000ED03754601D5164300E096432E60641C83
:100CD0000D682A46E5407FF431AFBDE8F88F00008B
:100CE0000804014000001110001002400000014003
:100CF00000080140000C01400010014000140140B8
:100D00000AB1016170470904FBE7000001488068EF
:100D1000704700003800002070B5040025D094F81A
:100D20003D00002520B984F83C50204600F04EF9E3
:100D3000242084F83D002068016821F00101016051
:100D40002068016841F4004101602068016821F4D5
:100D50000041016000F006FB4D4A6168914201D8F4
:100D60004C4900E04C49884201D2012070BD4B49FA
:100D70002368B0FBF1F15E6826F03F060E435E602B
:100D80006368934206D94FF4967359434FF47A73CC
:100D9000B1FBF3F12368491C1E6A26F03F0631437C
:100DA00019626168914210D84900401EB0FBF1F20F
:100DB000521CC2F30B02042A01D2042022E0B0FB31
:100DC000F1F0401CC0F30B001CE0A268F2B301EB91
:100DD000C10303EB0116431EB3FBF6F35B1C43F4A4
:100DE00080431B0549D092B301EBC10202EB011114
:100DF000401EB0FBF1F0401CC0F30B0040F48040FB
:100E000040F400402168CA694CF6FF739A431043CE
:100E1000C861D4E9071001432068026822F0C002CB
:100E200011430160D4E9030101432068826848F25C
:100E3000FF339A4311438160D4E9050108432168D7
:100E4000CA6822F0FF021043C86001E00EE016E01D
:100E50002068016841F0010101602564202084F8C8
:100E60003D00256384F83E50002070BD01EB410633
:100E7000431EB3FBF6F35B1CB3E70120C2E701EBB3
:100E80004101401EB0FBF1F0401CC0F30B00B7E77E
:100E9000A086010080841E0000093D0040420F0032
:100EA0002DE9F84F1F4690468A460446DDF8289003
:100EB000FFF72CFF054694F83D0020287FD1192329
:100EC000012240492046009501F0BCF9002876D166
:100ED00094F83C00012872D0012084F83C0020687E
:100EE0000168C90703D1016841F001010160206870
:100EF000016821F400610160212084F83D00102088
:100F000084F83E0000262664C4F824806785608D3E
:100F100020852D48E0622B464A465146204601F086
:100F200017F990B9206841698069009036E02A4637
:100F30004946204601F02CFA50B1206C042804D117
:100F40002068016841F4007101600120BDE8F88F5C
:100F5000606A216800780861606A401C6062618D87
:100F6000491E6185218D491E89B2218522685369F8
:100F7000DB435B070BD451B100781061606A401C01
:100F80006062608D401E6085208D401E20852A464F
:100F90004946204601F02AF90028CED1208D0028AC
:100FA000C5D154F83D0B016841F400710160202067
:100FB00004F81E09E67766770020C7E7FFE70220FE
:100FC000C4E70000020010000000FFFF10B586B06B
:100FD000002100910191029103910068104988421B
:100FE0001BD1104CA06940F00800A061A0696946BF
:100FF00000F0080004904FF440600090122001902F
:10100000032003900848FFF78BFDE06940F480005F
:10101000E061E06900F48000049006B010BD0000BB
:101020000058004000100240000C0140074810B575
:10103000016841F010010160032000F075F80F20F5
:1010400000F006F800F024F8002010BD0020024057
:1010500070B50D4D04464FF47A712878B1FBF0F06D
:101060000A490968B1FBF0F000F0E6FB48B9102C22
:1010700007D200222146501E00F036F800206C6096
:1010800070BD012070BD0000380000203400002039
:101090000C4808B5816941F001018161816901F065
:1010A00001010091C16941F08051C161C06900F046
:1010B000805000900448416821F0E06141F00071E7
:1010C000416008BD0010024000000140002809DB1B
:1010D00000F01F02012191404009800000F1E02052
:1010E000C0F8001170470000F0B40E4B1B680C46AE
:1010F000C3F30223C3F10705042D00D90425191DEC
:10110000072901D2002300E0DB1E012606FA05F1C3
:10111000491E214099409E40761E16403143F0BC46
:1011200002F03FB90CED00E0064900F00702086844
:101130004FF6FF03184040EA0220034A10430860BC
:10114000704700000CED00E00000FA052DE9F843BF
:1011500005460078354CC00754D0E0690026C00031
:1011600008D4E06940F08050E061E069012600F0B9
:10117000805000902E480168C90512D4016880464D
:1011800041F480710160FFF7C1FD074605E000BF33
:10119000FFF7BCFDC01B642823D8D8F80000C005A9
:1011A000F6D5206A10F4407021D0A98801F440716E
:1011B00081421CD0206A1F49012220F440700A603D
:1011C00000220A602062C00711D0FFF79FFD07468A
:1011D00041F2883808E000BFFFF798FDC11B414588
:1011E00002D90320BDE8F883206A8007F4D5206A7D
:1011F000696820F44070084320621EB1E06920F065
:101200008050E0612878800705D56068A96820F4DF
:101210004040084360602878C00605D56068E968EA
:1012200020F48000084360600020DBE700100240EB
:1012300000700040400442422DE9F0470F4605008F
:1012400061D0434E306800F00700B84209D23068E0
:1012500020F0070038433060306800F00700B842E3
:1012600051D128683B4C810712D5400703D56068EF
:1012700040F4E06060602878000703D5606840F4BF
:10128000605060606068A96820F0F000084360600A
:101290002878C00728D06868012810D02168022863
:1012A00010D0890700292EDA616821F0030101437B
:1012B0006160FFF72BFD804641F288390DE021681F
:1012C0008903EFE78901EDE7FFF720FDA0EB0801B7
:1012D000494502D90320BDE8F0876068696800F0DD
:1012E0000C00B0EB810FEFD1306800F00700B8427E
:1012F0000BD9306820F0070038433060306800F0C8
:101300000700B84201D00120E5E72878400705D55D
:101310006068E96820F4E0600843606028780007AE
:1013200006D56068296920F4605040EAC100606019
:1013300000F038F86168084AC1F30311515CC840F5
:101340000649086006480068FFF782FE0020C2E7F1
:101350000020024000100240443500083400002004
:101360003C0000200448054900684968044AC1F36C
:101370000221515CC8407047340000200010024038
:10138000543500080448054900684968044AC1F317
:10139000C221515CC8407047340000200010024058
:1013A000543500080E4A51680E4801F00C03042B16
:1013B00011D0082B0FD10C48C1F38343C903C05C83
:1013C0000AD55168084AC1F34041921E515C054A52
:1013D0005043B0FBF1F070470449484370470000A8
:1013E0000010024000127A005E35000800093D003E
:1013F0002DE9F84F040070D02078C04DC00749D0C7
:101400006868C0F38100012807D06868C0F38100D4
:10141000022809D16868C00306D52868800339D539
:1014200060680028E7D035E06068B0F5803F0BD0F9
:1014300010B1B0F5A02F11D0286820F480302860BA
:10144000286820F4802002E0286840F4803028607A
:10145000606890B1FFF75AFC06460AE0286840F43D
:1014600080202860F0E700BFFFF750FC801B642855
:1014700073D828688003F7D50CE0FFF747FC0646D1
:1014800005E000BFFFF742FC801B6428F0D8286805
:101490008003F7D420789A4E80074FF001094FF06F
:1014A000000839D5686810F00C0F07D06868C0F3E1
:1014B0008100022809D16868C00306D42868800723
:1014C00014D52069012808D110E02069B0B1C6F810
:1014D0000090FFF71BFC074605E00AE1FFF716FC4A
:1014E000C01B0228C4D828688007F7D5286861691E
:1014F00020F0F80040EAC10028600DE0C6F8008046
:10150000FFF704FC074604E0FFF700FCC01B0228BD
:1015100023D828688007F7D4207800072CD579488D
:10152000A169D9B1C0F80090FFF7F0FB074604E0CD
:10153000FFF7ECFBC01B02280FD8686A8007F7D5BD
:1015400071484FF4FA510068B0FBF1F0009000BF11
:101550000098411E0091FAD20EE080E0C0F80080B1
:10156000FFF7D4FB074604E0FFF7D0FBC01B0228BF
:1015700075D8686A8007F7D42078400760D5E86995
:101580000027C00008D4E86940F08050E861E869AD
:10159000012700F0805000905C480168C90513D411
:1015A0000168834641F480710160FFF7AFFB82461A
:1015B00006E000BFFFF7AAFBA0EB0A0064284ED8A4
:1015C000DBF80000C005F5D5E06801280AD008B1B5
:1015D000052813D0286A20F001002862286A20F02C
:1015E000040002E0286A40F001002862E06841F24D
:1015F000883B98B1FFF78AFB82460BE0286A40F0EF
:1016000004002862EEE700BFFFF780FBA0EB0A01B1
:1016100059455AD8286A8007F6D50CE0FFF776FBC3
:10162000824605E0FFF772FBA0EB0A0159454CD852
:10163000286A8007F6D41FB1E86920F08050E8617D
:10164000E06988B36968C1F38101022944D00228A6
:10165000C6F8608004D0FFF759FB044638E034E058
:10166000FFF754FB074604E0FFF750FBC01B0228BE
:101670002BD828688001F7D4206AB0F5803F05D1C7
:101680006868A16820F4003008436860D4E9080164
:101690000843696821F4741108436860C6F86090D3
:1016A000FFF734FB044606E025E000BFFFF72EFB02
:1016B000001B022809D828688001F7D51BE000BF6D
:1016C000FFF724FB001B022802D90320BDE8F88F96
:1016D00028688001F4D40EE00128F7D06868226AF7
:1016E00000F48031914204D1616A00F470108842A4
:1016F00001D00120EAE70020E8E7000000100240E6
:101700000000424280044242340000200070004049
:1017100070B5040009D0606A002540B1256165619B
:10172000A56294F8510040B10CE0012070BD6068E2
:10173000B0F5827FF4D0E561F2E784F8505020469E
:1017400000F040F8022084F851002068016821F080
:1017500040010160A088218900F4827001F40441F5
:101760000843A18901F400610843217C01F00201D2
:101770000843217D01F001010843218B01F4007130
:101780000843217F01F03801084394F8201001F04C
:1017900080010843218D01F400510843216808604D
:1017A000A069042101EA1040216848602068C169ED
:1017B00021F40061C1616565012084F851000020B9
:1017C00070BD000030B585B00024009401940294EF
:1017D000039400681549884225D11548C16941F430
:1017E0008041C161C16901F480410491816941F086
:1017F0000801816180690F4D00F0080004904FF4EA
:101800002040009002200190032003906946284662
:10181000FFF786F94FF48040CDE900046946284679
:101820000294FFF77DF905B030BD0000003800409C
:1018300000100240000C014010B5401EB0F1807F46
:1018400001D3012010BD4FF0E02460610F2160172B
:1018500001F0A7FD0020A06107202061002010BD3D
:1018600070B590F83C20012A26D0012480F83C4035
:10187000022280F83D2003685A689D6822F07006B5
:101880000A6832435A600D4B02689A4208D0B2F19E
:10189000804F05D00A4B9A4202D00A4B9A4204D19B
:1018A000496825F080031943916080F83D4000218C
:1018B00080F83C10084670BD022070BD002C01402D
:1018C000000400400008004010B5040003D094F864
:1018D0003D0010B107E0012010BD002084F83C005D
:1018E000204600F01FF8022084F83D00211D2068EA
:1018F00000F0A8FF012084F8460084F83E0084F838
:101900003F0084F8400084F8410084F8420084F8E5
:10191000430084F8440084F8450084F83D0000202A
:1019200010BD000008B50068B0F1804F08D105482F
:10193000C16941F00101C161C06900F0010000907E
:1019400008BD00000010024070B5044690F83C004D
:101950000025012817D0012684F83C60022084F875
:101960003D002068826822F0770222F47F42826084
:101970000868502838D00DDC20284FD005DC90B303
:10198000102811D14AE0022070BD302846D04028EE
:101990000AD13BE060282FD070280DD0B0F5805FD1
:1019A00003D0B0F5005F12D0012584F83D6000201F
:1019B00084F83C00284670BDCB68D1E9012120683D
:1019C00000F083FF2068816841F0770109E0CB686F
:1019D000D1E90121206800F078FF2068816841F496
:1019E00080418160E1E719E0CA684968206801F038
:1019F00021F85021206806E0CA684968206801F093
:101A00002AF86021206800F06AFFCEE7CA684968BA
:101A1000206801F00FF840212068F4E722680146B1
:101A20001046F0E710B586B00021009101910291B7
:101A300003910068B0F1804F2BD11748816941F0C4
:101A400004018161816901F004010491816941F01F
:101A5000080181618069022400F0080004904FF4BD
:101A60000040CDE9000469460C480394FFF758F89C
:101A70000820CDE90004694609480394FFF750F8AF
:101A80000848416821F4407141F0E06141F48071FF
:101A9000416006B010BD0000001002400008014087
:101AA000000C01400000014070B5044690F83C0075
:101AB00000260D4601280FD0012084F83C006AB1B1
:101AC000042A1DD0082A2FD00C2A3FD0012600203E
:101AD00084F83C00304670BD022070BD206800F0E4
:101AE00007FF2068816941F00801816120688169F0
:101AF00021F004018161206881692A69114311E0A4
:101B0000206800F01DFF2068816941F40061816157
:101B10002068816921F480618161206881692A6976
:101B200041EA02218161D2E7206800F035FF206898
:101B3000C16941F00801C1612068C16921F0040157
:101B4000C1612068C1692A69114311E0206800F071
:101B50004FFF2068C16941F40061C1612068C1691B
:101B600021F48061C1612068C1692A6941EA0221CA
:101B7000C161ACE710B5040003D094F83D0010B18A
:101B800007E0012010BD002084F83C00204600F052
:101B90001EF8022084F83D00211D206800F052FE4E
:101BA000012084F8460084F83E0084F83F0084F861
:101BB000400084F8410084F8420084F8430084F82F
:101BC000440084F8450084F83D00002010BD7047B3
:101BD00010B50446022249B104290ED0082913D0B9
:101BE00094F84100012816D0012010BD94F83E0061
:101BF0000128F9D184F83E200FE094F83F00012835
:101C0000F2D184F83F2008E094F840000128EBD19D
:101C100084F8402001E084F841200122206800F08F
:101C200047FE0F492068884203D1426C42F40042CB
:101C300042642068884208D0B0F1804F05D009493D
:101C4000884202D00849884204D1816801F0070126
:101C5000062903D0016841F001010160002010BD98
:101C6000002C01400004004000080040704770470D
:101C7000F8B5016804460868CA684B6910F00F0F90
:101C80004FF0000559D003F0010602F49077374376
:101C900065D0C10705D0D10503D5616C41F00101C4
:101CA0006164410705D5D90703D0616C41F0020199
:101CB0006164810705D5D90703D0616C41F0040147
:101CC0006164010707D502F02001314303D0616C44
:101CD00041F008016164616C00293AD0800604D5A6
:101CE000900602D5204600F0F7FE20684069616C3E
:101CF000C0F38010090700D460B3204600F0C5FE91
:101D000020684069400621D52068143050E8001F43
:101D100021F0400140E80012002AF5D1E06BA8B1A3
:101D20006D494163E06BFEF77DFD002811D0E06B4B
:101D3000416B01B0BDE8F040084783060FD593061C
:101D40000DD52046BDE8F84000F0C6BE2046FFF79E
:101D50008EFFF8BD2046FFF78AFF6564F8BD266B4D
:101D60002023012E7CD1C6067AD5D60678D5086800
:101D70004868009048694FF00206400640D5E16B84
:101D8000086840680004000CE8D0A28D8242E5D9C2
:101D9000E085886920282DD020680C3050E8001F8D
:101DA00021F4807140E80012002AF5D12068143037
:101DB00050E8001F21F0010140E80012002AF5D18F
:101DC0002068143050E8001F21F0400140E8001264
:101DD000002AF5D184F84230256320680C3050E8A1
:101DE000001F21F0100140E80012002AF5D1E06B3D
:101DF000FEF7F4FC6663A08DE18D401A81B22AE003
:101E0000A08DE18D401A81B2E08D0028A6D0002976
:101E1000A4D022680C3252E8000F20F4907042E8FF
:101E20000007002FF5D12068143050E8002F22F071
:101E3000010240E80027002FF5D184F842302563E5
:101E400020680C3050E8002F22F0100240E80023F8
:101E5000002BF5D166632046FFF708FFF8BDFFE7CA
:101E600005062BD5150629D594F841002128F5D172
:101E7000A068B0F5805F01D12069B0B1206A411C33
:101E80002162216800784860E08C401E0004000C4C
:101E9000E084E3D12068C16821F08001C16020683E
:101EA000C16841F04001C160D8E7206A0088C0F3F2
:101EB00008004860206A801C2062E5E74006CDD516
:101EC0005006CBD5CA68204622F04002CA6084F88A
:101ED000413000F024F9C1E77B2A000870B5040006
:101EE00004D094F84100002510B106E0012070BD37
:101EF00084F84050204600F023F8242084F8410064
:101F00002068C16821F40051C160204600F046FEFF
:101F10002068016921F4904101612068416921F044
:101F20002A0141612068C16841F40051C1606564C3
:101F3000202084F8410084F842006563002070BDD1
:101F400030B585B000240094019402940394006895
:101F50001B49884232D11B48816941F4804181612B
:101F6000816901F480410491816941F00801816136
:101F70008069154D00F00800049040200090022078
:101F800001900320039069462846FEF7C9FD802092
:101F9000CDE90004694628460294FEF7C1FD0B48CE
:101FA000416841F0E06141F00401416000221146C6
:101FB0002520FFF799F82520FFF788F805B030BDF8
:101FC0000038014000100240000C014000000140B8
:101FD00090F84230202B01D00220704721B11AB175
:101FE0000023036300F036BE012070472DE9F04165
:101FF000012222492248FFF7EBFF204920480A39F5
:1020000048308F7A002301240225303F01F1180661
:1020100000F10802152F0DD2DFE807F00B0E1012A9
:102020001416191C1E250C0C0C0C0C0C0C27292B3F
:102030002D003471BDE8F0813371FBE74D72F9E793
:102040004B72F7E70B72F5E7017B8C5407E0017BDD
:102050008D5404E0052100E00621037B9954017BA7
:10206000491C0173E6E70B73E4E70C73E2E70D73B9
:10207000E0E7032000E004200873DBE70A0000200B
:10208000680100202DE9F843044690F841001F46FE
:1020900016460D46202802D00220BDE8F8837DB107
:1020A00076B100206064212084F84100FEF72EFE06
:1020B000A6848046E684A068B0F5805F02D003E085
:1020C0000120EAE7206910B12E4600250EE0002627
:1020D0000CE08021204600F0D8FDA0B9AEB116F882
:1020E000010B21684860E08C401EE084E08C434690
:1020F0004FF0000200970028EBD14FF0400120463E
:1021000000F0C3FD30B10320C7E735F8020BC0F380
:102110000800E6E7202084F841000020BDE7704772
:10212000FEE701684A69D24352050FD46FF480621A
:102130004A61002140F8301F2022427381730269F6
:1021400042F00402026101730120704700207047D1
:10215000F8B50446C06A1E460D461746082807D043
:10216000012805D010F5803F02D0206B122804D141
:102170002068016841F480710160134600224FF02D
:1021800001112046009600F05DF840B1206800681B
:10219000C00502D54FF4007020640320F8BD20690B
:1021A000B0F5804F0ED00620216800EAD51040F02F
:1021B000F000086133463A460B49204600F08AF8A1
:1021C00078B902E005F0FE0000E0E8B2216808619D
:1021D000054933463A46891F204600F07BF800281F
:1021E000DCD00120F8BD00000800010070B51646E3
:1021F0000D4604461EE02046FFF793FF08B101207C
:1022000070BD681C16D0FEF781FD801BA84200D867
:1022100085B920684069C04340070BD5002044F8C9
:10222000300F20216173A073216941F020012161E9
:102230002073E4E720684069C0434007DBD40020F6
:1022400070BD00002DE9F047984617460D4604463C
:10225000C1F30746DDF820902AE000BFB8F1FF3F48
:1022600026D0FEF753FDA0EB0901414502D8B8F195
:10227000000F1DD12068012E16D0806925EA0000CC
:102280000004000C12D00020B84211D1002044F804
:10229000300F20216173A073216941F02001216179
:1022A00020730120BDE8F0874069E7E70120EBE7F4
:1022B0002068012E0AD0806925EA00000004000C85
:1022C00006D00020B842C9D00020EBE74069F3E710
:1022D0000120F7E72DE9F047984616460D460446DB
:1022E0004FF000094FF0200AC1F3074723E02068B0
:1022F0004069C043400515D42068016841F400716D
:10230000016021686FF480604861C4F8309084F8FF
:102310003DA084F83E90216C41F00401216484F8D2
:102320003C9021E0701C06D0FEF7F0FCA0EB08000A
:10233000B04203D816B1012F1FD021E02068012F31
:1023400015D0806925EA00000004000C18D000BFF9
:1023500044F8309F84F80DA084F80E90216941F074
:102360002001216184F80C900120BDE8F0874069CC
:1023700025EA00000004000CEAD12068406901E071
:102380002068806925EA00000004000CAFD1ECE76A
:1023900070B516460D4604461EE02046FFF7C1FE06
:1023A00008B1012070BD681C16D0FEF7AFFC801B81
:1023B000A84200D885B920684069C04300060BD503
:1023C000002044F8300F20216173A073216941F08F
:1023D000200121612073E4E720684069C0430006C2
:1023E000DBD4002070BD012000F044B8012805D0E6
:1023F0004031C8B240F0800000F03CB88031C8B233
:10240000FAE7000070B5332000F034F8322000F015
:1024100031F8174C0025256020683228FCD328208D
:1024200000F028F8256020683228FCD3012000F055
:1024300021F8256020683228FCD3062000F01AF825
:10244000256020683228FCD30C2000F013F82560AA
:1024500020683228FCD3022000F00CF825602068A8
:102460003228FCD3BDE87040802000F003B80000A3
:10247000140000201CB500F0F00141F00C028DF8B2
:10248000042041F0080100018DF8051040F00C0116
:102490008DF8061040F008008DF8070064200090C9
:1024A000042301AA4E210248FEF7FAFC1CBD0000DD
:1024B000740000201CB500F0F00141F00D028DF811
:1024C000042041F0090100018DF8051040F00D01D4
:1024D0008DF8061040F009008DF807006420009088
:1024E000042301AA4E210248FEF7DAFC1CBD0000BD
:1024F0007400002010B5044602E0641CFFF7DAFF08
:1025000020780028F9D110BD70B5064614460D4656
:102510000120FFF7AFFF29463046FFF767FF02E0D3
:10252000641CFFF7C7FF20780028F9D170BD0000B8
:10253000FEB50024254800940194234902940160CB
:1025400089158160012505730475052606614FF420
:1025500060214460C161FDF7E5FF08B172B6FEE796
:1025600007200094CDE9015069461848FDF758FF4F
:1025700008B172B6FEE70224CDE90054694613485B
:10258000FDF74EFF08B172B6FEE7009403246946DA
:102590000E480194FDF744FF08B172B6FEE70094BF
:1025A0000424694609480194FDF73AFF08B172B660
:1025B000FEE7CDE9004669460448FDF731FF0028F3
:1025C00001D072B6FEE7FEBD0024014044000020A9
:1025D000F0B585B000253B4800950195029503951F
:1025E000816941F004018161816901F00401049174
:1025F000816941F0080181618069334E00F0080073
:102600000490002241F230013046FEF779FB2F4F53
:1026100000224FF4E8513846FEF772FBE020CDE986
:1026200000050224694602943846FEF779FA40F222
:102630000130CDE90005694602943046FEF770FA94
:10264000062000902248CDE9010469463046FEF795
:1026500067FA0125E002CDE90005CDE9025469469B
:102660003046FEF75DFAE001CDE90005CDE9025400
:1026700069463846FEF754FA4FF4E0500090CDE931
:102680000154694638460394FEF74AFA3020009018
:10269000CDE90154694630460394FEF741FA002221
:1026A00011460720FEF720FD0720FEF70FFD002250
:1026B00011460820FEF718FD0820FEF707FD05B0BB
:1026C000F0BD000000100240000C01400008014075
:1026D000000011100E4810B50C4901604FF48271D2
:1026E000416000218160C1604FF400720161C0E966
:1026F0000512C1610162416281620A21C162FFF774
:1027000007F8002801D072B6FEE710BD003800407F
:10271000C800002010B58EB00024079408940994D6
:102720000A940B941C2168460C94FDF74DFD224839
:102730004FF0804101604521C0E9011442F20F7160
:10274000C0E903148461FFF7BFF808B172B6FEE771
:102750004FF48050079007A91748FFF7F5F808B124
:1027600072B6FEE71448FFF705FA08B172B6FEE745
:102770000B940BA910480C94FFF772F808B172B6CD
:10278000FEE76020CDE900040294002269460A4871
:102790000494FFF789F908B172B6FEE7042269468E
:1027A0000548FFF781F908B172B6FEE70248FFF766
:1027B00039F90EB010BD000020010020FEE7FEE751
:1027C0007047704702484169491C416170470000E9
:1027D0000000002030B593B028216846FDF7F4FCD6
:1027E00014210AA8FDF7F0FC0025022401200F9512
:1027F00004900094102005901295C003CDE9085074
:102800001195109507946846FEF7F2FD08B172B66F
:10281000FEE70AA90F2081E831000D9500210AA8E2
:102820000E95FEF709FD08B172B6FEE70FA81195E7
:102830000F94FEF78BFC002801D072B6FEE713B0B0
:1028400030BD7047F0B50268164B174C174D4FF06E
:102850008047984205D0B84203D0A04201D0A84298
:1028600003D122F070064A683243984205D0B8423C
:1028700003D0A04201D0A84203D122F44074CA6818
:1028800022434C6922F08002224302608A68C262BD
:102890000A688262984201D109690163012141619C
:1028A000F0BD0000002C0140000400400008004082
:1028B00010B501F01F030121046A99408C430462A2
:1028C000016A9A401143016210BD10B5846842EA62
:1028D000032224F47F440A432243826010BD8268AD
:1028E00022F070020A4342F0070181607047000045
:1028F00030B5036A026A22F001020262426884690A
:1029000024F073050C682C4323F002058B682B43DD
:102910000A4DA8420BD123F00805CB6822F440727F
:102920002B434D6923F0040315438A692A4342600F
:10293000846149684163036230BD0000002C01409E
:1029400030B5026A036A23F01003036243688469A6
:102950000D6824F4E64444EA05248D6822F0200240
:1029600042EA05120B4DA8420ED1CD6822F080023A
:1029700042EA05124D6923F4406343EA85038D69F9
:1029800022F0400243EA8503436084614968816321
:10299000026230BD002C014030B5036A026A22F4A5
:1029A000807202624268C46923F4007324F07305E4
:1029B0000C682C438D6843EA05230C4DA8420ED1C8
:1029C000CD6823F4006343EA05234D6922F44052A5
:1029D00042EA05128D6923F4806342EA05124260DF
:1029E000C4614968C163036230BD0000002C01402E
:1029F00030B5046A026A22F4805202624268C369F6
:102A00000D6823F4E64343EA05238D6824F400545B
:102A100044EA0534064DA84204D14D6922F48042AF
:102A200042EA85124260C36149680164046230BDB4
:102A3000002C014010B5036A046A24F0010404620A
:102A4000846924F0F00444EA021423F00A020A43E1
:102A50008461026210BD10B5036A046A24F0100498
:102A60000462846923F0A00324F4704444EA02322F
:102A700043EA01118261016210BD10B5406A002174
:102A8000C185C184FFF7F3F810BD01680C3151E82E
:102A9000002F22F4907241E80023002BF5D1016849
:102AA000143151E8002F22F0010241E80023002BED
:102AB000F5D1016B012909D101680C3151E8002FD2
:102AC00022F0100241E80023002BF5D1202180F8EC
:102AD000421000210163704708B590F84210222986
:102AE00001D0022008BD82684FF480539A4201D180
:102AF000016921B1816A9A421BD04AB10AE0026899
:102B0000816A5268C2F308020A80816A891C08E05F
:102B1000026972B10268526802F07F020A70816A2B
:102B2000491C8162C18D491E0904090CC18503D06D
:102B30001BE002685268F1E70168CA6822F02002CF
:102B4000CA600168CA6822F48072CA6001684A6972
:102B500022F001024A61202180F8421000214163E5
:102B6000026B012A03D0FFF741FA002008BD016380
:102B700001680C3151E8002F22F0100241E80023D7
:102B8000002BF5D101680A68D20602D50A684968A7
:102B90000091818DFFF76AF8E7E7000070B5044601
:102BA00000680169E26821F4405111430161216923
:102BB000A0680843616908432168CA6841F20C6350
:102BC0009A430243CA6020684169A26921F44071B6
:102BD000114341611E492068884202D1FEF7D2FBB1
:102BE00001E0FEF7BFFB00EBC00101EB00126068E3
:102BF00064218000B2FBF0F3B3FBF1F36FF0180631
:102C00007343B2FBF0F5B2FBF0F605EB830532231C
:102C100003EB0515B5FBF1F5B6FBF1F605F0F00594
:102C200005EB0615B2FBF0F6B2FBF0F0B0FBF1F0ED
:102C30006FF01802504306EB800003EB0010B0FB6E
:102C4000F1F0216800F00F002844886070BD00009A
:102C50000038014081628285C285002141642221C1
:102C600080F84210016921B10168CA6842F480729B
:102C7000CA6001684A6942F001024A610068C1689D
:102C800041F02001C160002070472DE9F0419846D5
:102C900017460E460446069D27E0681C25D02DB138
:102CA000FEF734F8A0EB0800A8421ED920680C30CB
:102CB00050E8001F21F4D07140E80012002AF5D13D
:102CC0002068143050E8001F21F0010140E8001294
:102CD000002AF5D1202084F8410084F84200002029
:102CE00084F840000320BDE8F0812068006836EADF
:102CF000000004D00020B842CFD00020F3E701202C
:102D0000F9E700000148FEF7B3BF000068010020AA
:102D1000FEE7000030B50023074C09E0D55C05F064
:102D20000305CD54D55CC5F38005C5545B1CDBB2EF
:102D3000257B9D42F2D830BDB001002003480068D9
:102D4000C00501D50020704701207047080C0140E4
:102D5000F0B53548344FB0F800E01E300446B0F806
:102D600000C06288A088E18824897E88BB88FD88AD
:102D70003F891E301E311E321E340CF11E0CE645FA
:102D800007D9964205D9834203D98D4201D9A7427A
:102D90000FD8E64505D9964203D9834201D98D4221
:102DA00007D8A74207D9964205D9834203D98D4255
:102DB00001D90920F0BD964205D9834203D98D423D
:102DC00001D90020F0BDE64505D9964203D98342DA
:102DD00001D90220F0BD834205D98D4203D9A74213
:102DE00001D90620F0BD964201D9834219D8E645A3
:102DF00003D9964201D90320F0BD834203D98D4205
:102E000001D90520F0BD8D4203D9A74201D9072081
:102E1000F0BDE64501D90420F0BDA74201D9082044
:102E2000F0BD0120F0BD0000C00100200348006893
:102E3000C00501D50020704701207047080C0140F3
:102E400000B500F011FA08480168016800680748F9
:102E50000068C00707D106480021C18101825DF8E2
:102E600004EB00F001BA00BD08080140080C014065
:102E70000000002000B500F0F7F90848016801687B
:102E8000006807480068C00707D106480021C181D3
:102E900001825DF804EB00F0E7B900BD08080140CD
:102EA000080C01400000002070B5204C012642F2C1
:102EB0000F71607970B1012816D0002502281AD050
:102EC000032810D1E6706571E1812182BDE8704070
:102ED00000F0CAB9FFF732FF012804D1E181218255
:102EE00000F0C2F9667170BDE181218200F0BCF989
:102EF0000220607170BDE181218200F0B5F90B48BC
:102F00000B4A18300321C3781678B34206D10378F0
:102F10001279934202D16571A17070BD4078022888
:102F200001D00328F9D1617170BD000000000020BC
:102F3000B00100202DE9F041324C0125607898B1B4
:102F400002270026012829D0022850D0032809D1C1
:102F50006661606940F2DC51884203D9FFF743FAA9
:102F600066702770BDE8F08127A204210120FFF7D9
:102F7000CBFA00210220FFF739FA22481830C07836
:102F800050B134201F49E072642301220B312148E3
:102F9000FFF778F86570E5E73320F3E71D4D207AF9
:102FA000483505F1080268B1297B687B8142D9D98F
:102FB000805C01280FD002280FD0052813D00628E6
:102FC0000ED112E0134867706E73291D4830FFF769
:102FD000A1FE6770C6E710A000E011A0FFF78AFA13
:102FE000287B6873BEE710A0F8E711A0F6E7002180
:102FF0000120FFF7FBF910A0FFF77CFA03206070B7
:103000002572AFE7000000205049434B494E47214D
:1030100000000000680100202D5253310000000024
:103020002D525332000000002D5253330000000097
:103030002D5253340000000046494E495348205257
:103040004543454956494E47000000002DE9F041EF
:10305000174C0127207978B10226012811D00228C7
:1030600008D142F20F70E081208200F0FDF8A670D6
:1030700000202071BDE8F081207A0028FAD1277164
:10308000F8E70C4D05F10E006A7B115C491EC9B2D0
:1030900011546A7B401C125CC01F804600F074F91A
:1030A0004246291D2846FFF735FE27722671E1E7C3
:1030B00000000020B001002070B500241CE0661C58
:1030C000F2B215E0055D835C9D420FD1134604E02A
:1030D000C5186D78C5545B1CDBB20D786D1E9D4222
:1030E000F6DC0B785B1E521E0B70D2B2521CD2B2B1
:1030F0000B789342E6D8F4B20A78A242DFD870BDCA
:103100002DE9F0474F4C504A0021A67801250223B3
:10311000507B4FF00309062E0BD2DFE806F00309BF
:103120000C7F838E48490C31081FFFF7C5FF7FE0F5
:10313000A370BDE8F087444A0E32865C8EB1E27817
:103140008AB140481830012A17D0022AF1D180787C
:1031500098B302285ED00328EBD1BDE8F04700F019
:10316000D9B8042067E042F20F70E08142F2E060DB
:10317000208200F079F8E570DBE7334A90F80180AF
:1031800092F804C015782F4A1832D7781278BA46C8
:103190007F1EFFB2B8F1000F09D0B8F1010F33D094
:1031A000B8F1020F16D0B8F1030F2DD124E0521C54
:1031B000D6B2944502D981700AE027E0554505D280
:1031C00080F8029080F80190067013E043708370DD
:1031D000067019E01B4F1837FF787F1CFFB294452B
:1031E00001D1817006E0012E01D99542F9D880F80D
:1031F00002904170C77007E09445F2D0012E01D9CA
:103200009542EED383704170E37092E7BDE8F047DA
:10321000FFF74ABEBDE8F04700F034B8BDE8F0471C
:10322000FFF714BF08490F31415C19B1401C5073BE
:10323000A5707EE70520A0707BE71173A17084F86C
:10324000009076E700000020B00100200548012131
:10325000027822B1012A03D1002202702C380170B9
:10326000704700002C000020054904480B68C28903
:103270005A630968008A88637047000000000020D4
:1032800020010020F0B5214C00250326A07901275C
:1032900042F20F7105280DD2DFE800F0030D13157F
:1032A0002F00FFF7C3FD012800D1E1812182FFF744
:1032B000DBFFA771F0BDE1812182FFF7D5FF02207E
:1032C00019E0A671F0BDE1812182FFF7CDFF0F4823
:1032D0000F491830C2780B789A4206D102780979E2
:1032E0008A4202D1A670A571F0BD4078022801D0B3
:1032F0000328F9D10420A071F0BDE770A571E18128
:103300002182BDE8F040FFF7AFBF000000000020C1
:10331000B001002030B51A4C012542F20F71E0795E
:1033200060B10022012813D0022810D1E570E271AB
:10333000E1812182BDE83040FFF796BFFFF7FEFC38
:10334000012804D1E1812182FFF78EFFE57130BDB4
:103350000B480C491830C3780D78AB4207D103787D
:1033600009798B4203D10320A070E27130BD40780F
:10337000022801D00328F9D10220E07130BD0000FD
:1033800000000020B00100200023114404E0C21816
:103390005278C2545B1CDBB29942F8D800224254E6
:1033A00070470907090E002804DB00F1E02080F8CF
:1033B0000014704700F00F0000F1E02080F8141DA9
:1033C0007047000008B5FDF731FEFFF703FAFFF77D
:1033D000FFF85648416941F001014161406900220E
:1033E00000F00100009011460B20FDF77DFE0B2040
:1033F000FDF76CFEFFF79CF8FFF76CF9FFF78AF911
:103400004C484B49002501604FF4E131C0E90115FA
:103410000C21C560C0E904518561C561FEF75EFD00
:1034200008B172B6FEE743484349F43801604349A6
:10343000C0E901154FF48041C0E903514561856140
:10344000C5610562FDF768FC08B172B6FEE7394850
:1034500000214838FEF7BCFB364804214838FEF707
:10346000B7FBFEF7CFFF012235493248FEF7B0FD2A
:10347000334C42F20F7642F2E0670A3C607A40B188
:1034800001284CD002284DD00328F7D1E5812582B0
:1034900042E0284905225831A1F5BE70FDF718F920
:1034A000FFF756FC0A2837D2DFE800F005181D2088
:1034B00023070B101427E68113E0E68142F2650032
:1034C00002E0E68141F27030208225E0E68140F69C
:1034D000CC20F9E7E68140F25140F5E742F28C005A
:1034E00009E0278218E041F2883004E040F6D92054
:1034F00001E040F25740E081F3E7207803280BD247
:10350000DFE800F002050800FFF7A0FE04E0FFF787
:1035100011FD01E0FFF7F4FDFFF7A6FEAEE7FFF7B0
:103520008FFCABE7FFF7A6FCA8E700000010024005
:10353000003801406801002000580040A0860100CA
:103540000A00002000000000000000000102030447
:10355000060708090000000001020304010202033B
:103560000405060708090A0B0C0D0E0F10100000C9
:1035700090350008000000204400000028010008E9
:10358000D4350008440000204C0800004401000825
:10359000000000000000000001000000000000002A
:1035A000000000000000000000000000000000001B
:1035B000000000000000000000000000000000000B
:1035C000000000000024F4000100000010000000D2
:0435D00000000000F7
:04000005080000ED02
:00000001FF
