:020000040800F2
:100000002808002089010008BB270008612100089A
:10001000B9270008F5030008012D000800000000C2
:10002000000000000000000000000000BF270008E2
:100030002F04000800000000BD270008C1270008A9
:10004000A3010008A3010008A3010008A301000800
:10005000A3010008A3010008A3010008A3010008F0
:1000600031040008A3010008A3010008F9030008F7
:10007000A3010008A3010008A3010008A3010008D0
:10008000A3010008A3010008A3010008A3010008C0
:10009000A3010008A3010008A30100083704000819
:1000A000A3010008A3010008A3010008A3010008A0
:1000B000A3010008A3010008A3010008A301000890
:1000C000A3010008A3010008A3010008A301000880
:1000D000A3010008F52C0008A3010008A3010008F3
:1000E000A3010008A3010008A301000800F002F822
:1000F00000F03AF80AA090E8000C82448344AAF188
:100100000107DA4501D100F02FF8AFF2090EBAE885
:100110000F0013F0010F18BFFB1A43F0010318473B
:100120006858000088580000103A24BF78C878C189
:10013000FAD8520724BF30C830C144BF04680C60ED
:10014000704700000023002400250026103A28BF35
:1001500078C1FBD8520728BF30C148BF0B60704739
:100160001FB51FBD10B510BD00F06CF81146FFF7AC
:10017000F7FF03F001FF00F08AF803B4FFF7F2FF86
:1001800003BC00F08DF8000009488047094800478B
:10019000FEE7FEE7FEE7FEE7FEE7FEE7FEE7FEE737
:1001A000FEE7FEE704480549054A064B7047000094
:1001B00033280008ED00000828020020280800204D
:1001C00028040020280400204FF0000200B5134648
:1001D00094469646203922BFA0E80C50A0E80C5067
:1001E000B1F12001BFF4F7AF090728BFA0E80C5018
:1001F00048BF0CC05DF804EB890028BF40F8042B11
:1002000008BF704748BF20F8022B11F0804F18BF7D
:1002100000F8012B704770477047704710B500F029
:1002200009F8006810BD10B5044600F003F804603A
:1002300010BD000000487047C8010020004870470A
:10024000C80100207546FFF7F9FFAE460500694674
:10025000534620F00700854618B020B5FFF7A2FFEF
:10026000BDE820404FF000064FF000074FF00008B7
:100270004FF0000B21F00701AC46ACE8C009ACE838
:10028000C009ACE8C009ACE8C0098D46704710B59C
:100290000446AFF300802046BDE81040FFF76DBF75
:1002A00001491820ABBEFEE726000200704700009F
:1002B00070B5044600688168C943C90717D18168D1
:1002C00021F00101816000F06FFD05460AE000BFEA
:1002D00000F06AFD401B022804D920688068C043F2
:1002E000C00706D020688068C043C007F0D0002057
:1002F00070BDA06A40F01000A062E06A40F001000A
:10030000E062012070BD10B50146406A826A12F0B9
:10031000500F05D0006A026BBDE810400846104738
:10032000816A41F40071816201688968C1F34241C8
:1003300007290CD1017B51B9816A21F48071816256
:10034000816AC90403D4816A41F00101816200F02D
:10035000F5F810BD10B5406A816A41F04001816234
:10036000C16A41F00401C16200F0EAF810BD10B5A5
:10037000406A00F0E4F810BDF8B500260446009687
:1003800000688168C943C9072DD0816841F0010127
:100390008160164816490068B0FBF1F000E0401E8D
:1003A00000900028FBD100F0FFFC054616E000BFDE
:1003B00000F0FAFC401B022810D920688068C04376
:1003C000C0070BD0A06A40F01000A062E06A40F0C5
:1003D0000100E06284F824600120F8BD2068806894
:1003E000C043C007E4D10020F8BD00002800002071
:1003F00040420F00FEE70000014800F099BA0000FB
:100400008401002030B590F840500124AC40C56B09
:100410006C60046863604368102B036803D09960C4
:100420000068C26030BD9A600068C16030BD70472E
:10043000042000F0B7BB802000F0B4BB72B6FEE72A
:10044000F8B50024009490F824202546012A12D003
:10045000012280F824204A681F23072A0DD206684B
:10046000776B521E02EB820293409F430B689340CE
:100470001F43776319E00220F8BD06680D2A0AD2EF
:10048000376BD21F02EB820293409F430B6893406D
:100490001F43376309E0F76A0D3A02EB820293408B
:1004A0009F430B6893401F43F7620A68072306685F
:1004B0000A2A0AD3F7680A3A02EB420293409F43A2
:1004C0008B6893401F43F76008E0376902EB4202F4
:1004D00093409F438B6893401F4337610A68102AFB
:1004E00001D0112A20D1124B02689A4217D1936889
:1004F0001B0219D4936843F4000393600968102920
:1005000012D10C490C4A0968B1FBF2F101EB8101EF
:10051000490000E0491E00910029FBD104E0816AF6
:1005200041F020018162012480F824502046F8BD6A
:10053000002401402800002040420F00704770470F
:10054000704700002DE9F0414FF0000704003D46E0
:100550007ED0A06A002628B9E66284F8246020468E
:1005600000F07EF82046FFF7A3FEA16AC90600D47A
:1005700020B1A06A40F01000A06269E0A16A21F4F5
:10058000885141F00201A1626268E169237B0A435C
:1005900047EA43010A43A1684FF48077B94209D082
:1005A000012907D05FF0000194F814C0BCF1010FDD
:1005B00002D00AE03946F7E7F3B1A36A43F020031B
:1005C000A362E36A43F00103E3622368D3F804C043
:1005D0002CF4694C4CEA010CC3F804C021688B6808
:1005E000DFF870C003EA0C0313438B60A168B942C3
:1005F0000BD0012909D00CE0DFF85CC0A3690CEB3B
:1006000043330B4343F40061DFE7218A0D05A5F571
:1006100080152168CB6A23F470032B43CB622168D9
:1006200089680E4B1940914208D1E662A16A21F017
:10063000020141F00101A162BDE8F081A06A20F051
:10064000020040F01000A062E06A40F00100E062A9
:100650000120F1E7FDF7E1FF00E0FFFFFE0E1FFFC5
:1006600070B586B000250646009501950295039564
:1006700000681A4988422ED11949886940F40070EF
:100680008861886900F400700490886940F0040073
:1006900088618869694600F0040004901F2000907A
:1006A000032001900F4800F089FA104C0E48C4E96D
:1006B00000058020C4E90250400020618000606194
:1006C0002020C4E90605204600F0DCF908B1FFF758
:1006D000B5FE3462666206B070BD000000240140C1
:1006E0000010024000080140080002408401002080
:1006F0002DE9F047894604463B4900683B4F0E1DF3
:100700009046884201D0B84207D1306810F4702F6B
:1007100003D001252846BDE8F08794F8240001287D
:100720000CD0012084F824002046FFF725FE0500A8
:100730004FF0000004D084F82400EBE70220EAE741
:10074000A16A40F60162914341F48071A16221687F
:10075000B94218D1326812F4702F14D0A16A41F452
:100760008011A1623168490505D5A16A21F40051C3
:1007700041F48051A162A16AC9040AD5E16A21F05D
:100780000601E16206E0A26A22F48012A2624968D0
:10079000E9E7E06284F82400216A15488862216A4A
:1007A0001448C862216A1448086321686FF0020087
:1007B00008602068816841F4807181602168434647
:1007C0004A464C31206A00F08BF920688168C1F3F9
:1007D00042410729816803D041F48011816099E783
:1007E00041F4A001FAE70000002401400028014084
:1007F000070300086F0300085503000810B50446FE
:1008000090F82400012807D0012084F82400204615
:10081000FFF74EFD10B113E0022010BD21688A6879
:1008200022F480728A60216A91F82120022A07D17D
:10083000084600F00EF8A16A30B141F04001A16213
:10084000002184F8241010BD21F4885141F00101E9
:10085000F5E710B590F821100022022905D00421F7
:10086000816380F82020012010BD01680B6823F00F
:100870000E030B6001680B6823F001030B6090F816
:100880004030C46B012101FA03F3636080F821104A
:1008900080F82020104610BD10B590F821100024DB
:1008A000022903D00421816301243DE001680A6824
:1008B00022F00E020A6001680A6822F001020A6052
:1008C0001A4A0168914201D1012121E0174A1432EC
:1008D000914201D110211BE0144A2832914201D1EA
:1008E000891515E0114A3C32914201D189140FE07B
:1008F0000E4A5032914202D14FF4803108E00B4A47
:100900006432914202D14FF4801101E04FF08071C6
:10091000064A083A5160012180F82110002180F830
:100920002010416B01B18847204610BD08000240ED
:100930002DE9F05FC16B0C6801680B68D0F840C00E
:10094000042202FA0CF2494DDFF824A1494E4A4F25
:10095000DFF828B1DFF828E122422CD05A072AD547
:100960000A68920603D40A6822F004020A60016849
:10097000A94201D1042219E0514501D1402215E0DC
:10098000B14202D14FF4806210E0B94202D14FF47B
:1009900080420BE0594502D14FF4802206E07145B8
:1009A00002D14FF4800201E04FF080622F490839F4
:1009B0004A60C16A3BE04FF0020808FA0CF818EAF6
:1009C000040F4FF000094FF0010235D05FEA837841
:1009D00032D50B689B0605D40B6823F00A030B6025
:1009E00080F821200168A94201D1022219E0514575
:1009F00001D1202215E0B14202D14FF4007210E083
:100A0000B94202D14FF400520BE0594502D14FF4E4
:100A1000003206E0714502D14FF4001201E04FF0C0
:100A20000072124908394A6080F82090816A0029D2
:100A30001AD0BDE8F05F0847082505FA0CF52542F5
:100A400012D01B0710D50B6823F00E030B6090F833
:100A50004010C36B02FA01F15960826380F82120D3
:100A600080F82090016BE2E7BDE8F09F08000240AB
:100A70001C00024030000240440002405800024086
:100A80006C00024030B528B308C813491422194439
:100A9000B1FBF2F18900C163104981630221417702
:100AA0001A6843F6F0718A43D0E900142143D0E973
:100AB00002452C432143046921434469214384694D
:100AC00021431143196000214163012242770177DC
:100AD000084630BD012030BDF8FFFDBF00000240D8
:100AE00070B5044690F82000002501280CD00120A4
:100AF00084F8200094F821600020012E06D084F8AC
:100B000020000225284670BD022070BD022684F810
:100B10002160A0632068066826F001060660204672
:100B2000FFF770FCE06A00282068016802D041F0FD
:100B30000E0106E021F0040101602068016841F027
:100B40000A0101602068016841F001010160D9E7F4
:100B500070B5044600F028F90546601C02D0044830
:100B60000078044400F020F9401BA042FAD370BD85
:100B70002C000020094904280ED0802809D10A79C8
:100B800000203AB901220A7105490A6850630968D0
:100B900088637047087170470320FBE7000000205E
:100BA000BC000020044910B50A68024202D0086067
:100BB000FFF7E0FF10BD0000140401402DE9F84FDD
:100BC000DFF8B8910024A9F1040B23460F2709F19F
:100BD000040AABF1040EC9E00125A5402A40AA424F
:100BE0007DD1674ED1F804C0ACEB0608B44532D0D5
:100BF00014DCBCF1030F3AD009DCBCF1000F2AD0A1
:100C0000BCF1010F1CD0BCF1020F31D11DE0BCF1D1
:100C1000110F17D0BCF1120F2AD119E0B8F5881FB7
:100C200019D006DCB8F5803F15D0B8F5801F1FD16C
:100C300011E0B8F5001F0ED0B8F5041F18D10AE076
:100C4000CB6815E0CB681B1D12E0CB6808330FE0C2
:100C5000CB680C330CE08B682BB1012B4FF00803F1
:100C600003D0456104E0042302E0056100E00023B5
:100C7000FF2A01D8064601E000F104064FEA840588
:100C800001D9A5F12005D6F8008007FA05FC28EA6D
:100C90000C0803FA05F548EA0508C6F800804D6817
:100CA000ED0062D5374DAE6946F00106AE61AD6923
:100CB00024F0030605F001050095334D06EB050C05
:100CC000DCF80850A607360F07FA06F825EA0805EB
:100CD000DFF8B880404503D14FF0000817E044E04A
:100CE000DFF8AC80404502D14FF001080FE0DFF89B
:100CF000A480404502D14FF0020808E0DFF8988058
:100D0000404502D14FF0030801E04FF0040808FA13
:100D100006F848EA0508CCF808804D68D9F8006064
:100D2000ED024D4601D5164300E096432E604D6816
:100D3000DAF80060AD02554601D5164300E096434F
:100D40002E604D68DBF80060AD035D4601D51643AB
:100D500000E096432E604D68DEF80060ED037546B6
:100D600001D5164300E096432E60641C0D682A46A8
:100D7000E5407FF431AFBDE8F88F00000804014082
:100D80000000111000100240000001400008014066
:100D9000000C014000100140001401400AB1016143
:100DA00070470904FBE700000148806870470000B5
:100DB0002C00002070B5040025D094F83D000025DB
:100DC00020B984F83C50204600F04EF9242084F8E5
:100DD0003D002068016821F0010101602068016880
:100DE00041F4004101602068016821F40041016084
:100DF00000F00EFB4D4A6168914201D84C4900E079
:100E00004C49884201D2012070BD4B492368B0FB98
:100E1000F1F15E6826F03F060E435E606368934220
:100E200006D94FF4967359434FF47A73B1FBF3F13B
:100E30002368491C1E6A26F03F0631431962616827
:100E4000914210D84900401EB0FBF1F2521CC2F38F
:100E50000B02042A01D2042022E0B0FBF1F0401C76
:100E6000C0F30B001CE0A268F2B301EBC10303EB7B
:100E70000116431EB3FBF6F35B1C43F480431B05D2
:100E800049D092B301EBC10202EB0111401EB0FB4D
:100E9000F1F0401CC0F30B0040F4804040F40040EF
:100EA0002168CA694CF6FF739A431043C861D4E9BC
:100EB000071001432068026822F0C002114301605C
:100EC000D4E9030101432068826848F2FF339A4362
:100ED00011438160D4E9050108432168CA6822F002
:100EE000FF021043C86001E00EE016E020680168D0
:100EF00041F0010101602564202084F83D00256354
:100F000084F83E50002070BD01EB4106431EB3FB48
:100F1000F6F35B1CB3E70120C2E701EB4101401E81
:100F2000B0FBF1F0401CC0F30B00B7E7A086010056
:100F300080841E0000093D0040420F002DE9F84F5B
:100F40001F4690468A460446DDF82890FFF72CFF9E
:100F5000054694F83D0020287FD1192301224049FD
:100F60002046009501F08EF9002876D194F83C00D7
:100F7000012872D0012084F83C0020680168C9076C
:100F800003D1016841F0010101602068016821F48A
:100F900000610160212084F83D00102084F83E00AB
:100FA00000262664C4F824806785608D20852D483E
:100FB000E0622B464A465146204601F0E9F890B9D6
:100FC000206841698069009036E02A4649462046FB
:100FD00001F0FEF950B1206C042804D120680168AA
:100FE00041F4007101600120BDE8F88F606A21685A
:100FF00000780861606A401C6062618D491E6185ED
:10100000218D491E89B2218522685369DB435B0724
:101010000BD451B100781061606A401C6062608D31
:10102000401E6085208D401E20852A464946204668
:1010300001F0FCF80028CED1208D0028C5D154F84D
:101040003D0B016841F400710160202004F81E0985
:10105000E67766770020C7E7FFE70220C4E70000D5
:10106000020010000000FFFF10B586B000210091C3
:101070000191029103910068104988421BD1104CE4
:10108000A06940F00800A061A069694600F008006E
:1010900004904FF4406000901220019003200390D0
:1010A0000848FFF78BFDE06940F48000E061E069EB
:1010B00000F48000049006B010BD0000005800400D
:1010C00000100240000C014002488168027811447F
:1010D000816070472C000020074810B5016841F07E
:1010E00010010160032000F075F80F2000F006F8F1
:1010F00000F024F8002010BD0020024070B50D4D16
:1011000004464FF47A712878B1FBF0F00A49096877
:10111000B1FBF0F000F052FB48B9102C07D20022CE
:101120002146501E00F036F800206C6070BD012092
:1011300070BD00002C000020280000200C4808B5DD
:10114000816941F001018161816901F00101009132
:10115000C16941F08051C161C06900F080500090C8
:101160000448416821F0E06141F00071416008BD30
:101170000010024000000140002809DB00F01F02BF
:10118000012191404009800000F1E020C0F80011E9
:1011900070470000F0B40E4B1B680C46C3F30223EB
:1011A000C3F10705042D00D90425191D072901D213
:1011B000002300E0DB1E012606FA05F1491E21404E
:1011C00099409E40761E16403143F0BC02F04EBE60
:1011D0000CED00E0064900F0070208684FF6FF0337
:1011E000184040EA0220034A10430860704700009C
:1011F0000CED00E00000FA052DE9F8430546007803
:10120000354CC00754D0E0690026C00008D4E0691E
:1012100040F08050E061E069012600F080500090CD
:101220002E480168C90512D40168804641F48071D6
:101230000160FFF7B9FD074605E000BFFFF7B4FD09
:10124000C01B642823D8D8F80000C005F6D5206A52
:1012500010F4407021D0A98801F4407181421CD063
:10126000206A1F49012220F440700A6000220A60AF
:101270002062C00711D0FFF797FD074641F288387A
:1012800008E000BFFFF790FDC11B414502D90320D4
:10129000BDE8F883206A8007F4D5206A696820F4E5
:1012A0004070084320621EB1E06920F08050E06188
:1012B0002878800705D56068A96820F44040084375
:1012C00060602878C00605D56068E96820F4800071
:1012D000084360600020DBE700100240007000401F
:1012E000400442422DE9F0470F46050061D0434ECD
:1012F000306800F00700B84209D2306820F00700DB
:1013000038433060306800F00700B84251D1286897
:101310003B4C810712D5400703D5606840F4E0607C
:1013200060602878000703D5606840F46050606012
:101330006068A96820F0F000084360602878C00762
:1013400028D06868012810D02168022810D08907A9
:1013500000292EDA616821F0030101436160FFF783
:1013600023FD804641F288390DE021688903EFE7CB
:101370008901EDE7FFF718FDA0EB0801494502D907
:101380000320BDE8F0876068696800F00C00B0EBEE
:10139000810FEFD1306800F00700B8420BD93068F8
:1013A00020F0070038433060306800F00700B84292
:1013B00001D00120E5E72878400705D56068E96895
:1013C00020F4E060084360602878000706D5606874
:1013D000296920F4605040EAC100606000F038F8EC
:1013E0006168084AC1F30311515CC84006490860AE
:1013F00006480068FFF782FE0020C2E70020024096
:1014000000100240C85800082800002030000020CA
:101410000448054900684968044AC1F30221515C47
:10142000C84070472800002000100240D85800082B
:101430000448054900684968044AC1F3C221515C67
:10144000C84070472800002000100240D85800080B
:101450000E4A51680E4801F00C03042B11D0082BE2
:101460000FD10C48C1F38343C903C05C0AD551684E
:10147000084AC1F34041921E515C054A5043B0FBFB
:10148000F1F07047044948437047000000100240E3
:1014900000127A00E258000800093D002DE9F84FDB
:1014A000040070D02078C04DC00749D06868C0F3F0
:1014B0008100012807D06868C0F38100022809D1A3
:1014C0006868C00306D52868800339D5606800289D
:1014D000E7D035E06068B0F5803F0BD010B1B0F5D3
:1014E000A02F11D0286820F480302860286820F4CC
:1014F000802002E0286840F480302860606890B165
:10150000FFF752FC06460AE0286840F48020286075
:10151000F0E700BFFFF748FC801B642873D82868F9
:101520008003F7D50CE0FFF73FFC064605E000BF5F
:10153000FFF73AFC801B6428F0D828688003F7D4B2
:1015400020789A4E80074FF001094FF0000839D5F6
:10155000686810F00C0F07D06868C0F3810002289B
:1015600009D16868C00306D42868800714D52069AB
:10157000012808D110E02069B0B1C6F80090FFF74B
:1015800013FC074605E00AE1FFF70EFCC01B02282A
:10159000C4D828688007F7D52868616920F0F8006A
:1015A00040EAC10028600DE0C6F80080FFF7FCFBB0
:1015B000074604E0FFF7F8FBC01B022823D8286881
:1015C0008007F7D4207800072CD57948A169D9B1D4
:1015D000C0F80090FFF7E8FB074604E0FFF7E4FBE4
:1015E000C01B02280FD8686A8007F7D571484FF4EE
:1015F000FA510068B0FBF1F0009000BF0098411E66
:101600000091FAD20EE080E0C0F80080FFF7CCFB3A
:10161000074604E0FFF7C8FBC01B022875D8686ABC
:101620008007F7D42078400760D5E8690027C0001C
:1016300008D4E86940F08050E861E869012700F0CB
:10164000805000905C480168C90513D40168834646
:1016500041F480710160FFF7A7FB824606E000BFFE
:10166000FFF7A2FBA0EB0A0064284ED8DBF80000CD
:10167000C005F5D5E06801280AD008B1052813D0C7
:10168000286A20F001002862286A20F0040002E0A5
:10169000286A40F001002862E06841F2883B98B176
:1016A000FFF782FB82460BE0286A40F004002862C4
:1016B000EEE700BFFFF778FBA0EB0A0159455AD8C7
:1016C000286A8007F6D50CE0FFF76EFB824605E03E
:1016D000FFF76AFBA0EB0A0159454CD8286A80073E
:1016E000F6D41FB1E86920F08050E861E06988B362
:1016F0006968C1F38101022944D00228C6F86080DC
:1017000004D0FFF751FB044638E034E0FFF74CFB10
:10171000074604E0FFF748FBC01B02282BD82868C7
:101720008001F7D4206AB0F5803F05D16868A168D0
:1017300020F4003008436860D4E908010843696870
:1017400021F4741108436860C6F86090FFF72CFB21
:10175000044606E025E000BFFFF726FB001B022839
:1017600009D828688001F7D51BE000BFFFF71CFBF4
:10177000001B022802D90320BDE8F88F28688001E9
:10178000F4D40EE00128F7D06868226A00F48031B2
:10179000914204D1616A00F47010884201D00120A6
:1017A000EAE70020E8E700000010024000004242A3
:1017B00080044242280000200070004010B5401E06
:1017C000B0F1807F01D3012010BD4FF0E0246061B3
:1017D0000F21601702F04AFB0020A0610720206162
:1017E000002010BD70B590F83C20012A26D00124BD
:1017F00080F83C40022280F83D2003685A689D68CA
:1018000022F070060A6832435A600D4B02689A4211
:1018100008D0B2F1804F05D00A4B9A4202D00A4B51
:101820009A4204D1496825F080031943916080F8F9
:101830003D40002180F83C10084670BD022070BD7C
:10184000002C0140000400400008004010B50400D6
:1018500003D094F83D0010B107E0012010BD002036
:1018600084F83C00204600F01FF8022084F83D0078
:10187000211D206800F0DEFF012084F8460084F876
:101880003E0084F83F0084F8400084F8410084F86A
:10189000420084F8430084F8440084F8450084F84A
:1018A0003D00002010BD000008B50068B0F1804F79
:1018B00008D10548C16941F00101C161C06900F06A
:1018C0000100009008BD00000010024070B5044601
:1018D00090F83C000025012817D0012684F83C60D0
:1018E000022084F83D002068826822F0770222F40A
:1018F0007F4282600868502838D00DDC20284FD005
:1019000005DC90B3102811D14AE0022070BD3028C8
:1019100046D040280AD13BE060282FD070280DD057
:10192000B0F5805F03D0B0F5005F12D0012584F8D8
:101930003D60002084F83C00284670BDCB68D1E9AA
:101940000121206800F0B9FF2068816841F077012B
:1019500009E0CB68D1E90121206800F0AEFF2068E2
:10196000816841F480418160E1E719E0CA68496813
:10197000206801F057F85021206806E0CA684968DD
:10198000206801F060F86021206800F0A0FFCEE739
:10199000CA684968206801F045F840212068F4E7EA
:1019A000226801461046F0E710B586B0002100918C
:1019B0000191029103910068B0F1804F2BD117483B
:1019C000816941F004018161816901F004010491A0
:1019D000816941F0080181618069022400F00800FA
:1019E00004904FF40040CDE9000469460C4803948C
:1019F000FFF7E4F80820CDE900046946094803949C
:101A0000FFF7DCF80848416821F4407141F0E061DB
:101A100041F48071416006B010BD0000001002402A
:101A200000080140000C01400000014070B5044670
:101A300090F83C0000260D4601280FD0012084F8C4
:101A40003C006AB1042A1DD0082A2FD00C2A3FD0AE
:101A50000126002084F83C00304670BD022070BD95
:101A6000206800F03DFF2068816941F00801816134
:101A70002068816921F004018161206881692A69F7
:101A8000114311E0206800F053FF2068816941F4A0
:101A9000006181612068816921F480618161206831
:101AA00081692A6941EA02218161D2E7206800F058
:101AB0006BFF2068C16941F00801C1612068C169FC
:101AC00021F00401C1612068C1692A69114311E054
:101AD000206800F085FF2068C16941F40061C161A0
:101AE0002068C16921F48061C1612068C1692A69E7
:101AF00041EA0221C161ACE710B5040003D094F8BB
:101B00003D0010B107E0012010BD002084F83C002A
:101B1000204600F01EF8022084F83D00211D2068B8
:101B200000F088FE012084F8460084F83E0084F826
:101B30003F0084F8400084F8410084F8420084F8B3
:101B4000430084F8440084F8450084F83D000020F8
:101B500010BD704710B50446022249B104290ED0C9
:101B6000082913D094F84100012816D0012010BD97
:101B700094F83E000128F9D184F83E200FE094F853
:101B80003F000128F2D184F83F2008E094F840009B
:101B90000128EBD184F8402001E084F841200122A3
:101BA000206800F07DFE0F492068884203D1426C16
:101BB00042F4004242642068884208D0B0F1804F6D
:101BC00005D00949884202D00849884204D1816879
:101BD00001F00701062903D0016841F0010101600D
:101BE000002010BD002C014000040040000800400F
:101BF00030B504460D460068002200F051FE174B38
:101C000041F2111120688A10984209D1036A0B42EF
:101C100006D1036A134203D1436C23F400434364A7
:101C20002068036A0B4206D1016A114203D10168A0
:101C300021F00101016001203DB1042D08D0082DE3
:101C400009D084F84100002030BD84F83E00FAE756
:101C500084F83F00F7E784F84000F4E7002C0140E7
:101C600070477047F8B5016804460868CA684B6950
:101C700010F00F0F4FF0000559D003F0010602F4E9
:101C80009077374365D0C10705D0D10503D5616C86
:101C900041F001016164410705D5D90703D0616CAA
:101CA00041F002016164810705D5D90703D0616C59
:101CB00041F004016164010707D502F020013143BE
:101CC00003D0616C41F008016164616C00293AD075
:101CD000800604D5900602D5204600F0F5FE206867
:101CE0004069616CC0F38010090700D460B32046DE
:101CF00000F0C3FE20684069400621D520681430FA
:101D000050E8001F21F0400140E80012002AF5D100
:101D1000E06BA8B16D494163E06BFEF7BDFD0028A3
:101D200011D0E06B416B01B0BDE8F040084783067D
:101D30000FD593060DD52046BDE8F84000F0C4BE8F
:101D40002046FFF78EFFF8BD2046FFF78AFF656447
:101D5000F8BD266B2023012E7CD1C6067AD5D60687
:101D600078D508684868009048694FF00206400638
:101D700040D5E16B086840680004000CE8D0A28DF3
:101D80008242E5D9E085886920282DD020680C3072
:101D900050E8001F21F4807140E80012002AF5D1BC
:101DA0002068143050E8001F21F0010140E80012C3
:101DB000002AF5D12068143050E8001F21F04001BE
:101DC00040E80012002AF5D184F8423025632068EB
:101DD0000C3050E8001F21F0100140E80012002AEA
:101DE000F5D1E06BFEF735FD6663A08DE18D401AFD
:101DF00081B22AE0A08DE18D401A81B2E08D0028E9
:101E0000A6D00029A4D022680C3252E8000F20F49A
:101E1000907042E80007002FF5D12068143050E898
:101E2000002F22F0010240E80027002FF5D184F8AE
:101E30004230256320680C3050E8002F22F0100259
:101E400040E80023002BF5D166632046FFF708FF2A
:101E5000F8BDFFE705062BD5150629D594F84100F6
:101E60002128F5D1A068B0F5805F01D12069B0B11B
:101E7000206A411C2162216800784860E08C401E85
:101E80000004000CE084E3D12068C16821F08001E7
:101E9000C1602068C16841F04001C160D8E7206A94
:101EA0000088C0F308004860206A801C2062E5E7D3
:101EB0004006CDD55006CBD5CA68204622F0400258
:101EC000CA6084F8413000F04AF9C1E76B2A000883
:101ED00070B5040004D094F84100002510B106E06C
:101EE000012070BD84F84050204600F023F82420E3
:101EF00084F841002068C16821F40051C160204687
:101F000000F044FE2068016921F4904101612068DD
:101F1000416921F02A0141612068C16841F4005102
:101F2000C1606564202084F8410084F84200656344
:101F3000002070BD30B585B0002400940194029457
:101F4000039400681B49884232D11B48816941F4DF
:101F500080418161816901F480410491816941F08E
:101F6000080181618069154D00F00800049040204F
:101F70000090022001900320039069462846FEF756
:101F80001DFE8020CDE90004694628460294FEF734
:101F900015FE0B48416841F0E06141F004014160E9
:101FA000002211462520FFF7F5F82520FFF7E4F879
:101FB00005B030BD0038014000100240000C014067
:101FC0000000014090F84230202B01D002207047E1
:101FD00021B11AB10023036300F034BE0120704721
:101FE0002DE9F041012235493548FFF7EBFF334930
:101FF0003348103948300E7C01240225831D032705
:102000000022303E01F11C0C192E26D2DFE806F02A
:102010000D111E27292B2E31333A2525252525255F
:10202000253C3E4042454C5153008CF8044045202D
:1020300002E08CF8042046204874BDE8F0411F49B6
:1020400064230122491C1E4800F03CB81C48483853
:1020500003685A63006882630D71BDE8F0810A71FC
:10206000FBE7CA73F9E70179CD5407E00179CF5452
:1020700004E0062100E007210279D1540179491CCE
:102080000171EAE78A74E8E78C74E6E78D74E4E7A7
:102090008F74E2E704208874DFE7827305E000793B
:1020A0000028DAD10A72D8E7C273CB79012BF6D0B7
:1020B000D3E78473D1E7C473CFE70000100000209A
:1020C000040100202DE9F843044690F841001F4622
:1020D00016460D46202802D00220BDE8F8837DB1C7
:1020E00076B100206064212084F84100FEF75CFE98
:1020F000A6848046E684A068B0F5805F02D003E045
:102100000120EAE7206910B12E4600250EE00026E6
:102110000CE08021204600F0B0FDA0B9AEB116F869
:10212000010B21684860E08C401EE084E08C43464F
:102130004FF0000200970028EBD14FF040012046FD
:1021400000F09BFD30B10320C7E735F8020BC0F368
:102150000800E6E7202084F841000020BDE7704732
:10216000FEE701684A69D24352050FD46FF48062DA
:102170004A61002140F8301F2022427381730269B6
:1021800042F0040202610173012070470020704791
:10219000F8B50446C06A1E460D461746082807D003
:1021A000012805D010F5803F02D0206B122804D101
:1021B0002068016841F480710160134600224FF0ED
:1021C00001112046009600F05DF840B120680068DB
:1021D000C00502D54FF4007020640320F8BD2069CB
:1021E000B0F5804F0ED00620216800EAD51040F0EF
:1021F000F000086133463A460B49204600F08AF861
:1022000078B902E005F0FE0000E0E8B2216808615C
:10221000054933463A46891F204600F07BF80028DE
:10222000DCD00120F8BD00000800010070B51646A2
:102230000D4604461EE02046FFF793FF08B101203B
:1022400070BD681C16D0FEF7AFFD801BA84200D8F9
:1022500085B920684069C04340070BD5002044F889
:10226000300F20216173A073216941F020012161A9
:102270002073E4E720684069C0434007DBD40020B6
:1022800070BD00002DE9F047984617460D460446FC
:10229000C1F30746DDF820902AE000BFB8F1FF3F08
:1022A00026D0FEF781FDA0EB0901414502D8B8F127
:1022B000000F1DD12068012E16D0806925EA00008C
:1022C0000004000C12D00020B84211D1002044F8C4
:1022D000300F20216173A073216941F02001216139
:1022E00020730120BDE8F0874069E7E70120EBE7B4
:1022F0002068012E0AD0806925EA00000004000C45
:1023000006D00020B842C9D00020EBE74069F3E7CF
:102310000120F7E72DE9F047984616460D4604469A
:102320004FF000094FF0200AC1F3074723E020686F
:102330004069C043400515D42068016841F400712C
:10234000016021686FF480604861C4F8309084F8BF
:102350003DA084F83E90216C41F00401216484F892
:102360003C9021E0701C06D0FEF71EFDA0EB08009B
:10237000B04203D816B1012F1FD021E02068012FF1
:1023800015D0806925EA00000004000C18D000BFB9
:1023900044F8309F84F80DA084F80E90216941F034
:1023A0002001216184F80C900120BDE8F08740698C
:1023B00025EA00000004000CEAD12068406901E031
:1023C0002068806925EA00000004000CAFD1ECE72A
:1023D00070B516460D4604461EE02046FFF7C1FEC6
:1023E00008B1012070BD681C16D0FEF7DDFC801B13
:1023F000A84200D885B920684069C04300060BD5C3
:10240000002044F8300F20216173A073216941F04E
:10241000200121612073E4E720684069C043000681
:10242000DBD4002070BD10B5012000F03FF8BDE8FE
:1024300010400A20FEF78CBB10B501280BD04031AC
:10244000C8B240F0800000BF00F030F8BDE8104096
:102450000A20FEF77DBB8031C8B2F5E710B5332006
:1024600000F024F8322000F021F83220FEF770FB53
:10247000282000F01BF83220FEF76AFB062000F04F
:1024800015F83220FEF764FB0C2000F00FF8322024
:10249000FEF75EFB022000F009F83220FEF758FB41
:1024A000BDE81040802000F001B800001CB500F02D
:1024B000F00141F00C028DF8042041F00801000108
:1024C0008DF8051040F00C018DF8061040F0080062
:1024D0008DF8070064200090042301AA4E210248D1
:1024E000FEF72CFD1CBD0000680000201CB500F0AC
:1024F000F00141F00D028DF8042041F009010001C6
:102500008DF8051040F00D018DF8061040F009001F
:102510008DF8070064200090042301AA4E2103488F
:10252000FEF70CFD0A20FEF713FB1CBD680000201F
:1025300010B5044602E0641CFFF7D8FF207800289D
:10254000F9D110BD70B514460D460646FFF76BFF76
:1025500029463046FFF770FF02E0641CFFF7C6FF14
:1025600020780028F9D170BDFEB5002425480094DC
:102570000194234902940160891581600125057346
:102580000475052606614FF460214460C161FDF7C2
:10259000D9FF08B172B6FEE707200094CDE90150DB
:1025A00069461848FDF74CFF08B172B6FEE70224F1
:1025B000CDE9005469461348FDF742FF08B172B6F1
:1025C000FEE70094032469460E480194FDF738FFA6
:1025D00008B172B6FEE700940424694609480194E4
:1025E000FDF72EFF08B172B6FEE7CDE90046694659
:1025F0000448FDF725FF002801D072B6FEE7FEBDB6
:1026000000240140380000202DE9F04385B000256A
:102610003B480095019502950395816941F00401BD
:102620008161816901F004010491816941F008012F
:1026300081618069DFF8CC9000F0080004900022EE
:1026400043F230014846FEF7A9FBDFF8BC804FF4A7
:10265000E056002231464046FEF7A0FB6020CDE95F
:1026600000050224694602944046FEF7A7FA274F68
:102670008020CDE90007694602944046FEF79EFAA5
:102680004CF20330CDE90005694602944846FEF756
:1026900095FA0420CDE90007694602944846FEF702
:1026A0008DFA01254FF44050CDE90005CDE90254E3
:1026B00069464846FEF782FA0096CDE9015469461C
:1026C00040460394FEF77AFA30200090CDE9015499
:1026D000694648460394FEF771FA00221146082025
:1026E000FEF758FD0820FEF747FD0022114617208F
:1026F000FEF750FD1720FEF73FFD05B0BDE8F08363
:1027000000100240000C01400008014000001110C0
:1027100010B58EB000240794089409940A940B9481
:102720001C2168460C94FDF74FFD22484FF0804174
:1027300001604521C0E9011442F20F71C0E90314A0
:102740008461FFF783F808B172B6FEE74FF480505A
:10275000079007A91748FFF7B9F808B172B6FEE766
:102760001448FFF7C9F908B172B6FEE70B940BA93C
:1027700010480C94FFF736F808B172B6FEE76020F7
:10278000CDE900040294002269460A480494FFF748
:102790004DF908B172B6FEE7042269460548FFF715
:1027A00045F908B172B6FEE70248FFF7FDF80EB032
:1027B00010BD0000BC000020FEE7FEE77047704738
:1027C000FEF782BC30B593B028216846FDF7FCFCCB
:1027D00014210AA8FDF7F8FC0025022401200F951A
:1027E00004900094102005901295C003CDE9085084
:1027F0001195109507946846FEF750FE08B172B621
:10280000FEE70AA90F2081E831000D9500210AA8F2
:102810000E95FEF767FD08B172B6FEE70FA8119599
:102820000F94FEF7E9FC002801D072B6FEE713B062
:1028300030BD7047F0B50268164B174C174D4FF07E
:102840008047984205D0B84203D0A04201D0A842A8
:1028500003D122F070064A683243984205D0B8424C
:1028600003D0A04201D0A84203D122F44074CA6828
:1028700022434C6922F08002224302608A68C262CD
:102880000A688262984201D10969016301214161AC
:10289000F0BD0000002C0140000400400008004092
:1028A00010B501F01F030121046A99408C430462B2
:1028B000016A9A401143016210BD10B5846842EA72
:1028C000032224F47F440A432243826010BD8268BD
:1028D00022F070020A4342F0070181607047000055
:1028E00030B5036A026A22F001020262426884691A
:1028F00024F073050C682C4323F002058B682B43EE
:102900000A4DA8420BD123F00805CB6822F440728F
:102910002B434D6923F0040315438A692A4342601F
:10292000846149684163036230BD0000002C0140AE
:1029300030B5026A036A23F01003036243688469B6
:102940000D6824F4E64444EA05248D6822F0200250
:1029500042EA05120B4DA8420ED1CD6822F080024A
:1029600042EA05124D6923F4406343EA85038D6909
:1029700022F0400243EA8503436084614968816331
:10298000026230BD002C014030B5036A026A22F4B5
:10299000807202624268C46923F4007324F07305F4
:1029A0000C682C438D6843EA05230C4DA8420ED1D8
:1029B000CD6823F4006343EA05234D6922F44052B5
:1029C00042EA05128D6923F4806342EA05124260EF
:1029D000C4614968C163036230BD0000002C01403E
:1029E00030B5046A026A22F4805202624268C36906
:1029F0000D6823F4E64343EA05238D6824F400546C
:102A000044EA0534064DA84204D14D6922F48042BF
:102A100042EA85124260C36149680164046230BDC4
:102A2000002C014010B5036A046A24F0010404621A
:102A3000846924F0F00444EA021423F00A020A43F1
:102A40008461026210BD10B5036A046A24F01004A8
:102A50000462846923F0A00324F4704444EA02323F
:102A600043EA01118261016210BD10B5406A002184
:102A7000C185C184FFF7F5F810BD01680C3151E83C
:102A8000002F22F4907241E80023002BF5D1016859
:102A9000143151E8002F22F0010241E80023002BFD
:102AA000F5D1016B012909D101680C3151E8002FE2
:102AB00022F0100241E80023002BF5D1202180F8FC
:102AC000421000210163704708B590F84210222996
:102AD00001D0022008BD82684FF480539A4201D190
:102AE000016921B1816A9A421BD04AB10AE00268A9
:102AF000816A5268C2F308020A80816A891C08E070
:102B0000026972B10268526802F07F020A70816A3B
:102B1000491C8162C18D491E0904090CC18503D07D
:102B20001BE002685268F1E70168CA6822F02002DF
:102B3000CA600168CA6822F48072CA6001684A6982
:102B400022F001024A61202180F8421000214163F5
:102B5000026B012A03D0FFF743FA002008BD01638E
:102B600001680C3151E8002F22F0100241E80023E7
:102B7000002BF5D101680A68D20602D50A684968B7
:102B80000091818DFFF76CF8E7E7000070B504460F
:102B900000680169E26821F4405111430161216933
:102BA000A0680843616908432168CA6841F20C6360
:102BB0009A430243CA6020684169A26921F44071C6
:102BC000114341611E492068884202D1FEF730FC62
:102BD00001E0FEF71DFC00EBC00101EB0012606894
:102BE00064218000B2FBF0F3B3FBF1F36FF0180641
:102BF0007343B2FBF0F5B2FBF0F605EB830532232D
:102C000003EB0515B5FBF1F5B6FBF1F605F0F005A4
:102C100005EB0615B2FBF0F6B2FBF0F0B0FBF1F0FD
:102C20006FF01802504306EB800003EB0010B0FB7E
:102C3000F1F0216800F00F002844886070BD0000AA
:102C40000038014081628285C285002141642221D1
:102C500080F84210016921B10168CA6842F48072AB
:102C6000CA6001684A6942F001024A610068C168AD
:102C700041F02001C160002070472DE9F0419846E5
:102C800017460E460446069D27E0681C25D02DB148
:102C9000FEF78AF8A0EB0800A8421ED920680C3085
:102CA00050E8001F21F4D07140E80012002AF5D14D
:102CB0002068143050E8001F21F0010140E80012A4
:102CC000002AF5D1202084F8410084F84200002039
:102CD00084F840000320BDE8F0812068006836EAEF
:102CE000000004D00020B842CFD00020F3E701203C
:102CF000F9E700000148FEF7B5BF0000040100201D
:102D0000FEE7000030B50023074C09E0D55C05F074
:102D10000305CD54D55CC5F38005C5545B1CDBB2FF
:102D200025799D42F2D830BD4C0100202DE9F041BB
:102D3000184C194942F28C63E6780A6842F20F7522
:102D40004FF49670052E22D2DFE806F0030A111523
:102D50001900536309688D63FDF7FAFE012015E041
:102D6000536309688D63FDF7F3FE02200EE000F067
:102D700009FF03200AE000F005FF042006E053638A
:102D800009688D63FDF7E4FE0020A072E070BDE8E5
:102D9000F081000000000020BC000020F0B53548A4
:102DA000344FB0F800E01E300446B0F800C062882E
:102DB000A088E18824897E88BB88FD883F892330EC
:102DC0002331233223340CF1230CE64507D99642F4
:102DD00005D9834203D98D4201D9A7420FD8E645D0
:102DE00005D9964203D9834201D98D4207D8A7421B
:102DF00007D9964205D9834203D98D4201D90920CA
:102E0000F0BD964205D9834203D98D4201D90020F5
:102E1000F0BDE64505D9964203D9834201D9022087
:102E2000F0BD834205D98D4203D9A74201D90620BE
:102E3000F0BD964203D9834201D90120F0BDE64599
:102E400003D9964201D90320F0BD834203D98D42B4
:102E500001D90520F0BD8D4203D9A74201D9072031
:102E6000F0BDE64501D90420F0BDA742FCD90820F9
:102E7000F0BD00005C0100202DE9F043174E002159
:102E800006F11402DFF85890084606F10A07A2F18D
:102E90001E044FF0010C00BF36F8103037F8105008
:102EA0005B1B0F2B0BDC32F8103034F81050A3EB07
:102EB0000508B8F10A0F02DCEB1A0A2B02DD491CE7
:102EC000C9B201E009F800C0401CC0B20528E3D334
:102ED00011B10120BDE8F0830020FBE7660100206E
:102EE0002100002070B51F4C0125607B38B10128FE
:102EF00034D0022802D1E5710020607370BD1A48F9
:102F0000817901F003020270C1F38002827201290B
:102F100002D005290ED106E014A203210120FFF7FB
:102F200011FB482005E015A203210120FFF70AFB51
:102F3000492060740B490C48642301221131483840
:102F4000FFF7C0F83920607406490748642301225E
:102F500011314838FFF7B6F8657370BDBDE87040B1
:102F600000F07CBA000000204C010020474F494E81
:102F70004720544F2054533100000000474F494E22
:102F80004720544F20545332000000002DE9F041F7
:102F9000334CA67B3348002542F28C63016842F231
:102FA0000F72052E44D2DFE806F0032E323E4500B4
:102FB0002C489030817901F003020270C1F3800146
:102FC000817229A204210120FFF7BCFA02210846E0
:102FD000FFF732FA27A0FFF7ABFA472060742049C9
:102FE00020486423012211314830FFF76BF841205B
:102FF00060741B491B486423012211314830FFF7DC
:1030000061F8012013E0BDE8F04100F027BA6571D6
:103010000325A5734B6300688263BDE8F0414FF45C
:103020009670FDF795BD00F0ADFD65710420A073AD
:10303000BDE8F0814B63006882634FF47A70FDF75E
:1030400087FD0F48016821F4806101600021054877
:10305000FEF7CEFDBDE8F04104210248FEF7C8BDF1
:1030600000000020BC000020474F494E4720544F2D
:1030700000000000544845205041524B494E470043
:103080000C08014030B51A4908681A4B82071A48E3
:1030900042F2AC6542F20F7407D50068C00401D556
:1030A00000F026FA1868456310E00268920605D51C
:1030B00000680005F6D500F0FBF9F3E70968CA07D8
:1030C0000C49096805D04FF40960486318688463A7
:1030D00030BD0068400605D542F28C60486340F67A
:1030E000AE0001E0002048631968886330BD00002D
:1030F000080C0140BC00002008080140144810B42E
:10310000827C144841F6FB5441F6616301686AB160
:10311000012A0DD0022A0ED0032A12D0042A03D18C
:1031200000224A630068826310BC70474C6305E06C
:1031300010BC00F0BDB94FF409624A6300688363B4
:10314000F2E74C63006840F6AE018163ECE70000F3
:1031500000000020BC0000202DE9F0411F4C204958
:1031600042F28C6327780A6842F20F764FF4967029
:10317000E7B10225012F20D0022F15D15363096832
:103180008E63FDF7E5FCE17904F11C0004291BD0F6
:10319000134A007890321278904202D102291BD053
:1031A00065730020A0722070BDE8F0815363096848
:1031B0008E63FDF7CDFC0120F5E7536309688E634C
:1031C000FDF7C6FC2570EFE701780129E9D14078C9
:1031D0000128E6D1A573E4E76572E2E7000000206C
:1031E000BC0000202DE9F04101EB8104594201EBC4
:1031F00081015242214400EB800002EB8202069DD5
:1032000084184FF08046022D19D0C81D01F081FFAF
:103210000022334601F02AF805460F46A01F01F0B0
:1032200078FF0022334601F021F82A464FEA0703CF
:1032300001F02EFD01F040FF80B2BDE8F081881C56
:1032400001F067FF0022334601F010F807460D46F3
:1032500004F1090001F05DFF0022334601F006F899
:103260003A462B46E4E700002DE9F04FDFF8E4B1E1
:10327000DFF8E4E158469BF8023005780226032483
:103280009EF800C09EF80A2040780021C3B1ABF13F
:103290001C07012B97F807A07746BF7A07F10109B1
:1032A0001FD077464FF001083F79022B37D0032B10
:1032B00015D15B46AC4578D182427DD2D970C6E04B
:1032C0006D1C5B46AC4501D9D97006E0824202D242
:1032D000DC709C7001E09E70DE708BF80050BDE8E1
:1032E000F08F0CF101075B46AF420FD2BAF1040F29
:1032F0000AD10CF1020CAC4506D3814508D38242B9
:103300000BD1DC709E7008E0D97006E0824202D2D8
:10331000DE709C7001E09E70DC706D1EDDE75B4628
:10332000AC4507D1824201D9D9703AE09C7083F84C
:10333000038036E00ED2BAF1040F03D1824201D2EB
:10334000012D03D0DE7083F802802AE083F8038029
:103350009C7026E0DFF8FCA08EF80510AAF11C0A8C
:10336000F1468AF8131001260D460BE009EB060C16
:103370009CF80AC0624502D089F8058000E001256A
:10338000761CF6B2B742F1D88AF81350824206D9B9
:1033900099F80520012A00D14DB1012F07D0DC702A
:1033A0009970401C8BF8010099E709E004E0D9709E
:1033B0000A218AF81310F4E79E7083F8038046E030
:1033C0000AD2BAF1040F03D1814501D3012D3BD0BC
:1033D000DC7083F802803AE074468EF80510DFF85E
:1033E00074E08A46AEF11C0E8C468EF813104FF036
:1033F000000B01210FE06518AD7AAA4202D984F8CA
:10340000058005E04FF0010501D2AB4600E0AC4677
:1034100001F10101C9B28F42EDD861468EF813C0A7
:10342000814506D3BBF1010F03D06479012C04D090
:1034300004E0DE7083F802A009E029B1012FF8D181
:10344000022801D09042F4D183F803809E70401E80
:10345000587044E71C0000204C01002010B5134CAC
:10346000A07A88B1012813D10020607104F11C00FA
:10347000C07870B1012810D0022812D0032807D1DB
:10348000BDE8104000F096BCFFF7EEFE0120A072F0
:1034900010BDBDE81040FFF75FBEBDE81040FFF76C
:1034A00045BCBDE8104000F0C9BB00000000002092
:1034B0000D48016821F480610160016821F4006118
:1034C0000160016841F48051016008490A6822F0F6
:1034D00010020A600A6842F020020A60016841F4A2
:1034E00080610160704700000C0801400C0C014035
:1034F0000D48016821F480610160016841F40061B8
:103500000160016821F48051016008490A6842F0B5
:1035100010020A600A6822F020020A60016841F481
:1035200080610160704700000C0801400C0C0140F4
:103530002DE9F047484D00260423297A032701206E
:10354000464C4FF0020805F11C0905291BD2DFE8A3
:1035500001F003254E797C004049A27BC97B02B96A
:1035600051B13D4B99F802C01C3305265B78BCF184
:10357000030F03D073B103E0EB7103E0012B09D01B
:1035800031B902E0A671BDE8F087EF71A071FAE7EA
:103590002872F8E7002AFBD1EF71F3E72F48903843
:1035A00001684E63006886632DA204210120FEF7A6
:1035B000C9FF00210220FEF73FFF99F802303321B6
:1035C000342299F80100022B02D001280DD000E02E
:1035D00058B16A74204921486423012211314838C6
:1035E000FEF770FD85F80880CDE76974F2E7E87BA7
:1035F00078B1217960798142C5D91849891D405C2B
:10360000022813D0032813D0062817D0072812D178
:1036100016E06671211DA01D00F09EF80F49A21D45
:1036200001F10A00FFF76EFB2F72ACE70FA000E07C
:1036300010A0FEF77DFF20796071A4E70FA0F8E7E6
:1036400010A0F6E72B72E8739DE7FEF7ECFE2E72F2
:1036500085F8078097E70000000000204C0100205B
:103660005049434B494E4721000000002D52533131
:10367000000000002D525332000000002D52533341
:10368000000000002D525334000000002DE9F041ED
:103690002B4C00250126E07A58B1012839D00228A8
:1036A0003DD0032803D1FEF7BEFEE5726572BDE88A
:1036B000F081244801684D63006885632048352205
:1036C0001C30362390F802C041783725382700781F
:1036D000BCF1020F02D0012901D112E089B1022808
:1036E00015D06774164917486423012211314830F8
:1036F000FEF7E8FC14A202210120FEF723FFE67288
:10370000D5E7022801D06374ECE76274EAE76574D8
:10371000E8E7E07B0028CAD10220E072C7E7E67341
:10372000084D90352879401EC1B22971A81D00F0BE
:1037300037F8AA1D2946101DFFF7E4FA0320ECE72D
:1037400000000020BC00002050555454494E472032
:10375000444F574E0000000070B500241CE0661C6A
:10376000F2B215E0055D835C9D420FD1134604E083
:10377000C5186D78C5545B1CDBB20D786D1E9D427B
:10378000F6DC0B785B1E521E0B70D2B2521CD2B20A
:103790000B789342E6D8F4B20A78A242DFD870BD23
:1037A000002204E083185B788354521CD2B28A4210
:1037B000F8D370472DE9F047394D0020374E0246C7
:1037C0004FF6FF7105F10A04335C1BB925F8102090
:1037D00024F81010401CC0B20528F5D3FDF7E4FA18
:1037E0002E4F213FB861DFF8B89041F28838A9F137
:1037F0000A0930E02A4905220A39A1F59270FCF73E
:1038000077FF0120FDF7A4F92648FCF7F7FFFDF745
:10381000CBFAB969401AB0F57A7F1CD90020315C27
:10382000A9B939F8101034F810208B1A0A2B0EDAC7
:1038300035F81030A3EB010CBCF10A0F07DA9942FE
:1038400001D925F81010914201D224F81010401C23
:10385000C0B20528E3D3FDF7A7FAB969411A41457B
:10386000C8D30F4A0020642112F1140235F8103039
:1038700003EBC306C6EB831334F81060C6EB0616E1
:1038800006EB46063344B3FBF1F322F81030401C3C
:10389000C0B20528EAD3BDE8F0870000210000206F
:1038A00066010020380000202DE9FF5F00268D4DC5
:1038B00002968D486A7AB046B246032405F11C018F
:1038C00062B1012A73D0022A72D0032A10D10246B3
:1038D000867BD27B0023002E6BD0E8E0027932B1E8
:1038E0008146012A76D9FF200024019036E06C72CF
:1038F000BDE8FF9FDFF8ECC10CF11C0C9CF8001038
:10390000012917D102199279022A06D0032A06D07A
:10391000062A08D0072A0DD109E001260AE0274629
:103920004FF0010806E00122CDE9022402E0A3469F
:103930004FF0010A9CF802200092035D09EB04009D
:10394000827A9CF80100FFF74DFCA8820199884219
:1039500002D289F805400190641CE4B299F8041081
:103960004846A142C6D85F481C300178012949D198
:103970008178022902D003292DD043E0407810B18C
:1039800001280BD03EE099F80410032903D1BAF1C5
:10399000000F2CD036E0022919D033E099F804103A
:1039A000042907D0032908D002290AD02AE075E0AB
:1039B00078E07BE089F805B024E0BAF1010FF9D096
:1039C00020E00299012902D1BAF1010FF2D0012EB3
:1039D0000AD017E026E04078022802D0012809D05A
:1039E00010E099F80410D6E7B8F1010F0AD189F870
:1039F000057007E099F80410032903D116B903995B
:103A000089F80510384899F80510801D99F8063096
:103A10000C5C89F806400B54811F09F10602001D59
:103A2000FFF770F999F80600022806D003280BD09A
:103A3000062825D007280ED129E02CA20321012039
:103A4000FEF780FD4B2005E02CA203210120FEF7AC
:103A500079FD4C20687423492348642301221131E5
:103A60004838FEF72FFB442068741E491E48642323
:103A7000012211314838FEF725FB0120687237E733
:103A800022A203210120FEF75DFD4D20E2E723A2E3
:103A900003210120FEF756FD4E20DBE7BDE8FF5F66
:103AA000FFF7DCBCBDE8FF5FFFF7F0BD32B10F7977
:103AB00027B1EC710524012E04D00BE00421E9713B
:103AC000837108E0012A09D18A78032A02D1497852
:103AD000012903D0847103716B7209E7012181719F
:103AE000F9E70000000000204C010020474F494E3C
:103AF0004720544F2052533100000000474F494E99
:103B00004720544F2052533200000000474F494E87
:103B10004720544F2052533300000000474F494E76
:103B20004720544F205253340000000070B5134C0E
:103B300001260025207B10B101281CD10EE0104881
:103B400042F28C6102685163006842F20F71816336
:103B50004FF49670FCF7FCFF26730CE000F012F8AF
:103B6000064807491C309031457005708E7185708C
:103B70000320E0712573657170BD00000000002016
:103B8000BC00002070B52A4842F24321026851630C
:103B9000006842F2B82181634FF41670FCF7D8FF39
:103BA000244C206820F480602060206820F40060AD
:103BB0002060206840F480502060206840F48060DD
:103BC00020604FF4FA763046FCF7C2FFFDF7ECF8C0
:103BD000194DA86116490522A031A1F59270FCF794
:103BE00087FD0120FCF7B4FF11488438FCF706FE7E
:103BF000FFF7D4F8E87448B1012807D0052805D0AC
:103C0000FDF7D2F8A969401AB042E3D3206820F446
:103C100080602060206840F400602060206820F40C
:103C200080502060206840F48060206070BD0000FB
:103C3000BC0000200C080140000000202DE9F041EC
:103C40002A4C2B4942F28C6367780A6842F20F765D
:103C50004FF49670E7B10225012F20D0022F26D015
:103C6000032F22D1536309688E63FCF771FFE1795A
:103C700004F11C0004291ED01D4A037890321678E6
:103C8000B34227D18378022B1DD0032B26D021E00D
:103C9000536309688E63FCF75BFF01201CE05363EC
:103CA00009688E63FCF754FF6570BDE8F081FFF78B
:103CB00069FF032010E0017801290BD14078012829
:103CC00008D1A57306E04078927A904202D1022989
:103CD0000AD065730020A0726070E6E74378907A9E
:103CE000401C8342F3D0F5E76572F3E70000002043
:103CF000BC0000202DE9F0412A4842F2432102682D
:103D00005163006842F2B82181634FF41670FCF7EA
:103D10001FFF254C206820F480602060234D286818
:103D200020F010002860286840F0200028602068FB
:103D300040F4806020604FF4FA773846FCF708FFC3
:103D4000FDF732F81A4EB06116490522A031A1F5EF
:103D50009270FCF7CDFC0120FCF7FAFE1148843884
:103D6000FCF74CFDFFF71AF8F07448B1012807D0B2
:103D7000052805D0FDF718F8B169401AB842E3D319
:103D8000206820F480602060286840F010002860DF
:103D9000286820F020002860206840F480602060BF
:103DA000BDE8F081BC0000200C0801400C0C014073
:103DB0000000002070B5214CA078A0B1012834D1BA
:103DC000FFF798FFE279022004F11C01042A1AD0BF
:103DD0001B4B0D781E78B54224D18D78022D1AD058
:103DE000032D23D01EE0164842F28C619038026801
:103DF0005163006842F20F7181634FF49670FCF7D3
:103E0000A7FE012010E00A78012A0BD14978012988
:103E100008D1A07306E049789B7A994202D1022A20
:103E20000AD060730020A072A07070BD4D78997A9E
:103E3000491C8D42F3D0F5E76072F3E700000020E3
:103E40004C010020490050EAC12018BF04204A0D4F
:103E500018BF40F0010040F2FF72B2EB515F08BFA3
:103E600040F00200012808BF052070470907090E2D
:103E7000002804DB00F1E02080F80014704700F017
:103E80000F0000F1E02080F8141D70472DE9F0418B
:103E90004F1E00EBC7010446D1E9000115461E463E
:103EA00037F006020DD02A46334601F085F97F1E11
:103EB00004EBC703D3E9002300F0EAFE37F0060263
:103EC000F1D1022F25D0042F13D0062F18BFBDE843
:103ED000F0812A46334601F06FF9D4E90A2300F055
:103EE000D7FE2A46334601F067F9D4E9082300F0EB
:103EF000CFFE2A46334601F05FF9D4E9062300F0ED
:103F0000C7FE2A46334601F057F9D4E9042300F0EE
:103F1000BFFE2A46334601F04FF9D4E9022300F0F0
:103F2000B7FE2A46334601F047F9D4E90023BDE83D
:103F3000F04100F0ADBE00000022134610460149DA
:103F400000F062BF0000F03F00F0A2BE0022134666
:103F50001046114600F058BF40F2013200204FF0E9
:103F6000E04101F06BBC0000024A0020110701F0A3
:103F700065BC000001FDFFFF08B5FDF7ADF8FEF7D9
:103F800021FCFEF741FBA748416941F00101416175
:103F90004069002200F00100009011460B20FDF75F
:103FA000F9F80B20FDF7E8F8FEF7DEFAFEF7B0FBB4
:103FB0009E489D49002501609D49C0E901154FF4C7
:103FC0008041C0E9035145618561C5610562FCF727
:103FD000F1FE08B172B6FEE7944896499C30016044
:103FE0004FF4E131C0E901150C21C560C0E904516D
:103FF0008561C561FDF76CFF08B172B6FEE78E4CB6
:1040000025716571A571E57125726572A572E572FC
:1040100025730127E77304F11C0635716573A573D9
:104020008248E4308773C77325706570A570FFF709
:104030005FFA7E4800215430FDF78CFD7B48042157
:104040005430FDF787FDFEF709FA7848012204F1A4
:1040500010019C30FDF7B6FF302060747348642374
:10406000012204F111019C30FEF72CF8307901286F
:10407000FCD13120607470496C48642301221131F5
:104080009C30FEF71FF86DA204210120FEF75AFABA
:1040900001210220FEF7D0F96BA0FEF749FAFFF7E5
:1040A00089FBFEF7E9FE0028EDD1604E42F243287D
:1040B00054363168C1F83480316842F2B829C1F809
:1040C000389032205C49607464230122113106F17A
:1040D0004800FDF7F7FF60A203210120FEF732FA46
:1040E0004FF4FA70FCF734FD42F28C6A42F20F7B17
:1040F0002079A8B1012876D0022877D00328F7D1FB
:10410000A079A0B301287DD00228F1D1FCF74CFEA4
:10411000A169401AB0F57A7FEAD9A5712571E7E760
:10412000607948B10128E3D1E0790528E0D2DFE8E1
:1041300000F0484B4E5157003C490522F431A1F59F
:104140009270FCF7D5FA0120FCF702FD37483038B1
:10415000FCF754FBFEF722FE0A28C9D2DFE800F084
:1041600005080D13191F2124272F504621E040E098
:104170003168C1F834A048461EE03168C1F834A067
:1041800041F2B35018E03168C1F834A040F6055050
:1041900012E03168C1F834A040F282600CE0404681
:1041A00007E041F26A5004E040F6D94001E040F2F5
:1041B0006C603168486358463168886398E7677176
:1041C00096E7FFF7B3FC93E7FFF7B2F990E7FFF745
:1041D0006BFB8DE7FEF786FE8AE704E006E011E060
:1041E000FEF7D4FE84E7FEF74DFF81E7FEF786FF7A
:1041F0007EE73068456330688563FCF7D5FDA061D4
:10420000A77175E718480068400788D4FCF7CCFD13
:10421000A169401A322880D3FCF7C6FDA0610220B4
:10422000A07165E7001002400058004068000020BF
:10423000A0860100003801400000002053616D702D
:104240006C696E6721000000576169742C20506C06
:104250006561736521000000474F494E4720544F68
:104260002054533100000000080C01402DE9F04DAE
:104270001D460C4698B0174621F0004123F000433C
:10428000002814BF4FF0010C4FF0000C0CEB440C55
:10429000FE4A0CEB02064FEA620C66452BD33E0049
:1042A00018BF012606EB45061644F94A964222D36A
:1042B000F84A53EA070C02D0944205D148B918B025
:1042C00000201146BDE8F08D002808BF4FF0000C1B
:1042D00001D04FF0010C0CEB440212F5001F0AD87C
:1042E000002F14BF4FF0010C4FF0000C0CEB4502F7
:1042F00012F5001F07D918B03A462B462146BDE8F3
:10430000F04DFFF721BE0022DFF88CA3002CB8BFD0
:10431000534526DADFF884C36345A8BF022220DABA
:10432000DFF870C39C451CDCDFF874C30CEB235C26
:10433000BCF1140F08DDCCF1340627FA06FC0CFAA8
:1043400006F6BE420DD108E05FB9CCF1140623FA9F
:1043500006FC0CFA06F69E4203D10CF00102C2F1F3
:10436000020251EA000C19D1002D17DA002C18BFF7
:10437000022A01D0012A07D00220FBF754FF18B00F
:10438000BDE8F04DFFF7D8BD0220FBF74CFFFFF76B
:10439000D3FD18B081F00041BDE8F08DB7F1000CFD
:1043A0006CD1534525D104F1804212F5801201BF32
:1043B00000280020B74918B008BFBDE8F08DB54807
:1043C000884207DC002DA1BF6046294618B0BDE831
:1043D000F08D07E0281E05DA80F0004118B0604635
:1043E000BDE8F08DAF497944D1E9000118B0BDE8CE
:1043F000F08DDFF8A0C2634525D1002D1FDA19B179
:10440000514512D1D8B909E0002840F0EC82A24A07
:10441000214618B062F31E01BDE8F08D0020214650
:1044200018B060F31E01BDE8F08D08DA18B023461D
:10443000BDE8F04D02460020614600F0E5BC18B032
:104440002146BDE8F08D514518DAB5F1804F0DD009
:10445000A5F1005CBCF1FF5C10D1B4F1000C0DDBE8
:1044600018B06146BDE8F04D00F0ECBB234618B033
:104470000246BDE8F04D194600F09EBE060024F04D
:10448000004C3BD1D9B1514533D1002C06DD002D74
:10449000A1BF0020514618B0BDE8F08D002C01DD11
:1044A000002D1BDB002C13DA002D11DB012A4FF04D
:1044B000000014BF78497C4918B0BDE8F08D022A8D
:1044C00018BF002C0AD0012A08D1002C06DA0AE015
:1044D000002CB8BF002D11DA012A04D0002018B03A
:1044E0000146BDE8F08D18B000204FF00041BDE856
:1044F000F08DA1F14050B0F17F601AD0012000EBA7
:10450000E47050EA020421D0624C521E4FF0000BBE
:10451000104304BF4FF0000B644C654883427CDDC0
:10452000644A654893421FDD884217DB002D25DB76
:1045300037E0002C00DA4AB1022A0CBF01204FF00C
:10454000FF3018B0BDE8F04D00F0E3BD0120FBF7EF
:104550006AFE18B0BDE8F04DFFF7F8BC4D4A8A423C
:1045600002DC002D0ADC1CE0814202DA002D18DAA0
:1045700004E0484B994220DD002D12DD0220FBF7BC
:1045800052FEFFF7E9FC05460E4600225346584608
:10459000214600F011FE18B066F31E012846BDE862
:1045A000F08D0220FBF73FFEFFF7DEFC0A462146B6
:1045B00018B062F31E01BDE8F08D0022304661465E
:1045C00001F020F880460E466FF0010201F036F946
:1045D0004FF05532394B00F023FF4246334600F08E
:1045E000EBFD0022364B00F01BFF8246424633466D
:1045F00004911046194600F0DFFD5246049B00F07E
:10460000DBFD8A4600904FF0C0422E4B40463146BB
:1046100000F0D2FD2C4A2B4B00E027E0CDE906014B
:104620005146009800F0C8FD82460191274A284B68
:104630004046314600F0C0FD5246019B00F0E2FFCB
:1046400082460B4602460591DDE9060100F020FB9B
:10465000DDE9062300268846304600F0D3FF5246A7
:10466000059B00F0DDFE024600F07EB90020B1F5AA
:10467000801F07DA35223046614601F0DFF8064632
:104680006FF0340000EB215024E00000FFFF1F001A
:10469000FFFF0F000000F03F0000F07F00004043EC
:1046A00001FCFFFF961500000000F0FF0000F0BFC6
:1046B0000000E0410000F043FFFFEF3F5555D53FBC
:1046C0000000E03F4715F73FFE822B6544DF5DF8B1
:1046D0000BAE543EA0F2FF300190C1F3130040F046
:1046E0007F6141F040510291FE498842D8BF0020CD
:1046F00004DDFD498142C8BF012001DD0D9008E0C5
:1047000000200D900198401C01900298A0F58010A7
:1047100002900299F54878440B910D9900EBC10085
:10472000D0E900230F9330460A920B9900F06AFFFC
:10473000CDE90601DDE90A2130460F9B00F0A8FA19
:1047400002460B460020EA4900F05EFB0591024656
:104750000B460090DDE9060100F02EFD1490E548BF
:104760008A464FF0000878440299006812904FF092
:10477000005040EA61010D980F9B01EB804000F56D
:10478000002109910A9A129800F03CFF32460B9BD7
:1047900000F046FE4246534600F00EFD06460291EA
:1047A00040465146099B129A00F006FDDDE90623BA
:1047B00000F036FE3246029B00F024FF059B009A73
:1047C00000F0FAFC0091149A0490534610461946E2
:1047D00000F0F2FC06460246C7480B46029106214D
:1047E0007844FFF753FBCDE90510029B3246104693
:1047F000194600F0E1FCDDE9053200F0DDFC059131
:104800000646534640461946149A00F041FA009B6A
:10481000049A00F0D1FC3246059B00F039FACDE94C
:104820000510424653461046194600F0C5FC0022CA
:10483000B24B02910A9000F02BFADDE9053200F04C
:1048400027FA0E464246AD4B404600F0DBFE029B87
:104850000A9A00F0D7FEDDE9053200F0E1FD42469C
:1048600002910A9033461046514600F0A5FCCDE96E
:1048700006015346149A02990A9800F09DFC8A4654
:104880000290334642460099049800F095FC534646
:10489000029A00F0FDF982460B4602460591DDE9D9
:1048A000060100F0F5F9DDE90623002088460646FA
:1048B00000F0A8FE5246059B00F0B2FD8246099129
:1048C0004FF060428E4B3046414600F075FC04903C
:1048D00006918C4A8A4B5046099900F06DFC82463D
:1048E0000291894A894B3046414600F065FC5246A8
:1048F000029B00F0CDF9864B7B440D9A03EBC2037B
:10490000D3E9002300F0C4F90E900791019800F05C
:1049100000FC0591DDE9061382460E9A049800F02A
:10492000B7F97C4A7A440D9B02EBC303D3E9002319
:104930000093029200F0ACF95246059B00F0A8F9F2
:104940000026884652463046059B00F05BFE009BE1
:10495000029A00F057FE069B049A00F053FE079B54
:104960000E9A00F05DFD024600200B46029038468C
:10497000294600F021FC824601912B463846194613
:10498000029A00F03FFE3246434600F015FC5246C4
:10499000019B00F07DF907468A4632464346294688
:1049A000029800F009FC05460E463A46534600F0D0
:1049B0006FF9594A8846914221DBA8EB020353EA7A
:1049C000000210D12A46334600F01CFECDE9040156
:1049D000524A534B3846514600F05AF9DDE9042358
:1049E00000F0E8FC21D20220FBF71DFCFFF7B4FA2F
:1049F0000A46214618B062F31E01BDE8F08D494B0E
:104A000028F000429A4210D3474A08EB020353EAC7
:104A100000027FF4C6AD2A46334600F0F3FD3A4665
:104A2000534600F0C7FC7FF6BCAD0022019228F08F
:104A300000403E493E4A01EB2051824223DA481CA5
:104A40004FF4801121FA00F040443A4AC0F30A5171
:104A50007A44394BA1F2FF31CB4020EA0303C0F383
:104A6000130040F48010C1F11401C8401268019095
:104A7000B8F1000FBCBF404201902846314600F01B
:104A8000C1FD05460E462A4633463846514600F0DB
:104A9000FFF84FF000084246284B4046059100F0D1
:104AA0008BFBCDE90601264A264B4046059900F0CE
:104AB00083FB009102902A4633464046059900F058
:104AC000A1FD3A46534600F0ABFC1F4A1F4B00F0D5
:104AD00073FB009B029A00F0DBF80746884602460B
:104AE0000B4635E08E9803007AB60B00DE1100000D
:104AF0000000F03F161200004411000000000840C2
:104B000009C7EE3FFD033ADCF5015B14E02F3EBE22
:104B10001C100000E00F000000009040FE822B659A
:104B20004715973C00CC904000346F3F01FCFFFFDD
:104B30000000E03F2C0F0000FFFF0F00432EE63F78
:104B4000396CA80C615C20BEEF39FAFE422EE63FBC
:104B5000DDE9060100F09CF8DDE9062305460E4676
:104B600000F050FD3A46434600F05AFC0F462A46F4
:104B7000334600901046194600F01EFB824602465E
:104B80002E4888460B4605217844FFF77FF95246A8
:104B9000434600F011FB2A46334600F041FC8046B4
:104BA0008A463B4628463146009A00F005FB3B46C4
:104BB000009A00F06DF80691009000224FF08043BB
:104BC0004046514600F01EFD0F460C9042465346AB
:104BD0002846314600F0F0FA3B460C9A00F014F9F2
:104BE000069B009A00F00EFD2A46334600F00AFDAF
:104BF0000022134B00F014FC054601980E4601EB11
:104C000000510815002810DC28463146019A00F0B2
:104C100015FEFFF717F9042808BFFFF7A5F9284686
:104C20003146019A00F00AFE05460B4618B02A46A6
:104C300058462146BDE8F04D00F0BEBACC0D00004C
:104C40000000F03F2DE9F04106460F4600F0F4FB6E
:104C5000041E0D4618BF0120284320F00040C0F17B
:104C60007F6000F1E040C00F0ED0301C18BF012063
:104C7000384320F00040C0F17F6000F1E040C00FF9
:104C800004BF0120FBF7CFFA20462946BDE8F0819A
:104C900010B591EA030F48BF83F0004300F1BA84D6
:104CA000841A71EB030C05D2121943EB0C03001BA1
:104CB00061EB0C01DFF824E14FEA1154A4EB135C23
:104CC0001EEA430F18BF9EEA445F73D023EA0E0327
:104CD000DCF1200E21EA045143F4801332D322FA8E
:104CE0000CFE10EB0E0023FA0CFE41EB0E01CCF192
:104CF000200E03FA0EFE10EB0E0051F10001B1F58B
:104D0000801FCCF1200E32D201EB045112FA0EF2C8
:104D1000BDE8104058BF7047401C38BF5FEA4202F0
:104D200018BF7047002814BF20F0010041F10001B6
:104D30004FEA410313F5001F38BF7047A1F1C0418E
:104D400000F032BB012A43EB0302ACF1200CDCF192
:104D50001F0E32BF4FF0000E23FA0CF310EB0300CE
:104D600041EB0451B4EB115FD0D0A1EB045101F53C
:104D7000801149085FEA300001EB04510ED350F175
:104D8000000038BF12FA0EFE08D1BDE81040C9E796
:104D9000401C38BF5FEA4202CAD1C3E7BDE81040F9
:104DA0004FEA410313F5001F38BF7047A1F1C0411E
:104DB00000F0FABA9EEA445F08D011EA5E0FBDE83F
:104DC000104004BF01F0004100207047BDE81040D2
:104DD00070B500F09BFA00BF64FBBE3E0000E0FF30
:104DE00002494FF0000000F0F7BC00BF0000F87F60
:104DF000491058BFC1F140415B1058BFC3F1404357
:104E00008B42EFF3008070472DE9C04130B4DFF8EA
:104E1000A0C23CEA111418BF3CEA131400F0EC8065
:104E200081EA03051CEA111444EAD57418BF1CEA90
:104E3000131500F0C780A4EB05044FF0004545EAC8
:104E4000C12145EAC32341EA505143EA525304F1D8
:104E50007F74994204F500344FEAC0204FEAC22221
:104E600008BF904200F09C804FEA13650FF2401695
:104E7000765D4FEA134506FB05F7C7F1807706FB21
:104E800007F74FEAD737A7FB03687642C8F58038A3
:104E9000A7FB06CE38BFA8F1010807FB08E64FF0D4
:104EA000000EA6FB028CE6FB03CEDCF1000CCEF17B
:104EB000004E38BFAEF1010EA6FB0C584FF00007B4
:104EC0004FF00005E6FB0E87A1FB08C6A0FB07CE4E
:104ED00016EB0E0645F10005E1FB076515F1E04E06
:104EE0007EBFA4F580345FEA46066D4116F1800767
:104EF00045F100054FEA17274FEA066647EA0567BE
:104F0000A6F1DE46B6F1805F4FEA15251FD9384677
:104F100024F0010C05EBC471BCF1FE6F01EB0C1128
:104F200002D8F0BCBDE8008124425CBF01F5801EC0
:104F30009EEAC47F02D4F0BCBDE80081244238D48C
:104F4000F0BCA1F1C041BDE8004100F02DBA4FEA2C
:104F5000D22242EA43524FEAD323A7FB02864FEA0A
:104F6000D02040EA415007FB03661EEA0E0F4FEACD
:104F7000D12105FB026658BFA6EB0056B6EB0056E2
:104F80004FEA520E4EEAC37E18EB0E0E56EB530E4E
:104F9000BDD518EB02085E417F1C55F10005B6E750
:104FA0004FF480154FF000074FF000064FF0000857
:104FB000ADE7F0BC4FF0000001F1C04101F000414D
:104FC000BDE8008111EA0C1F0CEA131500D00CE0BB
:104FD00013EA0C1F00F025804FF00000F0BC81EABE
:104FE000030101F00041BDE80081F0BCBDE80041D3
:104FF00081EA030100F0D8B9F0BCBDE8004170B50A
:1050000000F084F9097EFC3E00F007B881EA030154
:105010004FF0000001F00041704781EA030100F009
:10502000C3B9F0BCBDE800414FF000002149704712
:10503000FFFDFBF9F7F5F4F2F0EEEDEBE9E8E6E45D
:10504000E3E1E0DEDDDBDAD8D7D5D4D3D1D0CFCDE4
:10505000CCCBCAC8C7C6C5C4C2C1C0BFBEBDBCBB1D
:10506000BAB9B8B7B6B5B4B3B2B1B0AFAEADACAB18
:10507000AAA9A8A8A7A6A5A4A3A3A2A1A09F9F9EF2
:105080009D9C9C9B9A9999989797969595949393A4
:10509000929191908F8F8E8E8D8C8C8B8B8A89893B
:1050A00088888787868585848483838282818180BE
:1050B0000000FF070000F87F4FEA1153A3F580635B
:1050C000D3F11E03A8BFD3F1200C08DB4FF0004240
:1050D00042EAC12252EA505232FA03F070470942C2
:1050E0000BD4102BC4BF0020704703F5787CBCF1B3
:1050F000FF3F05D04FF0FF3070474FF00000704782
:1051000070B500F003F900BF499224800020704779
:10511000F0E710F0004248BF4042B0FA80F310FAC6
:1051200003F10AD0C3F11D0303F580634FEA415038
:1051300002EB035202EBD12170474FF000007047A1
:1051400051EA030C17D41CF5801F58BFBCF5801F13
:1051500000F10680994218BF704708BF904270471F
:1051600007D711F5801F58BF13F5801F19D4994236
:105170007047894270471CF5801F08D5BCF5801F19
:10518000F7D58B4218BF704708BF824270474FF473
:10519000001C1CEB410F38BF1CEB430F01D28B42AC
:1051A000704770B500F0B2F8922449004FF00051FA
:1051B0004FF08053FFF71CBEDFF848C170B51CEA02
:1051C000111E1EBF1CEA13159EEA0C0F95EA0C0F68
:1051D00000F06F8081EA030423EA4C134EEAD47E88
:1051E00021EA4C1141F4801143F48013AE44A1FB39
:1051F000024CA0FB0365AEF17F7E361955EB0C0522
:10520000A1FB034C4CF10003A0FB021C16EB0C06A7
:10521000654153F10003094218BF46F0010613F43B
:10522000007F0BD14FEA03314FEA0530340341EAE6
:10523000155140EA16506FF003020AE04FEAC3210D
:105240004FEAC520F40241EA555140EA56506FF04A
:10525000020202EB2E4201EB025585EACE710AD022
:105260005FEA440C18BF24F0004450F1000041F103
:10527000000120EAD47040F2FE7C624500D270BD8D
:10528000A84214BF4FF080444FF04044002E08BFA6
:105290000024BEF1806FA8BFA1F1C041BDE87040FD
:1052A00080F282804FF0000001F1C04101F0004126
:1052B00070479EEA0C0F0CEA131518BF95EA0C0F05
:1052C00006D04FF0000081EA030E0EF0004170BDE1
:1052D00000F01CF88900013E00F007B800F009B8A2
:1052E0004FEA430C5FEA5C5C08D081EA030100F0FE
:1052F0005BB84FEA410C5FEA5C5CF6D14FF000000E
:10530000014970470000FF070000F87F0EF1020E10
:105310002EF0030E5EF8046B364205D4012A43EBEF
:10532000030515F5001F12D8012841EB010C1CF5EF
:10533000001F0CD80ED14FEAD17C15F5001F0CEBE5
:105340004C0C0CF1020C08BF4CEBD37C04E04FF08A
:10535000080C01E04FEAD37C0CEB4C0526FA05F66D
:1053600006F00706B6F1040C06D20EEB860CBDE87B
:1053700070404CF0010C6047DFE80CF0090B0202B2
:105380004FF000414FF00000A1F5002170BD19461B
:105390001046012851EB010418BFD4F5001484BF56
:1053A000002001F0004170BD0808A0F500114FEA8F
:1053B0003101704753EA010C17D41CF5801F58BF08
:1053C000BCF5801F00F106808B4218BF704708BFF4
:1053D0008242704707D713F5801F58BF11F5801F11
:1053E00019D48B4270479B4270471CF5801F08D52B
:1053F000BCF5801FF7D5994218BF704708BF90428F
:1054000070474FF4001C1CEB430F38BF1CEB410FDF
:1054100001D2994270470FB40CBC03BCFFF7C1BE68
:1054200091EA030F10B581F000413FF539AC83F0EC
:10543000004300F0EFB800002DE9F04101F5801CB9
:10544000BCF5001FC0F2C3804FEA115C21EA0C5189
:105450000CF1FD0C41F480115FEA5C0C0CF5C07C92
:1054600001D3400049413DA4890241EA905187029D
:105470008E0E0A0CA45D04FB04F602FB06F6C6F1D0
:105480004046A4FB0662F60D46EA422606FB06F4F9
:10549000A4FB01235242C3F1404338BF5B1EA6FB6D
:1054A00002420024E6FB0324D20B42EA4446A6FB58
:1054B0000623A1FB02E2A3FB07E4A4184FF00002BD
:1054C00052F10002E3FB01426442C2F1404E38BF98
:1054D000AEF1010EA6FB04234FF00002E6FB0E32F4
:1054E000A2FB03464FF00004B61954F10004E2FB9E
:1054F0000264A1FB06E6A4FB07E816EB08064FF0E2
:10550000000858F10008E4FB01687642C8F14058F1
:1055100038BFA8F10108A2FB06E4A3FB08E52D199A
:105520004FF0000454F10004E2FB0854A1FB05E62F
:10553000A7FB04E818EB06084FF0000656F100063A
:10554000E1FB048618F1200556F10006A809A8F130
:105550001B08B10908F03F08B8F10A0F40EA86605D
:105560001CD901EB0C51BDE8F08100BFFCF5EEE861
:10557000E2DDD8D3CFCBC7C3C0BDB9B6B4B1AEACF2
:10558000A9A7A5A3A19F9D9B9A9896959392908F6A
:105590008D8C8B898887868584838281A0FB0068B7
:1055A00000FB01F208EB4208B8EB872807D5341856
:1055B00058EB0104D5D5401C51F10001D1E7341A54
:1055C00078EB0104CDD4401E71F10001C9E75FEA18
:1055D0004C0C5FEA9C5C0DD105D34FF0000001F04C
:1055E0000041BDE8F081BDE8F04170B5FFF78EFEE7
:1055F0006DDBFFBEBDE8F0414FF000000049704791
:105600000000F87F10B591EA030F48BF83F0004314
:105610003FF546AB841A71EB030C07D212198CF0DC
:10562000004C43EB0C03001B61EB0C01DFF8A4E121
:105630004FEA1154A4EB135C1EEA430F18BF9EEA15
:10564000445F00F0B08023EA6E03524221EA045125
:10565000C3EB6E0338BF5B1EDCF1200E25D322FAAC
:105660000CFE10EB0E0043FA0CFE41EB0E01CCF1E8
:10567000200E03FA0EFE10EB0E0051F10001CCF1EA
:10568000200E29D412FA0EF201EB0451BDE81040AD
:1056900058BF7047401C1CBFB2F1004F7047002834
:1056A0000CBF491C20F00100704712EB020E43EBC7
:1056B000030218BF4FF0010E4EEA4202ACF1200C7B
:1056C000DCF11E0E54D943FA0CFE10EB0E0051F122
:1056D000FF31CCF11E0ED5D50EF1010E12FA0EFEE1
:1056E000404141EB010101EB445C5FEA5C5C10D995
:1056F00010EBDE7001EB045138BFBEF1004FBDE886
:10570000104018BF704700280CBF491C20F0010052
:10571000704730D24FEAD42C11F5001124F4006404
:105720001BD0B1FA81F20B3AA41AA41ED2F12003C5
:10573000914030FA03F31943904001EBCC71002CF7
:1057400001EB0451BDE81040A8BF704701F1C04112
:105750004FF0000001F000417047B0FA80F310FAFA
:1057600003F100D110BDE41A173C4805C90AE4E76B
:1057700001EB045110BD491001EB0451BDE810408C
:105780004FEA300002E04FF0000170474A0008BFC6
:105790000042F8D0B2F5001F28BF704701F0004169
:1057A0004FF0000070479EEA445F07D011EA5E0F99
:1057B000BDE8104004BF002100207047BDE8104044
:1057C00070B5FFF7A3FD00BF40DFF63E83F0004158
:1057D000104670470000E0FF0CF00F03092B08BFD4
:1057E000082000F059800A2B0BD0082B18BF7047F7
:1057F00008BF1CF0400F0AD04FF000004FF000012E
:1058000070471CF0400F18BF4FF0004070471CF06D
:10581000100F08D020F0704300F07F4242EAD3011D
:105820004FEA4370704700F0604021F07F4242EA47
:10583000000201F07F4040EA727070474FF0FF0CA9
:105840004CF4E06C1CEA11531CBF9CEA030C944519
:10585000C2BFDA4201EB02517047002B0DD0BCF100
:10586000000F0FD0002A01F00041A4BF41F0E04139
:1058700041F07F614FF00000704701F000414FF0B0
:105880000000704750EA01334FF09B0C18BF4CF0FA
:10589000806C7FF4A5AA70471CF4801F11D01CF403
:1058A000E02F03D06FEACC31490070474FF04050F1
:1058B000EFF3008222F0704242EA000282F3008895
:1058C00070474FF00000704700000000000000002B
:1058D0000102030406070809000000000102030496
:1058E000010202030405060708090A0B0C0D0E0F3E
:1058F0001010000000000000000000000000F03F59
:10590000000000000000F83F000000000000000060
:105910000000004003B8E23F00000000000000006B
:1059200006D0CF43EBFD4C3E033333333333E33FF9
:10593000FFAB6FDBB66DDB3F4D268F515555D53F25
:1059400001411DA96074D13F65DBC9934A86CD3FF3
:10595000EF4E454A287ECA3F3E5555555555C53FE1
:1059600093BDBE166CC166BF2CDE25AF6A56113FD3
:10597000F16BD2C541BDBBBED0A4BE726937663ED5
:105980000000000000000000A859000800000020EE
:105990003800000028010008E05900083800002005
:1059A000F0070000440100080000000000000000B3
:1059B00000000000000000000000000000000000E7
:1059C00000000000000000000000000000000000D7
:1059D0000024F4000100000010000000000000009E
:04000005080000ED02
:00000001FF
